{
  "_format": "hh-sol-artifact-1",
  "contractName": "Taxatation",
  "sourceName": "contracts/Taxatation.sol",
  "abi": [
    {
      "inputs": [
        {
          "internalType": "address",
          "name": "_samuraiAddress",
          "type": "address"
        },
        {
          "internalType": "address",
          "name": "_conquestCoinAddress",
          "type": "address"
        }
      ],
      "stateMutability": "nonpayable",
      "type": "constructor"
    },
    {
      "inputs": [],
      "name": "Doom",
      "outputs": [],
      "stateMutability": "nonpayable",
      "type": "function"
    },
    {
      "inputs": [
        {
          "internalType": "address",
          "name": "_user",
          "type": "address"
        },
        {
          "internalType": "uint256",
          "name": "_id",
          "type": "uint256"
        }
      ],
      "name": "balanceOf",
      "outputs": [
        {
          "internalType": "uint256",
          "name": "",
          "type": "uint256"
        }
      ],
      "stateMutability": "view",
      "type": "function"
    },
    {
      "inputs": [
        {
          "internalType": "uint256",
          "name": "_id",
          "type": "uint256"
        }
      ],
      "name": "buildBase",
      "outputs": [],
      "stateMutability": "nonpayable",
      "type": "function"
    },
    {
      "inputs": [
        {
          "internalType": "uint256",
          "name": "_id",
          "type": "uint256"
        },
        {
          "internalType": "uint256",
          "name": "_amount",
          "type": "uint256"
        }
      ],
      "name": "buyItem",
      "outputs": [],
      "stateMutability": "nonpayable",
      "type": "function"
    },
    {
      "inputs": [
        {
          "internalType": "uint256",
          "name": "target",
          "type": "uint256"
        }
      ],
      "name": "changeLocation",
      "outputs": [],
      "stateMutability": "nonpayable",
      "type": "function"
    },
    {
      "inputs": [],
      "name": "collectTax",
      "outputs": [],
      "stateMutability": "nonpayable",
      "type": "function"
    },
    {
      "inputs": [],
      "name": "deployInLand",
      "outputs": [],
      "stateMutability": "nonpayable",
      "type": "function"
    },
    {
      "inputs": [],
      "name": "healSamurai",
      "outputs": [],
      "stateMutability": "nonpayable",
      "type": "function"
    },
    {
      "inputs": [
        {
          "internalType": "uint256",
          "name": "",
          "type": "uint256"
        },
        {
          "internalType": "address",
          "name": "",
          "type": "address"
        }
      ],
      "name": "items",
      "outputs": [
        {
          "internalType": "uint256",
          "name": "",
          "type": "uint256"
        }
      ],
      "stateMutability": "view",
      "type": "function"
    },
    {
      "inputs": [
        {
          "internalType": "uint256",
          "name": "",
          "type": "uint256"
        }
      ],
      "name": "lands",
      "outputs": [
        {
          "internalType": "uint256",
          "name": "ID",
          "type": "uint256"
        },
        {
          "internalType": "string",
          "name": "uri",
          "type": "string"
        },
        {
          "internalType": "uint256",
          "name": "owner",
          "type": "uint256"
        },
        {
          "internalType": "uint256",
          "name": "value",
          "type": "uint256"
        },
        {
          "internalType": "bool",
          "name": "isBase",
          "type": "bool"
        },
        {
          "internalType": "uint256",
          "name": "attackerClan",
          "type": "uint256"
        }
      ],
      "stateMutability": "view",
      "type": "function"
    },
    {
      "inputs": [
        {
          "internalType": "uint256",
          "name": "_id",
          "type": "uint256"
        }
      ],
      "name": "ownerOfLand",
      "outputs": [
        {
          "internalType": "uint256",
          "name": "",
          "type": "uint256"
        }
      ],
      "stateMutability": "view",
      "type": "function"
    },
    {
      "inputs": [
        {
          "internalType": "string",
          "name": "_uri",
          "type": "string"
        }
      ],
      "name": "register",
      "outputs": [],
      "stateMutability": "nonpayable",
      "type": "function"
    },
    {
      "inputs": [],
      "name": "samurai",
      "outputs": [
        {
          "internalType": "contract Samurai",
          "name": "",
          "type": "address"
        }
      ],
      "stateMutability": "view",
      "type": "function"
    },
    {
      "inputs": [],
      "name": "sellGoods",
      "outputs": [],
      "stateMutability": "nonpayable",
      "type": "function"
    },
    {
      "inputs": [
        {
          "internalType": "uint256[3]",
          "name": "_heroes",
          "type": "uint256[3]"
        }
      ],
      "name": "setDeck",
      "outputs": [],
      "stateMutability": "nonpayable",
      "type": "function"
    },
    {
      "inputs": [
        {
          "internalType": "uint256",
          "name": "_id",
          "type": "uint256"
        }
      ],
      "name": "startWar",
      "outputs": [],
      "stateMutability": "nonpayable",
      "type": "function"
    },
    {
      "inputs": [
        {
          "internalType": "uint256",
          "name": "_newLocation",
          "type": "uint256"
        }
      ],
      "name": "teleport",
      "outputs": [],
      "stateMutability": "nonpayable",
      "type": "function"
    },
    {
      "inputs": [],
      "name": "useHealthPotion",
      "outputs": [],
      "stateMutability": "nonpayable",
      "type": "function"
    },
    {
      "inputs": [
        {
          "internalType": "uint256",
          "name": "_nftID",
          "type": "uint256"
        }
      ],
      "name": "useKinjutsu",
      "outputs": [],
      "stateMutability": "nonpayable",
      "type": "function"
    },
    {
      "inputs": [
        {
          "internalType": "uint256",
          "name": "_id",
          "type": "uint256"
        }
      ],
      "name": "viewAllAttackersPower",
      "outputs": [
        {
          "internalType": "uint256",
          "name": "",
          "type": "uint256"
        }
      ],
      "stateMutability": "view",
      "type": "function"
    },
    {
      "inputs": [
        {
          "internalType": "uint256",
          "name": "_id",
          "type": "uint256"
        }
      ],
      "name": "viewAllDefendersPower",
      "outputs": [
        {
          "internalType": "uint256",
          "name": "",
          "type": "uint256"
        }
      ],
      "stateMutability": "view",
      "type": "function"
    },
    {
      "inputs": [],
      "name": "viewAllLands",
      "outputs": [
        {
          "components": [
            {
              "internalType": "uint256",
              "name": "ID",
              "type": "uint256"
            },
            {
              "internalType": "string",
              "name": "uri",
              "type": "string"
            },
            {
              "internalType": "uint256",
              "name": "owner",
              "type": "uint256"
            },
            {
              "internalType": "uint256",
              "name": "value",
              "type": "uint256"
            },
            {
              "internalType": "uint8[]",
              "name": "roads",
              "type": "uint8[]"
            },
            {
              "internalType": "bool",
              "name": "isBase",
              "type": "bool"
            },
            {
              "internalType": "uint256",
              "name": "attackerClan",
              "type": "uint256"
            },
            {
              "internalType": "address[]",
              "name": "defenderWarriors",
              "type": "address[]"
            },
            {
              "internalType": "address[]",
              "name": "attackerWarriors",
              "type": "address[]"
            }
          ],
          "internalType": "struct Conquest.Land[]",
          "name": "",
          "type": "tuple[]"
        }
      ],
      "stateMutability": "view",
      "type": "function"
    },
    {
      "inputs": [
        {
          "internalType": "uint256",
          "name": "_id",
          "type": "uint256"
        }
      ],
      "name": "viewAttackers",
      "outputs": [
        {
          "internalType": "address[]",
          "name": "",
          "type": "address[]"
        }
      ],
      "stateMutability": "view",
      "type": "function"
    },
    {
      "inputs": [
        {
          "internalType": "address",
          "name": "_playerAddress",
          "type": "address"
        }
      ],
      "name": "viewCurrentDeck",
      "outputs": [
        {
          "internalType": "uint256[]",
          "name": "",
          "type": "uint256[]"
        }
      ],
      "stateMutability": "view",
      "type": "function"
    },
    {
      "inputs": [
        {
          "internalType": "uint256",
          "name": "_id",
          "type": "uint256"
        }
      ],
      "name": "viewDefenders",
      "outputs": [
        {
          "internalType": "address[]",
          "name": "",
          "type": "address[]"
        }
      ],
      "stateMutability": "view",
      "type": "function"
    },
    {
      "inputs": [
        {
          "internalType": "address",
          "name": "_owner",
          "type": "address"
        }
      ],
      "name": "viewHeroes",
      "outputs": [
        {
          "internalType": "uint256[]",
          "name": "",
          "type": "uint256[]"
        }
      ],
      "stateMutability": "view",
      "type": "function"
    },
    {
      "inputs": [
        {
          "internalType": "uint256",
          "name": "_id",
          "type": "uint256"
        }
      ],
      "name": "viewLand",
      "outputs": [
        {
          "components": [
            {
              "internalType": "uint256",
              "name": "ID",
              "type": "uint256"
            },
            {
              "internalType": "string",
              "name": "uri",
              "type": "string"
            },
            {
              "internalType": "uint256",
              "name": "owner",
              "type": "uint256"
            },
            {
              "internalType": "uint256",
              "name": "value",
              "type": "uint256"
            },
            {
              "internalType": "uint8[]",
              "name": "roads",
              "type": "uint8[]"
            },
            {
              "internalType": "bool",
              "name": "isBase",
              "type": "bool"
            },
            {
              "internalType": "uint256",
              "name": "attackerClan",
              "type": "uint256"
            },
            {
              "internalType": "address[]",
              "name": "defenderWarriors",
              "type": "address[]"
            },
            {
              "internalType": "address[]",
              "name": "attackerWarriors",
              "type": "address[]"
            }
          ],
          "internalType": "struct Conquest.Land",
          "name": "",
          "type": "tuple"
        }
      ],
      "stateMutability": "view",
      "type": "function"
    },
    {
      "inputs": [],
      "name": "viewLandOwners",
      "outputs": [
        {
          "internalType": "uint256[]",
          "name": "",
          "type": "uint256[]"
        }
      ],
      "stateMutability": "view",
      "type": "function"
    },
    {
      "inputs": [
        {
          "internalType": "address",
          "name": "_attackerAddress",
          "type": "address"
        }
      ],
      "name": "viewOneAttackersPower",
      "outputs": [
        {
          "internalType": "uint256",
          "name": "",
          "type": "uint256"
        }
      ],
      "stateMutability": "view",
      "type": "function"
    },
    {
      "inputs": [
        {
          "internalType": "address",
          "name": "_defenderAddress",
          "type": "address"
        }
      ],
      "name": "viewOneDefendersPower",
      "outputs": [
        {
          "internalType": "uint256",
          "name": "",
          "type": "uint256"
        }
      ],
      "stateMutability": "view",
      "type": "function"
    },
    {
      "inputs": [
        {
          "internalType": "address",
          "name": "_playerAddress",
          "type": "address"
        }
      ],
      "name": "viewPlayer",
      "outputs": [
        {
          "components": [
            {
              "internalType": "uint256",
              "name": "ID",
              "type": "uint256"
            },
            {
              "internalType": "string",
              "name": "uri",
              "type": "string"
            },
            {
              "internalType": "uint256",
              "name": "clan",
              "type": "uint256"
            },
            {
              "internalType": "uint256",
              "name": "seasonPoint",
              "type": "uint256"
            },
            {
              "internalType": "uint256[]",
              "name": "currentDeck",
              "type": "uint256[]"
            },
            {
              "internalType": "uint256",
              "name": "location",
              "type": "uint256"
            },
            {
              "internalType": "uint256",
              "name": "locationChangedTime",
              "type": "uint256"
            },
            {
              "internalType": "uint256",
              "name": "taxedGoods",
              "type": "uint256"
            },
            {
              "internalType": "uint256",
              "name": "deployedTime",
              "type": "uint256"
            },
            {
              "internalType": "bool",
              "name": "isInjured",
              "type": "bool"
            }
          ],
          "internalType": "struct Registration.Player",
          "name": "",
          "type": "tuple"
        }
      ],
      "stateMutability": "view",
      "type": "function"
    },
    {
      "inputs": [
        {
          "internalType": "address",
          "name": "_userAddress",
          "type": "address"
        }
      ],
      "name": "viewUserInventory",
      "outputs": [
        {
          "internalType": "uint256[]",
          "name": "",
          "type": "uint256[]"
        }
      ],
      "stateMutability": "view",
      "type": "function"
    }
  ],
  "bytecode": "0x608060405260006002553480156200001657600080fd5b50604051620058013803806200580183398181016040528101906200003c919062000136565b81808080600360006101000a81548173ffffffffffffffffffffffffffffffffffffffff021916908373ffffffffffffffffffffffffffffffffffffffff16021790555050505080600660006101000a81548173ffffffffffffffffffffffffffffffffffffffff021916908373ffffffffffffffffffffffffffffffffffffffff16021790555050506200017d565b600080fd5b600073ffffffffffffffffffffffffffffffffffffffff82169050919050565b6000620000fe82620000d1565b9050919050565b6200011081620000f1565b81146200011c57600080fd5b50565b600081519050620001308162000105565b92915050565b6000806040838503121562000150576200014f620000cc565b5b600062000160858286016200011f565b925050602062000173858286016200011f565b9150509250929050565b615674806200018d6000396000f3fe608060405234801561001057600080fd5b50600436106101ee5760003560e01c8063909a60b81161010f578063d1fc7e76116100a2578063e734bccf11610071578063e734bccf14610592578063ed256fc4146105c2578063efbca3c1146105f2578063f2c298be14610622576101ee565b8063d1fc7e7614610507578063db4f9ad914610523578063e261f1e514610553578063e69d775014610588576101ee565b8063a6852787116100de578063a68527871461047f578063b198750e146104af578063b7f151f4146104cd578063c06da294146104fd576101ee565b8063909a60b8146103d35780639979c009146104035780639b8598091461041f578063a38b5d821461044f576101ee565b80634decc7b1116101875780637980f84a116101565780637980f84a1461034d5780637b3c28041461036b57806384b912ff1461039b57806389832beb146103b7576101ee565b80634decc7b1146102ed5780634f925e4f1461030957806354ffe77e1461031357806360f116ab14610343576101ee565b806339b260ef116101c357806339b260ef146102795780633d8705ab146102975780633fccb1f7146102a1578063405e68c0146102d1576101ee565b8062a17e4f146101f3578062fdd58e1461020f5780630a3b433f1461023f5780630e68ea1c1461026f575b600080fd5b61020d60048036038101906102089190613cc6565b61063e565b005b61022960048036038101906102249190613d51565b610a02565b6040516102369190613da0565b60405180910390f35b61025960048036038101906102549190613cc6565b610a5d565b6040516102669190613da0565b60405180910390f35b610277610b12565b005b610281610d14565b60405161028e9190613e79565b60405180910390f35b61029f610db7565b005b6102bb60048036038101906102b69190613e9b565b6111ff565b6040516102c891906140c3565b60405180910390f35b6102eb60048036038101906102e6919061421b565b6113a3565b005b61030760048036038101906103029190613cc6565b61173a565b005b6103116120dd565b005b61032d60048036038101906103289190614248565b6125b0565b60405161033a9190613da0565b60405180910390f35b61034b6125d5565b005b6103556126a6565b60405161036291906145ad565b60405180910390f35b61038560048036038101906103809190613e9b565b6129d8565b6040516103929190613da0565b60405180910390f35b6103b560048036038101906103b09190613cc6565b612b11565b005b6103d160048036038101906103cc9190613cc6565b612bee565b005b6103ed60048036038101906103e89190613e9b565b612d36565b6040516103fa9190613e79565b60405180910390f35b61041d600480360381019061041891906145cf565b612ddc565b005b61043960048036038101906104349190613cc6565b612de0565b6040516104469190613da0565b60405180910390f35b61046960048036038101906104649190613cc6565b612e00565b60405161047691906146e9565b60405180910390f35b61049960048036038101906104949190613e9b565b61309d565b6040516104a69190613da0565b60405180910390f35b6104b76131d6565b6040516104c4919061476a565b60405180910390f35b6104e760048036038101906104e29190613cc6565b6131fc565b6040516104f491906147f4565b60405180910390f35b6105056132a0565b005b610521600480360381019061051c9190613cc6565b613349565b005b61053d60048036038101906105389190613e9b565b6133de565b60405161054a9190613e79565b60405180910390f35b61056d60048036038101906105689190613cc6565b61368e565b60405161057f9695949392919061486f565b60405180910390f35b61059061375f565b005b6105ac60048036038101906105a79190613cc6565b6137b1565b6040516105b991906147f4565b60405180910390f35b6105dc60048036038101906105d79190613e9b565b613855565b6040516105e99190613e79565b60405180910390f35b61060c60048036038101906106079190613cc6565b6138ee565b6040516106199190613da0565b60405180910390f35b61063c6004803603810190610637919061498c565b6139a3565b005b42600a6000803373ffffffffffffffffffffffffffffffffffffffff1673ffffffffffffffffffffffffffffffffffffffff1681526020019081526020016000206006015461068d9190614a04565b1061069757600080fd5b60008060003373ffffffffffffffffffffffffffffffffffffffff1673ffffffffffffffffffffffffffffffffffffffff168152602001908152602001600020600801541461071b576040517f08c379a000000000000000000000000000000000000000000000000000000000815260040161071290614a84565b60405180910390fd5b6000600460008381526020019081526020016000206004018054806020026020016040519081016040528092919081815260200182805480156107a357602002820191906000526020600020906000905b82829054906101000a900460ff1660ff168152602001906001019060208260000104928301926001038202915080841161076c5790505b5050505050905060005b81518110156109c3576000803373ffffffffffffffffffffffffffffffffffffffff1673ffffffffffffffffffffffffffffffffffffffff1681526020019081526020016000206005015482828151811061080b5761080a614aa4565b5b602002602001015160ff16036109b0576000803373ffffffffffffffffffffffffffffffffffffffff1673ffffffffffffffffffffffffffffffffffffffff16815260200190815260200160002060020154600460008060003373ffffffffffffffffffffffffffffffffffffffff1673ffffffffffffffffffffffffffffffffffffffff16815260200190815260200160002060050154815260200190815260200160002060020154148061091757506000803373ffffffffffffffffffffffffffffffffffffffff1673ffffffffffffffffffffffffffffffffffffffff168152602001908152602001600020600201546004600085815260200190815260200160002060020154145b156109af57426000803373ffffffffffffffffffffffffffffffffffffffff1673ffffffffffffffffffffffffffffffffffffffff16815260200190815260200160002060060181905550826000803373ffffffffffffffffffffffffffffffffffffffff1673ffffffffffffffffffffffffffffffffffffffff1681526020019081526020016000206005018190555050506109ff565b5b80806109bb90614ad3565b9150506107ad565b506040517f08c379a00000000000000000000000000000000000000000000000000000000081526004016109f690614b67565b60405180910390fd5b50565b60006005600083815260200190815260200160002060008473ffffffffffffffffffffffffffffffffffffffff1673ffffffffffffffffffffffffffffffffffffffff16815260200190815260200160002054905092915050565b60008060046000848152602001908152602001600020600701805490509050600080600090505b82811015610b0757610ae7600460008781526020019081526020016000206007018281548110610ab757610ab6614aa4565b5b9060005260206000200160009054906101000a900473ffffffffffffffffffffffffffffffffffffffff1661309d565b82610af29190614a04565b91508080610aff90614ad3565b915050610a84565b508092505050919050565b60008060003373ffffffffffffffffffffffffffffffffffffffff1673ffffffffffffffffffffffffffffffffffffffff1681526020019081526020016000206005015490506004600082815260200190815260200160002060050160009054906101000a900460ff16610b8557600080fd5b6000803373ffffffffffffffffffffffffffffffffffffffff1673ffffffffffffffffffffffffffffffffffffffff16815260200190815260200160002060020154600460008381526020019081526020016000206002015414610be857600080fd5b60008060003373ffffffffffffffffffffffffffffffffffffffff1673ffffffffffffffffffffffffffffffffffffffff16815260200190815260200160002060070154905060008060003373ffffffffffffffffffffffffffffffffffffffff1673ffffffffffffffffffffffffffffffffffffffff16815260200190815260200160002060070181905550600660009054906101000a900473ffffffffffffffffffffffffffffffffffffffff1673ffffffffffffffffffffffffffffffffffffffff166340c10f19338360c8610cc19190614b87565b6040518363ffffffff1660e01b8152600401610cde929190614bd8565b600060405180830381600087803b158015610cf857600080fd5b505af1158015610d0c573d6000803e3d6000fd5b505050505050565b60606000602867ffffffffffffffff811115610d3357610d326140ea565b5b604051908082528060200260200182016040528015610d615781602001602082028036833780820191505090505b5090506000600190505b6028811015610daf57610d7d81612de0565b828281518110610d9057610d8f614aa4565b5b6020026020010181815250508080610da790614ad3565b915050610d6b565b508091505090565b60008060003373ffffffffffffffffffffffffffffffffffffffff1673ffffffffffffffffffffffffffffffffffffffff16815260200190815260200160002060050154905060046000828152602001908152602001600020600201546000803373ffffffffffffffffffffffffffffffffffffffff1673ffffffffffffffffffffffffffffffffffffffff1681526020019081526020016000206002015414610e96576040517f08c379a0000000000000000000000000000000000000000000000000000000008152600401610e8d90614c4d565b60405180910390fd5b4262015180600160003373ffffffffffffffffffffffffffffffffffffffff1673ffffffffffffffffffffffffffffffffffffffff168152602001908152602001600020600084815260200190815260200160002054610ef69190614a04565b1115610f37576040517f08c379a0000000000000000000000000000000000000000000000000000000008152600401610f2e90614cb9565b60405180910390fd5b600015156000803373ffffffffffffffffffffffffffffffffffffffff1673ffffffffffffffffffffffffffffffffffffffff16815260200190815260200160002060090160009054906101000a900460ff16151514610fcc576040517f08c379a0000000000000000000000000000000000000000000000000000000008152600401610fc390614d25565b60405180910390fd5b600015156004600083815260200190815260200160002060050160009054906101000a900460ff16151514611036576040517f08c379a000000000000000000000000000000000000000000000000000000000815260040161102d90614d91565b60405180910390fd5b600080600090505b600381101561112c57600360009054906101000a900473ffffffffffffffffffffffffffffffffffffffff1673ffffffffffffffffffffffffffffffffffffffff1663cf5f162661108e33613855565b83815181106110a05761109f614aa4565b5b60200260200101516040518263ffffffff1660e01b81526004016110c49190613da0565b608060405180830381865afa1580156110e1573d6000803e3d6000fd5b505050506040513d601f19601f820116820180604052508101906111059190614e6f565b6020015160ff16826111179190614a04565b9150808061112490614ad3565b91505061103e565b5042600160003373ffffffffffffffffffffffffffffffffffffffff1673ffffffffffffffffffffffffffffffffffffffff1681526020019081526020016000206000848152602001908152602001600020819055506004600083815260200190815260200160002060030154816111a49190614a04565b6000803373ffffffffffffffffffffffffffffffffffffffff1673ffffffffffffffffffffffffffffffffffffffff16815260200190815260200160002060070160008282546111f49190614a04565b925050819055505050565b611207613b4e565b6000808373ffffffffffffffffffffffffffffffffffffffff1673ffffffffffffffffffffffffffffffffffffffff168152602001908152602001600020604051806101400160405290816000820154815260200160018201805461126b90614ecb565b80601f016020809104026020016040519081016040528092919081815260200182805461129790614ecb565b80156112e45780601f106112b9576101008083540402835291602001916112e4565b820191906000526020600020905b8154815290600101906020018083116112c757829003601f168201915b5050505050815260200160028201548152602001600382015481526020016004820180548060200260200160405190810160405280929190818152602001828054801561135057602002820191906000526020600020905b81548152602001906001019080831161133c575b50505050508152602001600582015481526020016006820154815260200160078201548152602001600882015481526020016009820160009054906101000a900460ff1615151515815250509050919050565b60008060003373ffffffffffffffffffffffffffffffffffffffff1673ffffffffffffffffffffffffffffffffffffffff16815260200190815260200160002060000154036113f157600080fd5b3373ffffffffffffffffffffffffffffffffffffffff16600360009054906101000a900473ffffffffffffffffffffffffffffffffffffffff1673ffffffffffffffffffffffffffffffffffffffff16636352211e8360006003811061145a57611459614aa4565b5b60200201516040518263ffffffff1660e01b815260040161147b9190613da0565b602060405180830381865afa158015611498573d6000803e3d6000fd5b505050506040513d601f19601f820116820180604052508101906114bc9190614f11565b73ffffffffffffffffffffffffffffffffffffffff161480156115bd57503373ffffffffffffffffffffffffffffffffffffffff16600360009054906101000a900473ffffffffffffffffffffffffffffffffffffffff1673ffffffffffffffffffffffffffffffffffffffff16636352211e8360016003811061154357611542614aa4565b5b60200201516040518263ffffffff1660e01b81526004016115649190613da0565b602060405180830381865afa158015611581573d6000803e3d6000fd5b505050506040513d601f19601f820116820180604052508101906115a59190614f11565b73ffffffffffffffffffffffffffffffffffffffff16145b80156116a757503373ffffffffffffffffffffffffffffffffffffffff16600360009054906101000a900473ffffffffffffffffffffffffffffffffffffffff1673ffffffffffffffffffffffffffffffffffffffff16636352211e8360026003811061162d5761162c614aa4565b5b60200201516040518263ffffffff1660e01b815260040161164e9190613da0565b602060405180830381865afa15801561166b573d6000803e3d6000fd5b505050506040513d601f19601f8201168201806040525081019061168f9190614f11565b73ffffffffffffffffffffffffffffffffffffffff16145b6116e6576040517f08c379a00000000000000000000000000000000000000000000000000000000081526004016116dd90614f8a565b60405180910390fd5b806000803373ffffffffffffffffffffffffffffffffffffffff1673ffffffffffffffffffffffffffffffffffffffff168152602001908152602001600020600401906003611736929190613ba3565b5050565b600060046000838152602001908152602001600020600701805490509050600060046000848152602001908152602001600020600801805490509050600080600084036119db57600080600460008881526020019081526020016000206008016000815481106117ad576117ac614aa4565b5b9060005260206000200160009054906101000a900473ffffffffffffffffffffffffffffffffffffffff1673ffffffffffffffffffffffffffffffffffffffff1673ffffffffffffffffffffffffffffffffffffffff16815260200190815260200160002060020154600460008781526020019081526020016000206002018190555060005b83811015611993576001600080600460008a8152602001908152602001600020600801848154811061186857611867614aa4565b5b9060005260206000200160009054906101000a900473ffffffffffffffffffffffffffffffffffffffff1673ffffffffffffffffffffffffffffffffffffffff1673ffffffffffffffffffffffffffffffffffffffff16815260200190815260200160002060090160006101000a81548160ff0219169083151502179055506000806000600460008a8152602001908152602001600020600801848154811061191457611913614aa4565b5b9060005260206000200160009054906101000a900473ffffffffffffffffffffffffffffffffffffffff1673ffffffffffffffffffffffffffffffffffffffff1673ffffffffffffffffffffffffffffffffffffffff16815260200190815260200160002060080181905550808061198b90614ad3565b915050611833565b506004600086815260200190815260200160002060080160006119b69190613bf0565b60006004600087815260200190815260200160002060060181905550505050506120da565b60005b84811015611cbd5760005b6003811015611b6457600360009054906101000a900473ffffffffffffffffffffffffffffffffffffffff1673ffffffffffffffffffffffffffffffffffffffff1663cf5f1626600080600460008c81526020019081526020016000206007018681548110611a5b57611a5a614aa4565b5b9060005260206000200160009054906101000a900473ffffffffffffffffffffffffffffffffffffffff1673ffffffffffffffffffffffffffffffffffffffff1673ffffffffffffffffffffffffffffffffffffffff1681526020019081526020016000206004018381548110611ad557611ad4614aa4565b5b90600052602060002001546040518263ffffffff1660e01b8152600401611afc9190613da0565b608060405180830381865afa158015611b19573d6000803e3d6000fd5b505050506040513d601f19601f82011682018060405250810190611b3d9190614e6f565b6040015160ff1683611b4f9190614a04565b92508080611b5c90614ad3565b9150506119e9565b506001600080600460008a81526020019081526020016000206007018481548110611b9257611b91614aa4565b5b9060005260206000200160009054906101000a900473ffffffffffffffffffffffffffffffffffffffff1673ffffffffffffffffffffffffffffffffffffffff1673ffffffffffffffffffffffffffffffffffffffff16815260200190815260200160002060090160006101000a81548160ff0219169083151502179055506000806000600460008a81526020019081526020016000206007018481548110611c3e57611c3d614aa4565b5b9060005260206000200160009054906101000a900473ffffffffffffffffffffffffffffffffffffffff1673ffffffffffffffffffffffffffffffffffffffff1673ffffffffffffffffffffffffffffffffffffffff168152602001908152602001600020600801819055508080611cb590614ad3565b9150506119de565b5060005b838110156120005760005b6003811015611e4757600360009054906101000a900473ffffffffffffffffffffffffffffffffffffffff1673ffffffffffffffffffffffffffffffffffffffff1663cf5f1626600080600460008c81526020019081526020016000206008018681548110611d3e57611d3d614aa4565b5b9060005260206000200160009054906101000a900473ffffffffffffffffffffffffffffffffffffffff1673ffffffffffffffffffffffffffffffffffffffff1673ffffffffffffffffffffffffffffffffffffffff1681526020019081526020016000206004018381548110611db857611db7614aa4565b5b90600052602060002001546040518263ffffffff1660e01b8152600401611ddf9190613da0565b608060405180830381865afa158015611dfc573d6000803e3d6000fd5b505050506040513d601f19601f82011682018060405250810190611e209190614e6f565b6020015160ff1684611e329190614a04565b93508080611e3f90614ad3565b915050611ccc565b506001600080600460008a81526020019081526020016000206008018481548110611e7557611e74614aa4565b5b9060005260206000200160009054906101000a900473ffffffffffffffffffffffffffffffffffffffff1673ffffffffffffffffffffffffffffffffffffffff1673ffffffffffffffffffffffffffffffffffffffff16815260200190815260200160002060090160006101000a81548160ff0219169083151502179055506000806000600460008a81526020019081526020016000206008018481548110611f2157611f20614aa4565b5b9060005260206000200160009054906101000a900473ffffffffffffffffffffffffffffffffffffffff1673ffffffffffffffffffffffffffffffffffffffff1673ffffffffffffffffffffffffffffffffffffffff16815260200190815260200160002060080181905550600460008781526020019081526020016000206008016000611faf9190613bf0565b600460008781526020019081526020016000206007016000611fd19190613bf0565b600060046000888152602001908152602001600020600601819055508080611ff890614ad3565b915050611cc1565b50808211156120d5576000806004600088815260200190815260200160002060080160008154811061203557612034614aa4565b5b9060005260206000200160009054906101000a900473ffffffffffffffffffffffffffffffffffffffff1673ffffffffffffffffffffffffffffffffffffffff1673ffffffffffffffffffffffffffffffffffffffff168152602001908152602001600020600201546004600087815260200190815260200160002060020181905550600060046000878152602001908152602001600020600601819055505b505050505b50565b60008060003373ffffffffffffffffffffffffffffffffffffffff1673ffffffffffffffffffffffffffffffffffffffff1681526020019081526020016000206008015414612161576040517f08c379a000000000000000000000000000000000000000000000000000000000815260040161215890614ff6565b60405180910390fd5b600015156000803373ffffffffffffffffffffffffffffffffffffffff1673ffffffffffffffffffffffffffffffffffffffff16815260200190815260200160002060090160009054906101000a900460ff161515146121f6576040517f08c379a00000000000000000000000000000000000000000000000000000000081526004016121ed90615062565b60405180910390fd5b60036000803373ffffffffffffffffffffffffffffffffffffffff1673ffffffffffffffffffffffffffffffffffffffff168152602001908152602001600020600401805490501461227d576040517f08c379a0000000000000000000000000000000000000000000000000000000008152600401612274906150f4565b60405180910390fd5b60008060003373ffffffffffffffffffffffffffffffffffffffff1673ffffffffffffffffffffffffffffffffffffffff168152602001908152602001600020600501549050600060046000838152602001908152602001600020600601540361233e576000803373ffffffffffffffffffffffffffffffffffffffff1673ffffffffffffffffffffffffffffffffffffffff1681526020019081526020016000206002015460046000838152602001908152602001600020600601819055505b61234781612de0565b6000803373ffffffffffffffffffffffffffffffffffffffff1673ffffffffffffffffffffffffffffffffffffffff16815260200190815260200160002060020154036124515760046000828152602001908152602001600020600701339080600181540180825580915050600190039060005260206000200160009091909190916101000a81548173ffffffffffffffffffffffffffffffffffffffff021916908373ffffffffffffffffffffffffffffffffffffffff16021790555060008060003373ffffffffffffffffffffffffffffffffffffffff1673ffffffffffffffffffffffffffffffffffffffff168152602001908152602001600020600801819055506125ad565b6000803373ffffffffffffffffffffffffffffffffffffffff1673ffffffffffffffffffffffffffffffffffffffff168152602001908152602001600020600201546004600083815260200190815260200160002060060154036125715760046000828152602001908152602001600020600801339080600181540180825580915050600190039060005260206000200160009091909190916101000a81548173ffffffffffffffffffffffffffffffffffffffff021916908373ffffffffffffffffffffffffffffffffffffffff160217905550426000803373ffffffffffffffffffffffffffffffffffffffff1673ffffffffffffffffffffffffffffffffffffffff168152602001908152602001600020600801819055506125ac565b6040517f08c379a00000000000000000000000000000000000000000000000000000000081526004016125a390615160565b60405180910390fd5b5b50565b6005602052816000526040600020602052806000526040600020600091509150505481565b60011515600460008060003373ffffffffffffffffffffffffffffffffffffffff1673ffffffffffffffffffffffffffffffffffffffff16815260200190815260200160002060050154815260200190815260200160002060050160009054906101000a900460ff1615151461264a57600080fd5b60008060003373ffffffffffffffffffffffffffffffffffffffff1673ffffffffffffffffffffffffffffffffffffffff16815260200190815260200160002060090160006101000a81548160ff021916908315150217905550565b60606000602767ffffffffffffffff8111156126c5576126c46140ea565b5b6040519080825280602002602001820160405280156126fe57816020015b6126eb613c11565b8152602001906001900390816126e35790505b5090506000600190505b60288110156129d05760046000828152602001908152602001600020604051806101200160405290816000820154815260200160018201805461274a90614ecb565b80601f016020809104026020016040519081016040528092919081815260200182805461277690614ecb565b80156127c35780601f10612798576101008083540402835291602001916127c3565b820191906000526020600020905b8154815290600101906020018083116127a657829003601f168201915b5050505050815260200160028201548152602001600382015481526020016004820180548060200260200160405190810160405280929190818152602001828054801561285557602002820191906000526020600020906000905b82829054906101000a900460ff1660ff168152602001906001019060208260000104928301926001038202915080841161281e5790505b505050505081526020016005820160009054906101000a900460ff16151515158152602001600682015481526020016007820180548060200260200160405190810160405280929190818152602001828054801561290857602002820191906000526020600020905b8160009054906101000a900473ffffffffffffffffffffffffffffffffffffffff1673ffffffffffffffffffffffffffffffffffffffff16815260200190600101908083116128be575b505050505081526020016008820180548060200260200160405190810160405280929190818152602001828054801561299657602002820191906000526020600020905b8160009054906101000a900473ffffffffffffffffffffffffffffffffffffffff1673ffffffffffffffffffffffffffffffffffffffff168152602001906001019080831161294c575b5050505050815250508282815181106129b2576129b1614aa4565b5b602002602001018190525080806129c890614ad3565b915050612708565b508091505090565b60008060005b6003811015612b0757600360009054906101000a900473ffffffffffffffffffffffffffffffffffffffff1673ffffffffffffffffffffffffffffffffffffffff1663cf5f16266000808773ffffffffffffffffffffffffffffffffffffffff1673ffffffffffffffffffffffffffffffffffffffff1681526020019081526020016000206004018381548110612a7857612a77614aa4565b5b90600052602060002001546040518263ffffffff1660e01b8152600401612a9f9190613da0565b608060405180830381865afa158015612abc573d6000803e3d6000fd5b505050506040513d601f19601f82011682018060405250810190612ae09190614e6f565b6020015160ff1682612af29190614a04565b91508080612aff90614ad3565b9150506129de565b5080915050919050565b6001612b1e336003610a02565b11612b5e576040517f08c379a0000000000000000000000000000000000000000000000000000000008152600401612b55906151cc565b60405180910390fd5b600360009054906101000a900473ffffffffffffffffffffffffffffffffffffffff1673ffffffffffffffffffffffffffffffffffffffff1663d8ad35c3826040518263ffffffff1660e01b8152600401612bb99190613da0565b600060405180830381600087803b158015612bd357600080fd5b505af1158015612be7573d6000803e3d6000fd5b5050505050565b60008060003373ffffffffffffffffffffffffffffffffffffffff1673ffffffffffffffffffffffffffffffffffffffff1681526020019081526020016000206007015414612c3c57600080fd5b60008060003373ffffffffffffffffffffffffffffffffffffffff1673ffffffffffffffffffffffffffffffffffffffff1681526020019081526020016000206008015414612c8a57600080fd5b6000803373ffffffffffffffffffffffffffffffffffffffff1673ffffffffffffffffffffffffffffffffffffffff16815260200190815260200160002060020154600460008381526020019081526020016000206002015414612ced57600080fd5b806000803373ffffffffffffffffffffffffffffffffffffffff1673ffffffffffffffffffffffffffffffffffffffff1681526020019081526020016000206005018190555050565b60606000600467ffffffffffffffff811115612d5557612d546140ea565b5b604051908082528060200260200182016040528015612d835781602001602082028036833780820191505090505b5090506000600190505b6004811015612dd257612da08482610a02565b828281518110612db357612db2614aa4565b5b6020026020010181815250508080612dca90614ad3565b915050612d8d565b5080915050919050565b5050565b600060046000838152602001908152602001600020600201549050919050565b612e08613c11565b600460008381526020019081526020016000206040518061012001604052908160008201548152602001600182018054612e4190614ecb565b80601f0160208091040260200160405190810160405280929190818152602001828054612e6d90614ecb565b8015612eba5780601f10612e8f57610100808354040283529160200191612eba565b820191906000526020600020905b815481529060010190602001808311612e9d57829003601f168201915b50505050508152602001600282015481526020016003820154815260200160048201805480602002602001604051908101604052809291908181526020018280548015612f4c57602002820191906000526020600020906000905b82829054906101000a900460ff1660ff1681526020019060010190602082600001049283019260010382029150808411612f155790505b505050505081526020016005820160009054906101000a900460ff161515151581526020016006820154815260200160078201805480602002602001604051908101604052809291908181526020018280548015612fff57602002820191906000526020600020905b8160009054906101000a900473ffffffffffffffffffffffffffffffffffffffff1673ffffffffffffffffffffffffffffffffffffffff1681526020019060010190808311612fb5575b505050505081526020016008820180548060200260200160405190810160405280929190818152602001828054801561308d57602002820191906000526020600020905b8160009054906101000a900473ffffffffffffffffffffffffffffffffffffffff1673ffffffffffffffffffffffffffffffffffffffff1681526020019060010190808311613043575b5050505050815250509050919050565b60008060005b60038110156131cc57600360009054906101000a900473ffffffffffffffffffffffffffffffffffffffff1673ffffffffffffffffffffffffffffffffffffffff1663cf5f16266000808773ffffffffffffffffffffffffffffffffffffffff1673ffffffffffffffffffffffffffffffffffffffff168152602001908152602001600020600401838154811061313d5761313c614aa4565b5b90600052602060002001546040518263ffffffff1660e01b81526004016131649190613da0565b608060405180830381865afa158015613181573d6000803e3d6000fd5b505050506040513d601f19601f820116820180604052508101906131a59190614e6f565b6040015160ff16826131b79190614a04565b915080806131c490614ad3565b9150506130a3565b5080915050919050565b600360009054906101000a900473ffffffffffffffffffffffffffffffffffffffff1681565b60606004600083815260200190815260200160002060080180548060200260200160405190810160405280929190818152602001828054801561329457602002820191906000526020600020905b8160009054906101000a900473ffffffffffffffffffffffffffffffffffffffff1673ffffffffffffffffffffffffffffffffffffffff168152602001906001019080831161324a575b50505050509050919050565b60016132ad336001610a02565b116132ed576040517f08c379a00000000000000000000000000000000000000000000000000000000081526004016132e4906151cc565b60405180910390fd5b60008060003373ffffffffffffffffffffffffffffffffffffffff1673ffffffffffffffffffffffffffffffffffffffff16815260200190815260200160002060090160006101000a81548160ff021916908315150217905550565b6000803373ffffffffffffffffffffffffffffffffffffffff1673ffffffffffffffffffffffffffffffffffffffff168152602001908152602001600020600201546004600083815260200190815260200160002060020154146133ac57600080fd5b60016004600083815260200190815260200160002060050160006101000a81548160ff02191690831515021790555050565b60606000600360009054906101000a900473ffffffffffffffffffffffffffffffffffffffff1673ffffffffffffffffffffffffffffffffffffffff166318160ddd6040518163ffffffff1660e01b8152600401602060405180830381865afa15801561344f573d6000803e3d6000fd5b505050506040513d601f19601f8201168201806040525081019061347391906151ec565b90506000600360009054906101000a900473ffffffffffffffffffffffffffffffffffffffff1673ffffffffffffffffffffffffffffffffffffffff166370a08231856040518263ffffffff1660e01b81526004016134d29190615219565b602060405180830381865afa1580156134ef573d6000803e3d6000fd5b505050506040513d601f19601f8201168201806040525081019061351391906151ec565b905060008167ffffffffffffffff811115613531576135306140ea565b5b60405190808252806020026020018201604052801561355f5781602001602082028036833780820191505090505b509050600080600190505b848111613681578673ffffffffffffffffffffffffffffffffffffffff16600360009054906101000a900473ffffffffffffffffffffffffffffffffffffffff1673ffffffffffffffffffffffffffffffffffffffff16636352211e836040518263ffffffff1660e01b81526004016135e39190613da0565b602060405180830381865afa158015613600573d6000803e3d6000fd5b505050506040513d601f19601f820116820180604052508101906136249190614f11565b73ffffffffffffffffffffffffffffffffffffffff160361366e578083838151811061365357613652614aa4565b5b602002602001018181525050818061366a90614ad3565b9250505b808061367990614ad3565b91505061356a565b5081945050505050919050565b60046020528060005260406000206000915090508060000154908060010180546136b790614ecb565b80601f01602080910402602001604051908101604052809291908181526020018280546136e390614ecb565b80156137305780601f1061370557610100808354040283529160200191613730565b820191906000526020600020905b81548152906001019060200180831161371357829003601f168201915b5050505050908060020154908060030154908060050160009054906101000a900460ff16908060060154905086565b6000600190505b60288110156137ae5760006004600083815260200190815260200160002060080180549050111561379b5761379a8161173a565b5b80806137a690614ad3565b915050613766565b50565b60606004600083815260200190815260200160002060070180548060200260200160405190810160405280929190818152602001828054801561384957602002820191906000526020600020905b8160009054906101000a900473ffffffffffffffffffffffffffffffffffffffff1673ffffffffffffffffffffffffffffffffffffffff16815260200190600101908083116137ff575b50505050509050919050565b60606000808373ffffffffffffffffffffffffffffffffffffffff1673ffffffffffffffffffffffffffffffffffffffff1681526020019081526020016000206004018054806020026020016040519081016040528092919081815260200182805480156138e257602002820191906000526020600020905b8154815260200190600101908083116138ce575b50505050509050919050565b60008060046000848152602001908152602001600020600801805490509050600080600090505b828110156139985761397860046000878152602001908152602001600020600801828154811061394857613947614aa4565b5b9060005260206000200160009054906101000a900473ffffffffffffffffffffffffffffffffffffffff166129d8565b826139839190614a04565b9150808061399090614ad3565b915050613915565b508092505050919050565b60008060003373ffffffffffffffffffffffffffffffffffffffff1673ffffffffffffffffffffffffffffffffffffffff1681526020019081526020016000206000015414613a27576040517f08c379a0000000000000000000000000000000000000000000000000000000008152600401613a1e90615280565b60405180910390fd5b6000613a3560016003613b02565b60ff16905060008060003373ffffffffffffffffffffffffffffffffffffffff1673ffffffffffffffffffffffffffffffffffffffff168152602001908152602001600020905060026000815480929190613a8f90614ad3565b9190505550600254816000018190555082816001019081613ab09190615442565b5081816002018190555060018203613ad15760018160050181905550613afd565b60028203613ae85760118160050181905550613afc565b60038203613afb57601781600501819055505b5b5b505050565b600082824233604051602001613b1992919061557d565b6040516020818303038152906040528051906020012060001c613b3c91906155d8565b613b469190615609565b905092915050565b6040518061014001604052806000815260200160608152602001600081526020016000815260200160608152602001600081526020016000815260200160008152602001600081526020016000151581525090565b828054828255906000526020600020908101928215613bdf579160200282015b82811115613bde578251825591602001919060010190613bc3565b5b509050613bec9190613c5f565b5090565b5080546000825590600052602060002090810190613c0e9190613c5f565b50565b60405180610120016040528060008152602001606081526020016000815260200160008152602001606081526020016000151581526020016000815260200160608152602001606081525090565b5b80821115613c78576000816000905550600101613c60565b5090565b6000604051905090565b600080fd5b600080fd5b6000819050919050565b613ca381613c90565b8114613cae57600080fd5b50565b600081359050613cc081613c9a565b92915050565b600060208284031215613cdc57613cdb613c86565b5b6000613cea84828501613cb1565b91505092915050565b600073ffffffffffffffffffffffffffffffffffffffff82169050919050565b6000613d1e82613cf3565b9050919050565b613d2e81613d13565b8114613d3957600080fd5b50565b600081359050613d4b81613d25565b92915050565b60008060408385031215613d6857613d67613c86565b5b6000613d7685828601613d3c565b9250506020613d8785828601613cb1565b9150509250929050565b613d9a81613c90565b82525050565b6000602082019050613db56000830184613d91565b92915050565b600081519050919050565b600082825260208201905092915050565b6000819050602082019050919050565b613df081613c90565b82525050565b6000613e028383613de7565b60208301905092915050565b6000602082019050919050565b6000613e2682613dbb565b613e308185613dc6565b9350613e3b83613dd7565b8060005b83811015613e6c578151613e538882613df6565b9750613e5e83613e0e565b925050600181019050613e3f565b5085935050505092915050565b60006020820190508181036000830152613e938184613e1b565b905092915050565b600060208284031215613eb157613eb0613c86565b5b6000613ebf84828501613d3c565b91505092915050565b600081519050919050565b600082825260208201905092915050565b60005b83811015613f02578082015181840152602081019050613ee7565b60008484015250505050565b6000601f19601f8301169050919050565b6000613f2a82613ec8565b613f348185613ed3565b9350613f44818560208601613ee4565b613f4d81613f0e565b840191505092915050565b600082825260208201905092915050565b6000613f7482613dbb565b613f7e8185613f58565b9350613f8983613dd7565b8060005b83811015613fba578151613fa18882613df6565b9750613fac83613e0e565b925050600181019050613f8d565b5085935050505092915050565b60008115159050919050565b613fdc81613fc7565b82525050565b600061014083016000830151613ffb6000860182613de7565b50602083015184820360208601526140138282613f1f565b91505060408301516140286040860182613de7565b50606083015161403b6060860182613de7565b50608083015184820360808601526140538282613f69565b91505060a083015161406860a0860182613de7565b5060c083015161407b60c0860182613de7565b5060e083015161408e60e0860182613de7565b506101008301516140a3610100860182613de7565b506101208301516140b8610120860182613fd3565b508091505092915050565b600060208201905081810360008301526140dd8184613fe2565b905092915050565b600080fd5b7f4e487b7100000000000000000000000000000000000000000000000000000000600052604160045260246000fd5b61412282613f0e565b810181811067ffffffffffffffff82111715614141576141406140ea565b5b80604052505050565b6000614154613c7c565b90506141608282614119565b919050565b600067ffffffffffffffff8211156141805761417f6140ea565b5b602082029050919050565b600080fd5b60006141a361419e84614165565b61414a565b905080602084028301858111156141bd576141bc61418b565b5b835b818110156141e657806141d28882613cb1565b8452602084019350506020810190506141bf565b5050509392505050565b600082601f830112614205576142046140e5565b5b6003614212848285614190565b91505092915050565b60006060828403121561423157614230613c86565b5b600061423f848285016141f0565b91505092915050565b6000806040838503121561425f5761425e613c86565b5b600061426d85828601613cb1565b925050602061427e85828601613d3c565b9150509250929050565b600081519050919050565b600082825260208201905092915050565b6000819050602082019050919050565b600081519050919050565b600082825260208201905092915050565b6000819050602082019050919050565b600060ff82169050919050565b6142f6816142e0565b82525050565b600061430883836142ed565b60208301905092915050565b6000602082019050919050565b600061432c826142b4565b61433681856142bf565b9350614341836142d0565b8060005b8381101561437257815161435988826142fc565b975061436483614314565b925050600181019050614345565b5085935050505092915050565b600081519050919050565b600082825260208201905092915050565b6000819050602082019050919050565b6143b481613d13565b82525050565b60006143c683836143ab565b60208301905092915050565b6000602082019050919050565b60006143ea8261437f565b6143f4818561438a565b93506143ff8361439b565b8060005b8381101561443057815161441788826143ba565b9750614422836143d2565b925050600181019050614403565b5085935050505092915050565b6000610120830160008301516144566000860182613de7565b506020830151848203602086015261446e8282613f1f565b91505060408301516144836040860182613de7565b5060608301516144966060860182613de7565b50608083015184820360808601526144ae8282614321565b91505060a08301516144c360a0860182613fd3565b5060c08301516144d660c0860182613de7565b5060e083015184820360e08601526144ee82826143df565b91505061010083015184820361010086015261450a82826143df565b9150508091505092915050565b6000614523838361443d565b905092915050565b6000602082019050919050565b600061454382614288565b61454d8185614293565b93508360208202850161455f856142a4565b8060005b8581101561459b578484038952815161457c8582614517565b94506145878361452b565b925060208a01995050600181019050614563565b50829750879550505050505092915050565b600060208201905081810360008301526145c78184614538565b905092915050565b600080604083850312156145e6576145e5613c86565b5b60006145f485828601613cb1565b925050602061460585828601613cb1565b9150509250929050565b6000610120830160008301516146286000860182613de7565b50602083015184820360208601526146408282613f1f565b91505060408301516146556040860182613de7565b5060608301516146686060860182613de7565b50608083015184820360808601526146808282614321565b91505060a083015161469560a0860182613fd3565b5060c08301516146a860c0860182613de7565b5060e083015184820360e08601526146c082826143df565b9150506101008301518482036101008601526146dc82826143df565b9150508091505092915050565b60006020820190508181036000830152614703818461460f565b905092915050565b6000819050919050565b600061473061472b61472684613cf3565b61470b565b613cf3565b9050919050565b600061474282614715565b9050919050565b600061475482614737565b9050919050565b61476481614749565b82525050565b600060208201905061477f600083018461475b565b92915050565b600082825260208201905092915050565b60006147a18261437f565b6147ab8185614785565b93506147b68361439b565b8060005b838110156147e75781516147ce88826143ba565b97506147d9836143d2565b9250506001810190506147ba565b5085935050505092915050565b6000602082019050818103600083015261480e8184614796565b905092915050565b600082825260208201905092915050565b600061483282613ec8565b61483c8185614816565b935061484c818560208601613ee4565b61485581613f0e565b840191505092915050565b61486981613fc7565b82525050565b600060c0820190506148846000830189613d91565b81810360208301526148968188614827565b90506148a56040830187613d91565b6148b26060830186613d91565b6148bf6080830185614860565b6148cc60a0830184613d91565b979650505050505050565b600080fd5b600067ffffffffffffffff8211156148f7576148f66140ea565b5b61490082613f0e565b9050602081019050919050565b82818337600083830152505050565b600061492f61492a846148dc565b61414a565b90508281526020810184848401111561494b5761494a6148d7565b5b61495684828561490d565b509392505050565b600082601f830112614973576149726140e5565b5b813561498384826020860161491c565b91505092915050565b6000602082840312156149a2576149a1613c86565b5b600082013567ffffffffffffffff8111156149c0576149bf613c8b565b5b6149cc8482850161495e565b91505092915050565b7f4e487b7100000000000000000000000000000000000000000000000000000000600052601160045260246000fd5b6000614a0f82613c90565b9150614a1a83613c90565b9250828201905080821115614a3257614a316149d5565b5b92915050565b7f796f752068617665206265656e20696e2041747461636b000000000000000000600082015250565b6000614a6e601783614816565b9150614a7982614a38565b602082019050919050565b60006020820190508181036000830152614a9d81614a61565b9050919050565b7f4e487b7100000000000000000000000000000000000000000000000000000000600052603260045260246000fd5b6000614ade82613c90565b91507fffffffffffffffffffffffffffffffffffffffffffffffffffffffffffffffff8203614b1057614b0f6149d5565b5b600182019050919050565b7f696e76616c696420646972656374696f6e000000000000000000000000000000600082015250565b6000614b51601183614816565b9150614b5c82614b1b565b602082019050919050565b60006020820190508181036000830152614b8081614b44565b9050919050565b6000614b9282613c90565b9150614b9d83613c90565b9250828202614bab81613c90565b91508282048414831517614bc257614bc16149d5565b5b5092915050565b614bd281613d13565b82525050565b6000604082019050614bed6000830185614bc9565b614bfa6020830184613d91565b9392505050565b7f74686973206c616e64206973206e6f7420796f75727300000000000000000000600082015250565b6000614c37601683614816565b9150614c4282614c01565b602082019050919050565b60006020820190508181036000830152614c6681614c2a565b9050919050565b7f616c726561647920636f6c6c6563746564000000000000000000000000000000600082015250565b6000614ca3601183614816565b9150614cae82614c6d565b602082019050919050565b60006020820190508181036000830152614cd281614c96565b9050919050565b7f796f75722073616d757261692061726520746972656400000000000000000000600082015250565b6000614d0f601683614816565b9150614d1a82614cd9565b602082019050919050565b60006020820190508181036000830152614d3e81614d02565b9050919050565b7f796f752063616e6e6f7420636f6c6c6563742074617865732068657265000000600082015250565b6000614d7b601d83614816565b9150614d8682614d45565b602082019050919050565b60006020820190508181036000830152614daa81614d6e565b9050919050565b600080fd5b600081519050614dc581613c9a565b92915050565b614dd4816142e0565b8114614ddf57600080fd5b50565b600081519050614df181614dcb565b92915050565b600060808284031215614e0d57614e0c614db1565b5b614e17608061414a565b90506000614e2784828501614db6565b6000830152506020614e3b84828501614de2565b6020830152506040614e4f84828501614de2565b6040830152506060614e6384828501614de2565b60608301525092915050565b600060808284031215614e8557614e84613c86565b5b6000614e9384828501614df7565b91505092915050565b7f4e487b7100000000000000000000000000000000000000000000000000000000600052602260045260246000fd5b60006002820490506001821680614ee357607f821691505b602082108103614ef657614ef5614e9c565b5b50919050565b600081519050614f0b81613d25565b92915050565b600060208284031215614f2757614f26613c86565b5b6000614f3584828501614efc565b91505092915050565b7f796f7520617265206e6f7420746865206f776e65720000000000000000000000600082015250565b6000614f74601583614816565b9150614f7f82614f3e565b602082019050919050565b60006020820190508181036000830152614fa381614f67565b9050919050565b7f796f752061726520616c7265616479206465706c6f7965640000000000000000600082015250565b6000614fe0601883614816565b9150614feb82614faa565b602082019050919050565b6000602082019050818103600083015261500f81614fd3565b9050919050565b7f796f75722077617272696f727320617265207469726564000000000000000000600082015250565b600061504c601783614816565b915061505782615016565b602082019050919050565b6000602082019050818103600083015261507b8161503f565b9050919050565b7f796f7520646f6e2774206861766520616e792074726f6f707320746f2064657060008201527f6c6f790000000000000000000000000000000000000000000000000000000000602082015250565b60006150de602383614816565b91506150e982615082565b604082019050919050565b6000602082019050818103600083015261510d816150d1565b9050919050565b7f63616e6e6f74206465706c6f7920686572650000000000000000000000000000600082015250565b600061514a601283614816565b915061515582615114565b602082019050919050565b600060208201905081810360008301526151798161513d565b9050919050565b7f796f752068617665206e6f7420676f742074686973206974656d000000000000600082015250565b60006151b6601a83614816565b91506151c182615180565b602082019050919050565b600060208201905081810360008301526151e5816151a9565b9050919050565b60006020828403121561520257615201613c86565b5b600061521084828501614db6565b91505092915050565b600060208201905061522e6000830184614bc9565b92915050565b7f796f752061726520616c72656164792072656769737465726564000000000000600082015250565b600061526a601a83614816565b915061527582615234565b602082019050919050565b600060208201905081810360008301526152998161525d565b9050919050565b60008190508160005260206000209050919050565b60006020601f8301049050919050565b600082821b905092915050565b6000600883026153027fffffffffffffffffffffffffffffffffffffffffffffffffffffffffffffffff826152c5565b61530c86836152c5565b95508019841693508086168417925050509392505050565b600061533f61533a61533584613c90565b61470b565b613c90565b9050919050565b6000819050919050565b61535983615324565b61536d61536582615346565b8484546152d2565b825550505050565b600090565b615382615375565b61538d818484615350565b505050565b5b818110156153b1576153a660008261537a565b600181019050615393565b5050565b601f8211156153f6576153c7816152a0565b6153d0846152b5565b810160208510156153df578190505b6153f36153eb856152b5565b830182615392565b50505b505050565b600082821c905092915050565b6000615419600019846008026153fb565b1980831691505092915050565b60006154328383615408565b9150826002028217905092915050565b61544b82613ec8565b67ffffffffffffffff811115615464576154636140ea565b5b61546e8254614ecb565b6154798282856153b5565b600060209050601f8311600181146154ac576000841561549a578287015190505b6154a48582615426565b86555061550c565b601f1984166154ba866152a0565b60005b828110156154e2578489015182556001820191506020850194506020810190506154bd565b868310156154ff57848901516154fb601f891682615408565b8355505b6001600288020188555050505b505050505050565b6000819050919050565b61552f61552a82613c90565b615514565b82525050565b60008160601b9050919050565b600061554d82615535565b9050919050565b600061555f82615542565b9050919050565b61557761557282613d13565b615554565b82525050565b6000615589828561551e565b6020820191506155998284615566565b6014820191508190509392505050565b7f4e487b7100000000000000000000000000000000000000000000000000000000600052601260045260246000fd5b60006155e3826142e0565b91506155ee836142e0565b9250826155fe576155fd6155a9565b5b828206905092915050565b6000615614826142e0565b915061561f836142e0565b9250828201905060ff811115615638576156376149d5565b5b9291505056fea264697066735822122020668f7e380380ba99eb3ea7f6bac70bbbbd08bd193df46993e3d1ce68bb157b64736f6c63430008110033",
  "linkReferences": {},
  "deployedLinkReferences": {}
}