{
  "_format": "hh-sol-artifact-1",
  "contractName": "Registration",
  "sourceName": "contracts/Registration.sol",
  "abi": [
    {
      "inputs": [
        {
          "internalType": "string",
          "name": "_uri",
          "type": "string"
        }
      ],
      "name": "register",
      "outputs": [],
      "stateMutability": "nonpayable",
      "type": "function"
    },
    {
      "inputs": [
        {
          "internalType": "address",
          "name": "_playerAddress",
          "type": "address"
        }
      ],
      "name": "viewPlayer",
      "outputs": [
        {
          "components": [
            {
              "internalType": "uint256",
              "name": "ID",
              "type": "uint256"
            },
            {
              "internalType": "string",
              "name": "uri",
              "type": "string"
            },
            {
              "internalType": "uint256",
              "name": "clan",
              "type": "uint256"
            },
            {
              "internalType": "uint256",
              "name": "seasonPoint",
              "type": "uint256"
            },
            {
              "internalType": "uint256[]",
              "name": "currentDeck",
              "type": "uint256[]"
            },
            {
              "internalType": "uint256",
              "name": "location",
              "type": "uint256"
            },
            {
              "internalType": "uint256",
              "name": "locationChangedTime",
              "type": "uint256"
            },
            {
              "internalType": "uint256",
              "name": "taxedGoods",
              "type": "uint256"
            },
            {
              "internalType": "uint256",
              "name": "deployedTime",
              "type": "uint256"
            },
            {
              "internalType": "bool",
              "name": "isInjured",
              "type": "bool"
            }
          ],
          "internalType": "struct Registration.Player",
          "name": "",
          "type": "tuple"
        }
      ],
      "stateMutability": "view",
      "type": "function"
    }
  ],
  "bytecode": "0x6080604052600060025534801561001557600080fd5b50610dfd806100256000396000f3fe608060405234801561001057600080fd5b50600436106100365760003560e01c80633fccb1f71461003b578063f2c298be1461006b575b600080fd5b6100556004803603810190610050919061049d565b610087565b604051610062919061071e565b60405180910390f35b61008560048036038101906100809190610875565b61022b565b005b61008f6103d6565b6000808373ffffffffffffffffffffffffffffffffffffffff1673ffffffffffffffffffffffffffffffffffffffff16815260200190815260200160002060405180610140016040529081600082015481526020016001820180546100f3906108ed565b80601f016020809104026020016040519081016040528092919081815260200182805461011f906108ed565b801561016c5780601f106101415761010080835404028352916020019161016c565b820191906000526020600020905b81548152906001019060200180831161014f57829003601f168201915b505050505081526020016002820154815260200160038201548152602001600482018054806020026020016040519081016040528092919081815260200182805480156101d857602002820191906000526020600020905b8154815260200190600101908083116101c4575b50505050508152602001600582015481526020016006820154815260200160078201548152602001600882015481526020016009820160009054906101000a900460ff1615151515815250509050919050565b60008060003373ffffffffffffffffffffffffffffffffffffffff1673ffffffffffffffffffffffffffffffffffffffff16815260200190815260200160002060000154146102af576040517f08c379a00000000000000000000000000000000000000000000000000000000081526004016102a69061097b565b60405180910390fd5b60006102bd6001600361038a565b60ff16905060008060003373ffffffffffffffffffffffffffffffffffffffff1673ffffffffffffffffffffffffffffffffffffffff168152602001908152602001600020905060026000815480929190610317906109ca565b91905055506002548160000181905550828160010190816103389190610bbe565b50818160020181905550600182036103595760018160050181905550610385565b600282036103705760118160050181905550610384565b6003820361038357601781600501819055505b5b5b505050565b6000828242336040516020016103a1929190610cf9565b6040516020818303038152906040528051906020012060001c6103c49190610d61565b6103ce9190610d92565b905092915050565b6040518061014001604052806000815260200160608152602001600081526020016000815260200160608152602001600081526020016000815260200160008152602001600081526020016000151581525090565b6000604051905090565b600080fd5b600080fd5b600073ffffffffffffffffffffffffffffffffffffffff82169050919050565b600061046a8261043f565b9050919050565b61047a8161045f565b811461048557600080fd5b50565b60008135905061049781610471565b92915050565b6000602082840312156104b3576104b2610435565b5b60006104c184828501610488565b91505092915050565b6000819050919050565b6104dd816104ca565b82525050565b600081519050919050565b600082825260208201905092915050565b60005b8381101561051d578082015181840152602081019050610502565b60008484015250505050565b6000601f19601f8301169050919050565b6000610545826104e3565b61054f81856104ee565b935061055f8185602086016104ff565b61056881610529565b840191505092915050565b600081519050919050565b600082825260208201905092915050565b6000819050602082019050919050565b60006105ab83836104d4565b60208301905092915050565b6000602082019050919050565b60006105cf82610573565b6105d9818561057e565b93506105e48361058f565b8060005b838110156106155781516105fc888261059f565b9750610607836105b7565b9250506001810190506105e8565b5085935050505092915050565b60008115159050919050565b61063781610622565b82525050565b60006101408301600083015161065660008601826104d4565b506020830151848203602086015261066e828261053a565b915050604083015161068360408601826104d4565b50606083015161069660608601826104d4565b50608083015184820360808601526106ae82826105c4565b91505060a08301516106c360a08601826104d4565b5060c08301516106d660c08601826104d4565b5060e08301516106e960e08601826104d4565b506101008301516106fe6101008601826104d4565b5061012083015161071361012086018261062e565b508091505092915050565b60006020820190508181036000830152610738818461063d565b905092915050565b600080fd5b600080fd5b7f4e487b7100000000000000000000000000000000000000000000000000000000600052604160045260246000fd5b61078282610529565b810181811067ffffffffffffffff821117156107a1576107a061074a565b5b80604052505050565b60006107b461042b565b90506107c08282610779565b919050565b600067ffffffffffffffff8211156107e0576107df61074a565b5b6107e982610529565b9050602081019050919050565b82818337600083830152505050565b6000610818610813846107c5565b6107aa565b90508281526020810184848401111561083457610833610745565b5b61083f8482856107f6565b509392505050565b600082601f83011261085c5761085b610740565b5b813561086c848260208601610805565b91505092915050565b60006020828403121561088b5761088a610435565b5b600082013567ffffffffffffffff8111156108a9576108a861043a565b5b6108b584828501610847565b91505092915050565b7f4e487b7100000000000000000000000000000000000000000000000000000000600052602260045260246000fd5b6000600282049050600182168061090557607f821691505b602082108103610918576109176108be565b5b50919050565b600082825260208201905092915050565b7f796f752061726520616c72656164792072656769737465726564000000000000600082015250565b6000610965601a8361091e565b91506109708261092f565b602082019050919050565b6000602082019050818103600083015261099481610958565b9050919050565b7f4e487b7100000000000000000000000000000000000000000000000000000000600052601160045260246000fd5b60006109d5826104ca565b91507fffffffffffffffffffffffffffffffffffffffffffffffffffffffffffffffff8203610a0757610a0661099b565b5b600182019050919050565b60008190508160005260206000209050919050565b60006020601f8301049050919050565b600082821b905092915050565b600060088302610a747fffffffffffffffffffffffffffffffffffffffffffffffffffffffffffffffff82610a37565b610a7e8683610a37565b95508019841693508086168417925050509392505050565b6000819050919050565b6000610abb610ab6610ab1846104ca565b610a96565b6104ca565b9050919050565b6000819050919050565b610ad583610aa0565b610ae9610ae182610ac2565b848454610a44565b825550505050565b600090565b610afe610af1565b610b09818484610acc565b505050565b5b81811015610b2d57610b22600082610af6565b600181019050610b0f565b5050565b601f821115610b7257610b4381610a12565b610b4c84610a27565b81016020851015610b5b578190505b610b6f610b6785610a27565b830182610b0e565b50505b505050565b600082821c905092915050565b6000610b9560001984600802610b77565b1980831691505092915050565b6000610bae8383610b84565b9150826002028217905092915050565b610bc7826104e3565b67ffffffffffffffff811115610be057610bdf61074a565b5b610bea82546108ed565b610bf5828285610b31565b600060209050601f831160018114610c285760008415610c16578287015190505b610c208582610ba2565b865550610c88565b601f198416610c3686610a12565b60005b82811015610c5e57848901518255600182019150602085019450602081019050610c39565b86831015610c7b5784890151610c77601f891682610b84565b8355505b6001600288020188555050505b505050505050565b6000819050919050565b610cab610ca6826104ca565b610c90565b82525050565b60008160601b9050919050565b6000610cc982610cb1565b9050919050565b6000610cdb82610cbe565b9050919050565b610cf3610cee8261045f565b610cd0565b82525050565b6000610d058285610c9a565b602082019150610d158284610ce2565b6014820191508190509392505050565b600060ff82169050919050565b7f4e487b7100000000000000000000000000000000000000000000000000000000600052601260045260246000fd5b6000610d6c82610d25565b9150610d7783610d25565b925082610d8757610d86610d32565b5b828206905092915050565b6000610d9d82610d25565b9150610da883610d25565b9250828201905060ff811115610dc157610dc061099b565b5b9291505056fea264697066735822122016fe77292358e88b91a438b72b096fad9a576082b76a10097898c37d9937c92a64736f6c63430008110033",
  "linkReferences": {},
  "deployedLinkReferences": {}
}