{
  "_format": "hh-sol-artifact-1",
  "contractName": "Game",
  "sourceName": "contracts/Game.sol",
  "abi": [
    {
      "inputs": [
        {
          "internalType": "address",
          "name": "_samuraiAddress",
          "type": "address"
        },
        {
          "internalType": "address",
          "name": "_conquestCoinAddress",
          "type": "address"
        }
      ],
      "stateMutability": "nonpayable",
      "type": "constructor"
    },
    {
      "inputs": [],
      "name": "Doom",
      "outputs": [],
      "stateMutability": "nonpayable",
      "type": "function"
    },
    {
      "inputs": [
        {
          "internalType": "uint256",
          "name": "_id",
          "type": "uint256"
        },
        {
          "internalType": "uint256",
          "name": "_owner",
          "type": "uint256"
        },
        {
          "internalType": "uint256",
          "name": "_value",
          "type": "uint256"
        },
        {
          "internalType": "bool",
          "name": "_isBase",
          "type": "bool"
        }
      ],
      "name": "addLand",
      "outputs": [],
      "stateMutability": "nonpayable",
      "type": "function"
    },
    {
      "inputs": [
        {
          "internalType": "uint256",
          "name": "_id",
          "type": "uint256"
        },
        {
          "internalType": "uint8[]",
          "name": "_roads",
          "type": "uint8[]"
        }
      ],
      "name": "addRoad",
      "outputs": [],
      "stateMutability": "nonpayable",
      "type": "function"
    },
    {
      "inputs": [
        {
          "internalType": "uint256",
          "name": "_id",
          "type": "uint256"
        },
        {
          "internalType": "string",
          "name": "_uri",
          "type": "string"
        }
      ],
      "name": "addSponsor",
      "outputs": [],
      "stateMutability": "nonpayable",
      "type": "function"
    },
    {
      "inputs": [
        {
          "internalType": "address",
          "name": "_user",
          "type": "address"
        },
        {
          "internalType": "uint256",
          "name": "_id",
          "type": "uint256"
        }
      ],
      "name": "balanceOf",
      "outputs": [
        {
          "internalType": "uint256",
          "name": "",
          "type": "uint256"
        }
      ],
      "stateMutability": "view",
      "type": "function"
    },
    {
      "inputs": [
        {
          "internalType": "uint256",
          "name": "_id",
          "type": "uint256"
        }
      ],
      "name": "buildBase",
      "outputs": [],
      "stateMutability": "nonpayable",
      "type": "function"
    },
    {
      "inputs": [
        {
          "internalType": "uint256",
          "name": "_id",
          "type": "uint256"
        },
        {
          "internalType": "uint256",
          "name": "_amount",
          "type": "uint256"
        }
      ],
      "name": "buyItem",
      "outputs": [],
      "stateMutability": "nonpayable",
      "type": "function"
    },
    {
      "inputs": [
        {
          "internalType": "uint256",
          "name": "target",
          "type": "uint256"
        }
      ],
      "name": "changeLocation",
      "outputs": [],
      "stateMutability": "nonpayable",
      "type": "function"
    },
    {
      "inputs": [],
      "name": "collectTax",
      "outputs": [],
      "stateMutability": "nonpayable",
      "type": "function"
    },
    {
      "inputs": [],
      "name": "deployInLand",
      "outputs": [],
      "stateMutability": "nonpayable",
      "type": "function"
    },
    {
      "inputs": [],
      "name": "endSeason",
      "outputs": [],
      "stateMutability": "nonpayable",
      "type": "function"
    },
    {
      "inputs": [],
      "name": "healSamurai",
      "outputs": [],
      "stateMutability": "nonpayable",
      "type": "function"
    },
    {
      "inputs": [
        {
          "internalType": "uint256",
          "name": "",
          "type": "uint256"
        },
        {
          "internalType": "address",
          "name": "",
          "type": "address"
        }
      ],
      "name": "items",
      "outputs": [
        {
          "internalType": "uint256",
          "name": "",
          "type": "uint256"
        }
      ],
      "stateMutability": "view",
      "type": "function"
    },
    {
      "inputs": [
        {
          "internalType": "uint256",
          "name": "",
          "type": "uint256"
        }
      ],
      "name": "lands",
      "outputs": [
        {
          "internalType": "uint256",
          "name": "ID",
          "type": "uint256"
        },
        {
          "internalType": "string",
          "name": "uri",
          "type": "string"
        },
        {
          "internalType": "uint256",
          "name": "owner",
          "type": "uint256"
        },
        {
          "internalType": "uint256",
          "name": "value",
          "type": "uint256"
        },
        {
          "internalType": "bool",
          "name": "isBase",
          "type": "bool"
        },
        {
          "internalType": "uint256",
          "name": "attackerClan",
          "type": "uint256"
        }
      ],
      "stateMutability": "view",
      "type": "function"
    },
    {
      "inputs": [
        {
          "internalType": "uint256",
          "name": "_id",
          "type": "uint256"
        }
      ],
      "name": "ownerOfLand",
      "outputs": [
        {
          "internalType": "uint256",
          "name": "",
          "type": "uint256"
        }
      ],
      "stateMutability": "view",
      "type": "function"
    },
    {
      "inputs": [
        {
          "internalType": "string",
          "name": "_uri",
          "type": "string"
        }
      ],
      "name": "register",
      "outputs": [],
      "stateMutability": "nonpayable",
      "type": "function"
    },
    {
      "inputs": [],
      "name": "samurai",
      "outputs": [
        {
          "internalType": "contract Samurai",
          "name": "",
          "type": "address"
        }
      ],
      "stateMutability": "view",
      "type": "function"
    },
    {
      "inputs": [
        {
          "internalType": "uint256",
          "name": "",
          "type": "uint256"
        }
      ],
      "name": "seasons",
      "outputs": [
        {
          "internalType": "uint256",
          "name": "ID",
          "type": "uint256"
        },
        {
          "internalType": "uint256",
          "name": "startedTime",
          "type": "uint256"
        }
      ],
      "stateMutability": "view",
      "type": "function"
    },
    {
      "inputs": [],
      "name": "sellGoods",
      "outputs": [],
      "stateMutability": "nonpayable",
      "type": "function"
    },
    {
      "inputs": [
        {
          "internalType": "uint256[3]",
          "name": "_heroes",
          "type": "uint256[3]"
        }
      ],
      "name": "setDeck",
      "outputs": [],
      "stateMutability": "nonpayable",
      "type": "function"
    },
    {
      "inputs": [],
      "name": "startSeason",
      "outputs": [],
      "stateMutability": "nonpayable",
      "type": "function"
    },
    {
      "inputs": [
        {
          "internalType": "uint256",
          "name": "_id",
          "type": "uint256"
        }
      ],
      "name": "startWar",
      "outputs": [],
      "stateMutability": "nonpayable",
      "type": "function"
    },
    {
      "inputs": [
        {
          "internalType": "uint256",
          "name": "_newLocation",
          "type": "uint256"
        }
      ],
      "name": "teleport",
      "outputs": [],
      "stateMutability": "nonpayable",
      "type": "function"
    },
    {
      "inputs": [],
      "name": "useHealthPotion",
      "outputs": [],
      "stateMutability": "nonpayable",
      "type": "function"
    },
    {
      "inputs": [
        {
          "internalType": "uint256",
          "name": "_nftID",
          "type": "uint256"
        }
      ],
      "name": "useKinjutsu",
      "outputs": [],
      "stateMutability": "nonpayable",
      "type": "function"
    },
    {
      "inputs": [
        {
          "internalType": "uint256",
          "name": "_id",
          "type": "uint256"
        }
      ],
      "name": "viewAllAttackersPower",
      "outputs": [
        {
          "internalType": "uint256",
          "name": "",
          "type": "uint256"
        }
      ],
      "stateMutability": "view",
      "type": "function"
    },
    {
      "inputs": [
        {
          "internalType": "uint256",
          "name": "_id",
          "type": "uint256"
        }
      ],
      "name": "viewAllDefendersPower",
      "outputs": [
        {
          "internalType": "uint256",
          "name": "",
          "type": "uint256"
        }
      ],
      "stateMutability": "view",
      "type": "function"
    },
    {
      "inputs": [],
      "name": "viewAllLands",
      "outputs": [
        {
          "components": [
            {
              "internalType": "uint256",
              "name": "ID",
              "type": "uint256"
            },
            {
              "internalType": "string",
              "name": "uri",
              "type": "string"
            },
            {
              "internalType": "uint256",
              "name": "owner",
              "type": "uint256"
            },
            {
              "internalType": "uint256",
              "name": "value",
              "type": "uint256"
            },
            {
              "internalType": "uint8[]",
              "name": "roads",
              "type": "uint8[]"
            },
            {
              "internalType": "bool",
              "name": "isBase",
              "type": "bool"
            },
            {
              "internalType": "uint256",
              "name": "attackerClan",
              "type": "uint256"
            },
            {
              "internalType": "address[]",
              "name": "defenderWarriors",
              "type": "address[]"
            },
            {
              "internalType": "address[]",
              "name": "attackerWarriors",
              "type": "address[]"
            }
          ],
          "internalType": "struct Conquest.Land[]",
          "name": "",
          "type": "tuple[]"
        }
      ],
      "stateMutability": "view",
      "type": "function"
    },
    {
      "inputs": [
        {
          "internalType": "uint256",
          "name": "_id",
          "type": "uint256"
        }
      ],
      "name": "viewAttackers",
      "outputs": [
        {
          "internalType": "address[]",
          "name": "",
          "type": "address[]"
        }
      ],
      "stateMutability": "view",
      "type": "function"
    },
    {
      "inputs": [
        {
          "internalType": "address",
          "name": "_playerAddress",
          "type": "address"
        }
      ],
      "name": "viewCurrentDeck",
      "outputs": [
        {
          "internalType": "uint256[]",
          "name": "",
          "type": "uint256[]"
        }
      ],
      "stateMutability": "view",
      "type": "function"
    },
    {
      "inputs": [
        {
          "internalType": "uint256",
          "name": "_id",
          "type": "uint256"
        }
      ],
      "name": "viewDefenders",
      "outputs": [
        {
          "internalType": "address[]",
          "name": "",
          "type": "address[]"
        }
      ],
      "stateMutability": "view",
      "type": "function"
    },
    {
      "inputs": [
        {
          "internalType": "address",
          "name": "_owner",
          "type": "address"
        }
      ],
      "name": "viewHeroes",
      "outputs": [
        {
          "internalType": "uint256[]",
          "name": "",
          "type": "uint256[]"
        }
      ],
      "stateMutability": "view",
      "type": "function"
    },
    {
      "inputs": [
        {
          "internalType": "uint256",
          "name": "_id",
          "type": "uint256"
        }
      ],
      "name": "viewLand",
      "outputs": [
        {
          "components": [
            {
              "internalType": "uint256",
              "name": "ID",
              "type": "uint256"
            },
            {
              "internalType": "string",
              "name": "uri",
              "type": "string"
            },
            {
              "internalType": "uint256",
              "name": "owner",
              "type": "uint256"
            },
            {
              "internalType": "uint256",
              "name": "value",
              "type": "uint256"
            },
            {
              "internalType": "uint8[]",
              "name": "roads",
              "type": "uint8[]"
            },
            {
              "internalType": "bool",
              "name": "isBase",
              "type": "bool"
            },
            {
              "internalType": "uint256",
              "name": "attackerClan",
              "type": "uint256"
            },
            {
              "internalType": "address[]",
              "name": "defenderWarriors",
              "type": "address[]"
            },
            {
              "internalType": "address[]",
              "name": "attackerWarriors",
              "type": "address[]"
            }
          ],
          "internalType": "struct Conquest.Land",
          "name": "",
          "type": "tuple"
        }
      ],
      "stateMutability": "view",
      "type": "function"
    },
    {
      "inputs": [],
      "name": "viewLandOwners",
      "outputs": [
        {
          "internalType": "uint256[]",
          "name": "",
          "type": "uint256[]"
        }
      ],
      "stateMutability": "view",
      "type": "function"
    },
    {
      "inputs": [],
      "name": "viewLeaderBoard",
      "outputs": [],
      "stateMutability": "nonpayable",
      "type": "function"
    },
    {
      "inputs": [
        {
          "internalType": "address",
          "name": "_attackerAddress",
          "type": "address"
        }
      ],
      "name": "viewOneAttackersPower",
      "outputs": [
        {
          "internalType": "uint256",
          "name": "",
          "type": "uint256"
        }
      ],
      "stateMutability": "view",
      "type": "function"
    },
    {
      "inputs": [
        {
          "internalType": "address",
          "name": "_defenderAddress",
          "type": "address"
        }
      ],
      "name": "viewOneDefendersPower",
      "outputs": [
        {
          "internalType": "uint256",
          "name": "",
          "type": "uint256"
        }
      ],
      "stateMutability": "view",
      "type": "function"
    },
    {
      "inputs": [
        {
          "internalType": "address",
          "name": "_playerAddress",
          "type": "address"
        }
      ],
      "name": "viewPlayer",
      "outputs": [
        {
          "components": [
            {
              "internalType": "uint256",
              "name": "ID",
              "type": "uint256"
            },
            {
              "internalType": "string",
              "name": "uri",
              "type": "string"
            },
            {
              "internalType": "uint256",
              "name": "clan",
              "type": "uint256"
            },
            {
              "internalType": "uint256",
              "name": "seasonPoint",
              "type": "uint256"
            },
            {
              "internalType": "uint256[]",
              "name": "currentDeck",
              "type": "uint256[]"
            },
            {
              "internalType": "uint256",
              "name": "location",
              "type": "uint256"
            },
            {
              "internalType": "uint256",
              "name": "locationChangedTime",
              "type": "uint256"
            },
            {
              "internalType": "uint256",
              "name": "taxedGoods",
              "type": "uint256"
            },
            {
              "internalType": "uint256",
              "name": "deployedTime",
              "type": "uint256"
            },
            {
              "internalType": "bool",
              "name": "isInjured",
              "type": "bool"
            }
          ],
          "internalType": "struct Registration.Player",
          "name": "",
          "type": "tuple"
        }
      ],
      "stateMutability": "view",
      "type": "function"
    },
    {
      "inputs": [
        {
          "internalType": "address",
          "name": "_userAddress",
          "type": "address"
        }
      ],
      "name": "viewUserInventory",
      "outputs": [
        {
          "internalType": "uint256[]",
          "name": "",
          "type": "uint256[]"
        }
      ],
      "stateMutability": "view",
      "type": "function"
    }
  ],
  "bytecode": "0x608060405260006002553480156200001657600080fd5b50604051620060073803806200600783398181016040528101906200003c9190620001d2565b8181818181808080600360006101000a81548173ffffffffffffffffffffffffffffffffffffffff021916908373ffffffffffffffffffffffffffffffffffffffff16021790555050505080600660006101000a81548173ffffffffffffffffffffffffffffffffffffffff021916908373ffffffffffffffffffffffffffffffffffffffff16021790555050505050620000dc620000e460201b60201c565b50506200029f565b60076000815480929190620000f99062000252565b9190505550620001086200014e565b6007548160000181815250504281602001818152505080600860006007548152602001908152602001600020600082015181600001556020820151816001015590505050565b604051806040016040528060008152602001600081525090565b600080fd5b600073ffffffffffffffffffffffffffffffffffffffff82169050919050565b60006200019a826200016d565b9050919050565b620001ac816200018d565b8114620001b857600080fd5b50565b600081519050620001cc81620001a1565b92915050565b60008060408385031215620001ec57620001eb62000168565b5b6000620001fc85828601620001bb565b92505060206200020f85828601620001bb565b9150509250929050565b7f4e487b7100000000000000000000000000000000000000000000000000000000600052601160045260246000fd5b6000819050919050565b60006200025f8262000248565b91507fffffffffffffffffffffffffffffffffffffffffffffffffffffffffffffffff820362000294576200029362000219565b5b600182019050919050565b615d5880620002af6000396000f3fe608060405234801561001057600080fd5b506004361061023b5760003560e01c806389832beb1161013b578063ced3add0116100b8578063e734bccf1161007c578063e734bccf14610651578063ed256fc414610681578063efbca3c1146106b1578063f2c298be146106e1578063f5d709a1146106fd5761023b565b8063ced3add0146105aa578063d1fc7e76146105c6578063db4f9ad9146105e2578063e261f1e514610612578063e69d7750146106475761023b565b8063a38b5d82116100ff578063a38b5d82146104f2578063a685278714610522578063b198750e14610552578063b7f151f414610570578063c06da294146105a05761023b565b806389832beb14610450578063909a60b81461046c578063952a96331461049c5780639979c009146104a65780639b859809146104c25761023b565b8063405e68c0116101c957806360f116ab1161018d57806360f116ab146103c057806376c93f41146103ca5780637980f84a146103e65780637b3c28041461040457806384b912ff146104345761023b565b8063405e68c0146103445780634dbcd257146103605780634decc7b11461036a5780634f925e4f1461038657806354ffe77e146103905761023b565b806326bdf0411161021057806326bdf041146102c657806339b260ef146102e25780633d8705ab146103005780633dcdb6721461030a5780633fccb1f7146103145761023b565b8062a17e4f14610240578062fdd58e1461025c5780630a3b433f1461028c5780630e68ea1c146102bc575b600080fd5b61025a6004803603810190610255919061415e565b61072e565b005b610276600480360381019061027191906141e9565b610af2565b6040516102839190614238565b60405180910390f35b6102a660048036038101906102a1919061415e565b610b4d565b6040516102b39190614238565b60405180910390f35b6102c4610c02565b005b6102e060048036038101906102db9190614399565b610e04565b005b6102ea610e2c565b6040516102f791906144b3565b60405180910390f35b610308610ecf565b005b610312611317565b005b61032e600480360381019061032991906144d5565b611319565b60405161033b91906146ec565b60405180910390f35b61035e600480360381019061035991906147c4565b6114bd565b005b610368611854565b005b610384600480360381019061037f919061415e565b611856565b005b61038e6121f9565b005b6103aa60048036038101906103a591906147f1565b6126cc565b6040516103b79190614238565b60405180910390f35b6103c86126f1565b005b6103e460048036038101906103df919061492d565b6127c2565b005b6103ee61285f565b6040516103fb9190614ca1565b60405180910390f35b61041e600480360381019061041991906144d5565b612b91565b60405161042b9190614238565b60405180910390f35b61044e6004803603810190610449919061415e565b612cca565b005b61046a6004803603810190610465919061415e565b612da7565b005b610486600480360381019061048191906144d5565b612eef565b60405161049391906144b3565b60405180910390f35b6104a4612f95565b005b6104c060048036038101906104bb9190614cc3565b612ffb565b005b6104dc60048036038101906104d7919061415e565b612fff565b6040516104e99190614238565b60405180910390f35b61050c6004803603810190610507919061415e565b61301f565b6040516105199190614ddd565b60405180910390f35b61053c600480360381019061053791906144d5565b6132bc565b6040516105499190614238565b60405180910390f35b61055a6133f5565b6040516105679190614e5e565b60405180910390f35b61058a6004803603810190610585919061415e565b61341b565b6040516105979190614ee8565b60405180910390f35b6105a86134bf565b005b6105c460048036038101906105bf9190614f36565b613568565b005b6105e060048036038101906105db919061415e565b613672565b005b6105fc60048036038101906105f791906144d5565b613707565b60405161060991906144b3565b60405180910390f35b61062c6004803603810190610627919061415e565b6139b7565b60405161063e96959493929190614ff6565b60405180910390f35b61064f613a88565b005b61066b6004803603810190610666919061415e565b613ada565b6040516106789190614ee8565b60405180910390f35b61069b600480360381019061069691906144d5565b613b7e565b6040516106a891906144b3565b60405180910390f35b6106cb60048036038101906106c6919061415e565b613c17565b6040516106d89190614238565b60405180910390f35b6106fb60048036038101906106f6919061505e565b613ccc565b005b6107176004803603810190610712919061415e565b613e2b565b6040516107259291906150a7565b60405180910390f35b42600a6000803373ffffffffffffffffffffffffffffffffffffffff1673ffffffffffffffffffffffffffffffffffffffff1681526020019081526020016000206006015461077d91906150ff565b1061078757600080fd5b60008060003373ffffffffffffffffffffffffffffffffffffffff1673ffffffffffffffffffffffffffffffffffffffff168152602001908152602001600020600801541461080b576040517f08c379a00000000000000000000000000000000000000000000000000000000081526004016108029061517f565b60405180910390fd5b60006004600083815260200190815260200160002060040180548060200260200160405190810160405280929190818152602001828054801561089357602002820191906000526020600020906000905b82829054906101000a900460ff1660ff168152602001906001019060208260000104928301926001038202915080841161085c5790505b5050505050905060005b8151811015610ab3576000803373ffffffffffffffffffffffffffffffffffffffff1673ffffffffffffffffffffffffffffffffffffffff168152602001908152602001600020600501548282815181106108fb576108fa61519f565b5b602002602001015160ff1603610aa0576000803373ffffffffffffffffffffffffffffffffffffffff1673ffffffffffffffffffffffffffffffffffffffff16815260200190815260200160002060020154600460008060003373ffffffffffffffffffffffffffffffffffffffff1673ffffffffffffffffffffffffffffffffffffffff168152602001908152602001600020600501548152602001908152602001600020600201541480610a0757506000803373ffffffffffffffffffffffffffffffffffffffff1673ffffffffffffffffffffffffffffffffffffffff168152602001908152602001600020600201546004600085815260200190815260200160002060020154145b15610a9f57426000803373ffffffffffffffffffffffffffffffffffffffff1673ffffffffffffffffffffffffffffffffffffffff16815260200190815260200160002060060181905550826000803373ffffffffffffffffffffffffffffffffffffffff1673ffffffffffffffffffffffffffffffffffffffff168152602001908152602001600020600501819055505050610aef565b5b8080610aab906151ce565b91505061089d565b506040517f08c379a0000000000000000000000000000000000000000000000000000000008152600401610ae690615262565b60405180910390fd5b50565b60006005600083815260200190815260200160002060008473ffffffffffffffffffffffffffffffffffffffff1673ffffffffffffffffffffffffffffffffffffffff16815260200190815260200160002054905092915050565b60008060046000848152602001908152602001600020600701805490509050600080600090505b82811015610bf757610bd7600460008781526020019081526020016000206007018281548110610ba757610ba661519f565b5b9060005260206000200160009054906101000a900473ffffffffffffffffffffffffffffffffffffffff166132bc565b82610be291906150ff565b91508080610bef906151ce565b915050610b74565b508092505050919050565b60008060003373ffffffffffffffffffffffffffffffffffffffff1673ffffffffffffffffffffffffffffffffffffffff1681526020019081526020016000206005015490506004600082815260200190815260200160002060050160009054906101000a900460ff16610c7557600080fd5b6000803373ffffffffffffffffffffffffffffffffffffffff1673ffffffffffffffffffffffffffffffffffffffff16815260200190815260200160002060020154600460008381526020019081526020016000206002015414610cd857600080fd5b60008060003373ffffffffffffffffffffffffffffffffffffffff1673ffffffffffffffffffffffffffffffffffffffff16815260200190815260200160002060070154905060008060003373ffffffffffffffffffffffffffffffffffffffff1673ffffffffffffffffffffffffffffffffffffffff16815260200190815260200160002060070181905550600660009054906101000a900473ffffffffffffffffffffffffffffffffffffffff1673ffffffffffffffffffffffffffffffffffffffff166340c10f19338360c8610db19190615282565b6040518363ffffffff1660e01b8152600401610dce9291906152d3565b600060405180830381600087803b158015610de857600080fd5b505af1158015610dfc573d6000803e3d6000fd5b505050505050565b80600460008481526020019081526020016000206001019081610e2791906154fe565b505050565b60606000602867ffffffffffffffff811115610e4b57610e4a61426e565b5b604051908082528060200260200182016040528015610e795781602001602082028036833780820191505090505b5090506000600190505b6028811015610ec757610e9581612fff565b828281518110610ea857610ea761519f565b5b6020026020010181815250508080610ebf906151ce565b915050610e83565b508091505090565b60008060003373ffffffffffffffffffffffffffffffffffffffff1673ffffffffffffffffffffffffffffffffffffffff16815260200190815260200160002060050154905060046000828152602001908152602001600020600201546000803373ffffffffffffffffffffffffffffffffffffffff1673ffffffffffffffffffffffffffffffffffffffff1681526020019081526020016000206002015414610fae576040517f08c379a0000000000000000000000000000000000000000000000000000000008152600401610fa59061561c565b60405180910390fd5b4262015180600160003373ffffffffffffffffffffffffffffffffffffffff1673ffffffffffffffffffffffffffffffffffffffff16815260200190815260200160002060008481526020019081526020016000205461100e91906150ff565b111561104f576040517f08c379a000000000000000000000000000000000000000000000000000000000815260040161104690615688565b60405180910390fd5b600015156000803373ffffffffffffffffffffffffffffffffffffffff1673ffffffffffffffffffffffffffffffffffffffff16815260200190815260200160002060090160009054906101000a900460ff161515146110e4576040517f08c379a00000000000000000000000000000000000000000000000000000000081526004016110db906156f4565b60405180910390fd5b600015156004600083815260200190815260200160002060050160009054906101000a900460ff1615151461114e576040517f08c379a000000000000000000000000000000000000000000000000000000000815260040161114590615760565b60405180910390fd5b600080600090505b600381101561124457600360009054906101000a900473ffffffffffffffffffffffffffffffffffffffff1673ffffffffffffffffffffffffffffffffffffffff1663cf5f16266111a633613b7e565b83815181106111b8576111b761519f565b5b60200260200101516040518263ffffffff1660e01b81526004016111dc9190614238565b608060405180830381865afa1580156111f9573d6000803e3d6000fd5b505050506040513d601f19601f8201168201806040525081019061121d9190615827565b6020015160ff168261122f91906150ff565b9150808061123c906151ce565b915050611156565b5042600160003373ffffffffffffffffffffffffffffffffffffffff1673ffffffffffffffffffffffffffffffffffffffff1681526020019081526020016000206000848152602001908152602001600020819055506004600083815260200190815260200160002060030154816112bc91906150ff565b6000803373ffffffffffffffffffffffffffffffffffffffff1673ffffffffffffffffffffffffffffffffffffffff168152602001908152602001600020600701600082825461130c91906150ff565b925050819055505050565b565b611321613e9b565b6000808373ffffffffffffffffffffffffffffffffffffffff1673ffffffffffffffffffffffffffffffffffffffff16815260200190815260200160002060405180610140016040529081600082015481526020016001820180546113859061532b565b80601f01602080910402602001604051908101604052809291908181526020018280546113b19061532b565b80156113fe5780601f106113d3576101008083540402835291602001916113fe565b820191906000526020600020905b8154815290600101906020018083116113e157829003601f168201915b5050505050815260200160028201548152602001600382015481526020016004820180548060200260200160405190810160405280929190818152602001828054801561146a57602002820191906000526020600020905b815481526020019060010190808311611456575b50505050508152602001600582015481526020016006820154815260200160078201548152602001600882015481526020016009820160009054906101000a900460ff1615151515815250509050919050565b60008060003373ffffffffffffffffffffffffffffffffffffffff1673ffffffffffffffffffffffffffffffffffffffff168152602001908152602001600020600001540361150b57600080fd5b3373ffffffffffffffffffffffffffffffffffffffff16600360009054906101000a900473ffffffffffffffffffffffffffffffffffffffff1673ffffffffffffffffffffffffffffffffffffffff16636352211e836000600381106115745761157361519f565b5b60200201516040518263ffffffff1660e01b81526004016115959190614238565b602060405180830381865afa1580156115b2573d6000803e3d6000fd5b505050506040513d601f19601f820116820180604052508101906115d69190615869565b73ffffffffffffffffffffffffffffffffffffffff161480156116d757503373ffffffffffffffffffffffffffffffffffffffff16600360009054906101000a900473ffffffffffffffffffffffffffffffffffffffff1673ffffffffffffffffffffffffffffffffffffffff16636352211e8360016003811061165d5761165c61519f565b5b60200201516040518263ffffffff1660e01b815260040161167e9190614238565b602060405180830381865afa15801561169b573d6000803e3d6000fd5b505050506040513d601f19601f820116820180604052508101906116bf9190615869565b73ffffffffffffffffffffffffffffffffffffffff16145b80156117c157503373ffffffffffffffffffffffffffffffffffffffff16600360009054906101000a900473ffffffffffffffffffffffffffffffffffffffff1673ffffffffffffffffffffffffffffffffffffffff16636352211e836002600381106117475761174661519f565b5b60200201516040518263ffffffff1660e01b81526004016117689190614238565b602060405180830381865afa158015611785573d6000803e3d6000fd5b505050506040513d601f19601f820116820180604052508101906117a99190615869565b73ffffffffffffffffffffffffffffffffffffffff16145b611800576040517f08c379a00000000000000000000000000000000000000000000000000000000081526004016117f7906158e2565b60405180910390fd5b806000803373ffffffffffffffffffffffffffffffffffffffff1673ffffffffffffffffffffffffffffffffffffffff168152602001908152602001600020600401906003611850929190613ef0565b5050565b565b60006004600083815260200190815260200160002060070180549050905060006004600084815260200190815260200160002060080180549050905060008060008403611af757600080600460008881526020019081526020016000206008016000815481106118c9576118c861519f565b5b9060005260206000200160009054906101000a900473ffffffffffffffffffffffffffffffffffffffff1673ffffffffffffffffffffffffffffffffffffffff1673ffffffffffffffffffffffffffffffffffffffff16815260200190815260200160002060020154600460008781526020019081526020016000206002018190555060005b83811015611aaf576001600080600460008a815260200190815260200160002060080184815481106119845761198361519f565b5b9060005260206000200160009054906101000a900473ffffffffffffffffffffffffffffffffffffffff1673ffffffffffffffffffffffffffffffffffffffff1673ffffffffffffffffffffffffffffffffffffffff16815260200190815260200160002060090160006101000a81548160ff0219169083151502179055506000806000600460008a81526020019081526020016000206008018481548110611a3057611a2f61519f565b5b9060005260206000200160009054906101000a900473ffffffffffffffffffffffffffffffffffffffff1673ffffffffffffffffffffffffffffffffffffffff1673ffffffffffffffffffffffffffffffffffffffff168152602001908152602001600020600801819055508080611aa7906151ce565b91505061194f565b50600460008681526020019081526020016000206008016000611ad29190613f3d565b60006004600087815260200190815260200160002060060181905550505050506121f6565b60005b84811015611dd95760005b6003811015611c8057600360009054906101000a900473ffffffffffffffffffffffffffffffffffffffff1673ffffffffffffffffffffffffffffffffffffffff1663cf5f1626600080600460008c81526020019081526020016000206007018681548110611b7757611b7661519f565b5b9060005260206000200160009054906101000a900473ffffffffffffffffffffffffffffffffffffffff1673ffffffffffffffffffffffffffffffffffffffff1673ffffffffffffffffffffffffffffffffffffffff1681526020019081526020016000206004018381548110611bf157611bf061519f565b5b90600052602060002001546040518263ffffffff1660e01b8152600401611c189190614238565b608060405180830381865afa158015611c35573d6000803e3d6000fd5b505050506040513d601f19601f82011682018060405250810190611c599190615827565b6040015160ff1683611c6b91906150ff565b92508080611c78906151ce565b915050611b05565b506001600080600460008a81526020019081526020016000206007018481548110611cae57611cad61519f565b5b9060005260206000200160009054906101000a900473ffffffffffffffffffffffffffffffffffffffff1673ffffffffffffffffffffffffffffffffffffffff1673ffffffffffffffffffffffffffffffffffffffff16815260200190815260200160002060090160006101000a81548160ff0219169083151502179055506000806000600460008a81526020019081526020016000206007018481548110611d5a57611d5961519f565b5b9060005260206000200160009054906101000a900473ffffffffffffffffffffffffffffffffffffffff1673ffffffffffffffffffffffffffffffffffffffff1673ffffffffffffffffffffffffffffffffffffffff168152602001908152602001600020600801819055508080611dd1906151ce565b915050611afa565b5060005b8381101561211c5760005b6003811015611f6357600360009054906101000a900473ffffffffffffffffffffffffffffffffffffffff1673ffffffffffffffffffffffffffffffffffffffff1663cf5f1626600080600460008c81526020019081526020016000206008018681548110611e5a57611e5961519f565b5b9060005260206000200160009054906101000a900473ffffffffffffffffffffffffffffffffffffffff1673ffffffffffffffffffffffffffffffffffffffff1673ffffffffffffffffffffffffffffffffffffffff1681526020019081526020016000206004018381548110611ed457611ed361519f565b5b90600052602060002001546040518263ffffffff1660e01b8152600401611efb9190614238565b608060405180830381865afa158015611f18573d6000803e3d6000fd5b505050506040513d601f19601f82011682018060405250810190611f3c9190615827565b6020015160ff1684611f4e91906150ff565b93508080611f5b906151ce565b915050611de8565b506001600080600460008a81526020019081526020016000206008018481548110611f9157611f9061519f565b5b9060005260206000200160009054906101000a900473ffffffffffffffffffffffffffffffffffffffff1673ffffffffffffffffffffffffffffffffffffffff1673ffffffffffffffffffffffffffffffffffffffff16815260200190815260200160002060090160006101000a81548160ff0219169083151502179055506000806000600460008a8152602001908152602001600020600801848154811061203d5761203c61519f565b5b9060005260206000200160009054906101000a900473ffffffffffffffffffffffffffffffffffffffff1673ffffffffffffffffffffffffffffffffffffffff1673ffffffffffffffffffffffffffffffffffffffff168152602001908152602001600020600801819055506004600087815260200190815260200160002060080160006120cb9190613f3d565b6004600087815260200190815260200160002060070160006120ed9190613f3d565b600060046000888152602001908152602001600020600601819055508080612114906151ce565b915050611ddd565b50808211156121f157600080600460008881526020019081526020016000206008016000815481106121515761215061519f565b5b9060005260206000200160009054906101000a900473ffffffffffffffffffffffffffffffffffffffff1673ffffffffffffffffffffffffffffffffffffffff1673ffffffffffffffffffffffffffffffffffffffff168152602001908152602001600020600201546004600087815260200190815260200160002060020181905550600060046000878152602001908152602001600020600601819055505b505050505b50565b60008060003373ffffffffffffffffffffffffffffffffffffffff1673ffffffffffffffffffffffffffffffffffffffff168152602001908152602001600020600801541461227d576040517f08c379a00000000000000000000000000000000000000000000000000000000081526004016122749061594e565b60405180910390fd5b600015156000803373ffffffffffffffffffffffffffffffffffffffff1673ffffffffffffffffffffffffffffffffffffffff16815260200190815260200160002060090160009054906101000a900460ff16151514612312576040517f08c379a0000000000000000000000000000000000000000000000000000000008152600401612309906159ba565b60405180910390fd5b60036000803373ffffffffffffffffffffffffffffffffffffffff1673ffffffffffffffffffffffffffffffffffffffff1681526020019081526020016000206004018054905014612399576040517f08c379a000000000000000000000000000000000000000000000000000000000815260040161239090615a4c565b60405180910390fd5b60008060003373ffffffffffffffffffffffffffffffffffffffff1673ffffffffffffffffffffffffffffffffffffffff168152602001908152602001600020600501549050600060046000838152602001908152602001600020600601540361245a576000803373ffffffffffffffffffffffffffffffffffffffff1673ffffffffffffffffffffffffffffffffffffffff1681526020019081526020016000206002015460046000838152602001908152602001600020600601819055505b61246381612fff565b6000803373ffffffffffffffffffffffffffffffffffffffff1673ffffffffffffffffffffffffffffffffffffffff168152602001908152602001600020600201540361256d5760046000828152602001908152602001600020600701339080600181540180825580915050600190039060005260206000200160009091909190916101000a81548173ffffffffffffffffffffffffffffffffffffffff021916908373ffffffffffffffffffffffffffffffffffffffff16021790555060008060003373ffffffffffffffffffffffffffffffffffffffff1673ffffffffffffffffffffffffffffffffffffffff168152602001908152602001600020600801819055506126c9565b6000803373ffffffffffffffffffffffffffffffffffffffff1673ffffffffffffffffffffffffffffffffffffffff1681526020019081526020016000206002015460046000838152602001908152602001600020600601540361268d5760046000828152602001908152602001600020600801339080600181540180825580915050600190039060005260206000200160009091909190916101000a81548173ffffffffffffffffffffffffffffffffffffffff021916908373ffffffffffffffffffffffffffffffffffffffff160217905550426000803373ffffffffffffffffffffffffffffffffffffffff1673ffffffffffffffffffffffffffffffffffffffff168152602001908152602001600020600801819055506126c8565b6040517f08c379a00000000000000000000000000000000000000000000000000000000081526004016126bf90615ab8565b60405180910390fd5b5b50565b6005602052816000526040600020602052806000526040600020600091509150505481565b60011515600460008060003373ffffffffffffffffffffffffffffffffffffffff1673ffffffffffffffffffffffffffffffffffffffff16815260200190815260200160002060050154815260200190815260200160002060050160009054906101000a900460ff1615151461276657600080fd5b60008060003373ffffffffffffffffffffffffffffffffffffffff1673ffffffffffffffffffffffffffffffffffffffff16815260200190815260200160002060090160006101000a81548160ff021916908315150217905550565b60008151905060005b8181101561285957600460008581526020019081526020016000206004018382815181106127fc576127fb61519f565b5b602002602001015190806001815401808255809150506001900390600052602060002090602091828204019190069091909190916101000a81548160ff021916908360ff1602179055508080612851906151ce565b9150506127cb565b50505050565b60606000602767ffffffffffffffff81111561287e5761287d61426e565b5b6040519080825280602002602001820160405280156128b757816020015b6128a4613f5e565b81526020019060019003908161289c5790505b5090506000600190505b6028811015612b89576004600082815260200190815260200160002060405180610120016040529081600082015481526020016001820180546129039061532b565b80601f016020809104026020016040519081016040528092919081815260200182805461292f9061532b565b801561297c5780601f106129515761010080835404028352916020019161297c565b820191906000526020600020905b81548152906001019060200180831161295f57829003601f168201915b50505050508152602001600282015481526020016003820154815260200160048201805480602002602001604051908101604052809291908181526020018280548015612a0e57602002820191906000526020600020906000905b82829054906101000a900460ff1660ff16815260200190600101906020826000010492830192600103820291508084116129d75790505b505050505081526020016005820160009054906101000a900460ff161515151581526020016006820154815260200160078201805480602002602001604051908101604052809291908181526020018280548015612ac157602002820191906000526020600020905b8160009054906101000a900473ffffffffffffffffffffffffffffffffffffffff1673ffffffffffffffffffffffffffffffffffffffff1681526020019060010190808311612a77575b5050505050815260200160088201805480602002602001604051908101604052809291908181526020018280548015612b4f57602002820191906000526020600020905b8160009054906101000a900473ffffffffffffffffffffffffffffffffffffffff1673ffffffffffffffffffffffffffffffffffffffff1681526020019060010190808311612b05575b505050505081525050828281518110612b6b57612b6a61519f565b5b60200260200101819052508080612b81906151ce565b9150506128c1565b508091505090565b60008060005b6003811015612cc057600360009054906101000a900473ffffffffffffffffffffffffffffffffffffffff1673ffffffffffffffffffffffffffffffffffffffff1663cf5f16266000808773ffffffffffffffffffffffffffffffffffffffff1673ffffffffffffffffffffffffffffffffffffffff1681526020019081526020016000206004018381548110612c3157612c3061519f565b5b90600052602060002001546040518263ffffffff1660e01b8152600401612c589190614238565b608060405180830381865afa158015612c75573d6000803e3d6000fd5b505050506040513d601f19601f82011682018060405250810190612c999190615827565b6020015160ff1682612cab91906150ff565b91508080612cb8906151ce565b915050612b97565b5080915050919050565b6001612cd7336003610af2565b11612d17576040517f08c379a0000000000000000000000000000000000000000000000000000000008152600401612d0e90615b24565b60405180910390fd5b600360009054906101000a900473ffffffffffffffffffffffffffffffffffffffff1673ffffffffffffffffffffffffffffffffffffffff1663d8ad35c3826040518263ffffffff1660e01b8152600401612d729190614238565b600060405180830381600087803b158015612d8c57600080fd5b505af1158015612da0573d6000803e3d6000fd5b5050505050565b60008060003373ffffffffffffffffffffffffffffffffffffffff1673ffffffffffffffffffffffffffffffffffffffff1681526020019081526020016000206007015414612df557600080fd5b60008060003373ffffffffffffffffffffffffffffffffffffffff1673ffffffffffffffffffffffffffffffffffffffff1681526020019081526020016000206008015414612e4357600080fd5b6000803373ffffffffffffffffffffffffffffffffffffffff1673ffffffffffffffffffffffffffffffffffffffff16815260200190815260200160002060020154600460008381526020019081526020016000206002015414612ea657600080fd5b806000803373ffffffffffffffffffffffffffffffffffffffff1673ffffffffffffffffffffffffffffffffffffffff1681526020019081526020016000206005018190555050565b60606000600467ffffffffffffffff811115612f0e57612f0d61426e565b5b604051908082528060200260200182016040528015612f3c5781602001602082028036833780820191505090505b5090506000600190505b6004811015612f8b57612f598482610af2565b828281518110612f6c57612f6b61519f565b5b6020026020010181815250508080612f83906151ce565b915050612f46565b5080915050919050565b60076000815480929190612fa8906151ce565b9190505550612fb5613fac565b6007548160000181815250504281602001818152505080600860006007548152602001908152602001600020600082015181600001556020820151816001015590505050565b5050565b600060046000838152602001908152602001600020600201549050919050565b613027613f5e565b6004600083815260200190815260200160002060405180610120016040529081600082015481526020016001820180546130609061532b565b80601f016020809104026020016040519081016040528092919081815260200182805461308c9061532b565b80156130d95780601f106130ae576101008083540402835291602001916130d9565b820191906000526020600020905b8154815290600101906020018083116130bc57829003601f168201915b5050505050815260200160028201548152602001600382015481526020016004820180548060200260200160405190810160405280929190818152602001828054801561316b57602002820191906000526020600020906000905b82829054906101000a900460ff1660ff16815260200190600101906020826000010492830192600103820291508084116131345790505b505050505081526020016005820160009054906101000a900460ff16151515158152602001600682015481526020016007820180548060200260200160405190810160405280929190818152602001828054801561321e57602002820191906000526020600020905b8160009054906101000a900473ffffffffffffffffffffffffffffffffffffffff1673ffffffffffffffffffffffffffffffffffffffff16815260200190600101908083116131d4575b50505050508152602001600882018054806020026020016040519081016040528092919081815260200182805480156132ac57602002820191906000526020600020905b8160009054906101000a900473ffffffffffffffffffffffffffffffffffffffff1673ffffffffffffffffffffffffffffffffffffffff1681526020019060010190808311613262575b5050505050815250509050919050565b60008060005b60038110156133eb57600360009054906101000a900473ffffffffffffffffffffffffffffffffffffffff1673ffffffffffffffffffffffffffffffffffffffff1663cf5f16266000808773ffffffffffffffffffffffffffffffffffffffff1673ffffffffffffffffffffffffffffffffffffffff168152602001908152602001600020600401838154811061335c5761335b61519f565b5b90600052602060002001546040518263ffffffff1660e01b81526004016133839190614238565b608060405180830381865afa1580156133a0573d6000803e3d6000fd5b505050506040513d601f19601f820116820180604052508101906133c49190615827565b6040015160ff16826133d691906150ff565b915080806133e3906151ce565b9150506132c2565b5080915050919050565b600360009054906101000a900473ffffffffffffffffffffffffffffffffffffffff1681565b6060600460008381526020019081526020016000206008018054806020026020016040519081016040528092919081815260200182805480156134b357602002820191906000526020600020905b8160009054906101000a900473ffffffffffffffffffffffffffffffffffffffff1673ffffffffffffffffffffffffffffffffffffffff1681526020019060010190808311613469575b50505050509050919050565b60016134cc336001610af2565b1161350c576040517f08c379a000000000000000000000000000000000000000000000000000000000815260040161350390615b24565b60405180910390fd5b60008060003373ffffffffffffffffffffffffffffffffffffffff1673ffffffffffffffffffffffffffffffffffffffff16815260200190815260200160002060090160006101000a81548160ff021916908315150217905550565b613570613f5e565b848160000181815250508381604001818152505082816060018181525050818160a001901515908115158152505080600460008781526020019081526020016000206000820151816000015560208201518160010190816135d191906154fe565b5060408201518160020155606082015181600301556080820151816004019080519060200190613602929190613fc6565b5060a08201518160050160006101000a81548160ff02191690831515021790555060c0820151816006015560e082015181600701908051906020019061364992919061406d565b5061010082015181600801908051906020019061366792919061406d565b509050505050505050565b6000803373ffffffffffffffffffffffffffffffffffffffff1673ffffffffffffffffffffffffffffffffffffffff168152602001908152602001600020600201546004600083815260200190815260200160002060020154146136d557600080fd5b60016004600083815260200190815260200160002060050160006101000a81548160ff02191690831515021790555050565b60606000600360009054906101000a900473ffffffffffffffffffffffffffffffffffffffff1673ffffffffffffffffffffffffffffffffffffffff166318160ddd6040518163ffffffff1660e01b8152600401602060405180830381865afa158015613778573d6000803e3d6000fd5b505050506040513d601f19601f8201168201806040525081019061379c9190615b44565b90506000600360009054906101000a900473ffffffffffffffffffffffffffffffffffffffff1673ffffffffffffffffffffffffffffffffffffffff166370a08231856040518263ffffffff1660e01b81526004016137fb9190615b71565b602060405180830381865afa158015613818573d6000803e3d6000fd5b505050506040513d601f19601f8201168201806040525081019061383c9190615b44565b905060008167ffffffffffffffff81111561385a5761385961426e565b5b6040519080825280602002602001820160405280156138885781602001602082028036833780820191505090505b509050600080600190505b8481116139aa578673ffffffffffffffffffffffffffffffffffffffff16600360009054906101000a900473ffffffffffffffffffffffffffffffffffffffff1673ffffffffffffffffffffffffffffffffffffffff16636352211e836040518263ffffffff1660e01b815260040161390c9190614238565b602060405180830381865afa158015613929573d6000803e3d6000fd5b505050506040513d601f19601f8201168201806040525081019061394d9190615869565b73ffffffffffffffffffffffffffffffffffffffff1603613997578083838151811061397c5761397b61519f565b5b6020026020010181815250508180613993906151ce565b9250505b80806139a2906151ce565b915050613893565b5081945050505050919050565b60046020528060005260406000206000915090508060000154908060010180546139e09061532b565b80601f0160208091040260200160405190810160405280929190818152602001828054613a0c9061532b565b8015613a595780601f10613a2e57610100808354040283529160200191613a59565b820191906000526020600020905b815481529060010190602001808311613a3c57829003601f168201915b5050505050908060020154908060030154908060050160009054906101000a900460ff16908060060154905086565b6000600190505b6028811015613ad757600060046000838152602001908152602001600020600801805490501115613ac457613ac381611856565b5b8080613acf906151ce565b915050613a8f565b50565b606060046000838152602001908152602001600020600701805480602002602001604051908101604052809291908181526020018280548015613b7257602002820191906000526020600020905b8160009054906101000a900473ffffffffffffffffffffffffffffffffffffffff1673ffffffffffffffffffffffffffffffffffffffff1681526020019060010190808311613b28575b50505050509050919050565b60606000808373ffffffffffffffffffffffffffffffffffffffff1673ffffffffffffffffffffffffffffffffffffffff168152602001908152602001600020600401805480602002602001604051908101604052809291908181526020018280548015613c0b57602002820191906000526020600020905b815481526020019060010190808311613bf7575b50505050509050919050565b60008060046000848152602001908152602001600020600801805490509050600080600090505b82811015613cc157613ca1600460008781526020019081526020016000206008018281548110613c7157613c7061519f565b5b9060005260206000200160009054906101000a900473ffffffffffffffffffffffffffffffffffffffff16612b91565b82613cac91906150ff565b91508080613cb9906151ce565b915050613c3e565b508092505050919050565b60008060003373ffffffffffffffffffffffffffffffffffffffff1673ffffffffffffffffffffffffffffffffffffffff1681526020019081526020016000206000015414613d50576040517f08c379a0000000000000000000000000000000000000000000000000000000008152600401613d4790615bd8565b60405180910390fd5b6000613d5e60016003613e4f565b60ff16905060008060003373ffffffffffffffffffffffffffffffffffffffff1673ffffffffffffffffffffffffffffffffffffffff168152602001908152602001600020905060026000815480929190613db8906151ce565b9190505550600254816000018190555082816001019081613dd991906154fe565b5081816002018190555060018203613dfa5760018160050181905550613e26565b60028203613e115760118160050181905550613e25565b60038203613e2457601781600501819055505b5b5b505050565b60086020528060005260406000206000915090508060000154908060010154905082565b600082824233604051602001613e66929190615c61565b6040516020818303038152906040528051906020012060001c613e899190615cbc565b613e939190615ced565b905092915050565b6040518061014001604052806000815260200160608152602001600081526020016000815260200160608152602001600081526020016000815260200160008152602001600081526020016000151581525090565b828054828255906000526020600020908101928215613f2c579160200282015b82811115613f2b578251825591602001919060010190613f10565b5b509050613f3991906140f7565b5090565b5080546000825590600052602060002090810190613f5b91906140f7565b50565b60405180610120016040528060008152602001606081526020016000815260200160008152602001606081526020016000151581526020016000815260200160608152602001606081525090565b604051806040016040528060008152602001600081525090565b82805482825590600052602060002090601f0160209004810192821561405c5791602002820160005b8382111561402d57835183826101000a81548160ff021916908360ff1602179055509260200192600101602081600001049283019260010302613fef565b801561405a5782816101000a81549060ff021916905560010160208160000104928301926001030261402d565b505b50905061406991906140f7565b5090565b8280548282559060005260206000209081019282156140e6579160200282015b828111156140e55782518260006101000a81548173ffffffffffffffffffffffffffffffffffffffff021916908373ffffffffffffffffffffffffffffffffffffffff1602179055509160200191906001019061408d565b5b5090506140f391906140f7565b5090565b5b808211156141105760008160009055506001016140f8565b5090565b6000604051905090565b600080fd5b600080fd5b6000819050919050565b61413b81614128565b811461414657600080fd5b50565b60008135905061415881614132565b92915050565b6000602082840312156141745761417361411e565b5b600061418284828501614149565b91505092915050565b600073ffffffffffffffffffffffffffffffffffffffff82169050919050565b60006141b68261418b565b9050919050565b6141c6816141ab565b81146141d157600080fd5b50565b6000813590506141e3816141bd565b92915050565b60008060408385031215614200576141ff61411e565b5b600061420e858286016141d4565b925050602061421f85828601614149565b9150509250929050565b61423281614128565b82525050565b600060208201905061424d6000830184614229565b92915050565b600080fd5b600080fd5b6000601f19601f8301169050919050565b7f4e487b7100000000000000000000000000000000000000000000000000000000600052604160045260246000fd5b6142a68261425d565b810181811067ffffffffffffffff821117156142c5576142c461426e565b5b80604052505050565b60006142d8614114565b90506142e4828261429d565b919050565b600067ffffffffffffffff8211156143045761430361426e565b5b61430d8261425d565b9050602081019050919050565b82818337600083830152505050565b600061433c614337846142e9565b6142ce565b90508281526020810184848401111561435857614357614258565b5b61436384828561431a565b509392505050565b600082601f8301126143805761437f614253565b5b8135614390848260208601614329565b91505092915050565b600080604083850312156143b0576143af61411e565b5b60006143be85828601614149565b925050602083013567ffffffffffffffff8111156143df576143de614123565b5b6143eb8582860161436b565b9150509250929050565b600081519050919050565b600082825260208201905092915050565b6000819050602082019050919050565b61442a81614128565b82525050565b600061443c8383614421565b60208301905092915050565b6000602082019050919050565b6000614460826143f5565b61446a8185614400565b935061447583614411565b8060005b838110156144a657815161448d8882614430565b975061449883614448565b925050600181019050614479565b5085935050505092915050565b600060208201905081810360008301526144cd8184614455565b905092915050565b6000602082840312156144eb576144ea61411e565b5b60006144f9848285016141d4565b91505092915050565b600081519050919050565b600082825260208201905092915050565b60005b8381101561453c578082015181840152602081019050614521565b60008484015250505050565b600061455382614502565b61455d818561450d565b935061456d81856020860161451e565b6145768161425d565b840191505092915050565b600082825260208201905092915050565b600061459d826143f5565b6145a78185614581565b93506145b283614411565b8060005b838110156145e35781516145ca8882614430565b97506145d583614448565b9250506001810190506145b6565b5085935050505092915050565b60008115159050919050565b614605816145f0565b82525050565b6000610140830160008301516146246000860182614421565b506020830151848203602086015261463c8282614548565b91505060408301516146516040860182614421565b5060608301516146646060860182614421565b506080830151848203608086015261467c8282614592565b91505060a083015161469160a0860182614421565b5060c08301516146a460c0860182614421565b5060e08301516146b760e0860182614421565b506101008301516146cc610100860182614421565b506101208301516146e16101208601826145fc565b508091505092915050565b60006020820190508181036000830152614706818461460b565b905092915050565b600067ffffffffffffffff8211156147295761472861426e565b5b602082029050919050565b600080fd5b600061474c6147478461470e565b6142ce565b9050806020840283018581111561476657614765614734565b5b835b8181101561478f578061477b8882614149565b845260208401935050602081019050614768565b5050509392505050565b600082601f8301126147ae576147ad614253565b5b60036147bb848285614739565b91505092915050565b6000606082840312156147da576147d961411e565b5b60006147e884828501614799565b91505092915050565b600080604083850312156148085761480761411e565b5b600061481685828601614149565b9250506020614827858286016141d4565b9150509250929050565b600067ffffffffffffffff82111561484c5761484b61426e565b5b602082029050602081019050919050565b600060ff82169050919050565b6148738161485d565b811461487e57600080fd5b50565b6000813590506148908161486a565b92915050565b60006148a96148a484614831565b6142ce565b905080838252602082019050602084028301858111156148cc576148cb614734565b5b835b818110156148f557806148e18882614881565b8452602084019350506020810190506148ce565b5050509392505050565b600082601f83011261491457614913614253565b5b8135614924848260208601614896565b91505092915050565b600080604083850312156149445761494361411e565b5b600061495285828601614149565b925050602083013567ffffffffffffffff81111561497357614972614123565b5b61497f858286016148ff565b9150509250929050565b600081519050919050565b600082825260208201905092915050565b6000819050602082019050919050565b600081519050919050565b600082825260208201905092915050565b6000819050602082019050919050565b6149ea8161485d565b82525050565b60006149fc83836149e1565b60208301905092915050565b6000602082019050919050565b6000614a20826149b5565b614a2a81856149c0565b9350614a35836149d1565b8060005b83811015614a66578151614a4d88826149f0565b9750614a5883614a08565b925050600181019050614a39565b5085935050505092915050565b600081519050919050565b600082825260208201905092915050565b6000819050602082019050919050565b614aa8816141ab565b82525050565b6000614aba8383614a9f565b60208301905092915050565b6000602082019050919050565b6000614ade82614a73565b614ae88185614a7e565b9350614af383614a8f565b8060005b83811015614b24578151614b0b8882614aae565b9750614b1683614ac6565b925050600181019050614af7565b5085935050505092915050565b600061012083016000830151614b4a6000860182614421565b5060208301518482036020860152614b628282614548565b9150506040830151614b776040860182614421565b506060830151614b8a6060860182614421565b5060808301518482036080860152614ba28282614a15565b91505060a0830151614bb760a08601826145fc565b5060c0830151614bca60c0860182614421565b5060e083015184820360e0860152614be28282614ad3565b915050610100830151848203610100860152614bfe8282614ad3565b9150508091505092915050565b6000614c178383614b31565b905092915050565b6000602082019050919050565b6000614c3782614989565b614c418185614994565b935083602082028501614c53856149a5565b8060005b85811015614c8f5784840389528151614c708582614c0b565b9450614c7b83614c1f565b925060208a01995050600181019050614c57565b50829750879550505050505092915050565b60006020820190508181036000830152614cbb8184614c2c565b905092915050565b60008060408385031215614cda57614cd961411e565b5b6000614ce885828601614149565b9250506020614cf985828601614149565b9150509250929050565b600061012083016000830151614d1c6000860182614421565b5060208301518482036020860152614d348282614548565b9150506040830151614d496040860182614421565b506060830151614d5c6060860182614421565b5060808301518482036080860152614d748282614a15565b91505060a0830151614d8960a08601826145fc565b5060c0830151614d9c60c0860182614421565b5060e083015184820360e0860152614db48282614ad3565b915050610100830151848203610100860152614dd08282614ad3565b9150508091505092915050565b60006020820190508181036000830152614df78184614d03565b905092915050565b6000819050919050565b6000614e24614e1f614e1a8461418b565b614dff565b61418b565b9050919050565b6000614e3682614e09565b9050919050565b6000614e4882614e2b565b9050919050565b614e5881614e3d565b82525050565b6000602082019050614e736000830184614e4f565b92915050565b600082825260208201905092915050565b6000614e9582614a73565b614e9f8185614e79565b9350614eaa83614a8f565b8060005b83811015614edb578151614ec28882614aae565b9750614ecd83614ac6565b925050600181019050614eae565b5085935050505092915050565b60006020820190508181036000830152614f028184614e8a565b905092915050565b614f13816145f0565b8114614f1e57600080fd5b50565b600081359050614f3081614f0a565b92915050565b60008060008060808587031215614f5057614f4f61411e565b5b6000614f5e87828801614149565b9450506020614f6f87828801614149565b9350506040614f8087828801614149565b9250506060614f9187828801614f21565b91505092959194509250565b600082825260208201905092915050565b6000614fb982614502565b614fc38185614f9d565b9350614fd381856020860161451e565b614fdc8161425d565b840191505092915050565b614ff0816145f0565b82525050565b600060c08201905061500b6000830189614229565b818103602083015261501d8188614fae565b905061502c6040830187614229565b6150396060830186614229565b6150466080830185614fe7565b61505360a0830184614229565b979650505050505050565b6000602082840312156150745761507361411e565b5b600082013567ffffffffffffffff81111561509257615091614123565b5b61509e8482850161436b565b91505092915050565b60006040820190506150bc6000830185614229565b6150c96020830184614229565b9392505050565b7f4e487b7100000000000000000000000000000000000000000000000000000000600052601160045260246000fd5b600061510a82614128565b915061511583614128565b925082820190508082111561512d5761512c6150d0565b5b92915050565b7f796f752068617665206265656e20696e2041747461636b000000000000000000600082015250565b6000615169601783614f9d565b915061517482615133565b602082019050919050565b600060208201905081810360008301526151988161515c565b9050919050565b7f4e487b7100000000000000000000000000000000000000000000000000000000600052603260045260246000fd5b60006151d982614128565b91507fffffffffffffffffffffffffffffffffffffffffffffffffffffffffffffffff820361520b5761520a6150d0565b5b600182019050919050565b7f696e76616c696420646972656374696f6e000000000000000000000000000000600082015250565b600061524c601183614f9d565b915061525782615216565b602082019050919050565b6000602082019050818103600083015261527b8161523f565b9050919050565b600061528d82614128565b915061529883614128565b92508282026152a681614128565b915082820484148315176152bd576152bc6150d0565b5b5092915050565b6152cd816141ab565b82525050565b60006040820190506152e860008301856152c4565b6152f56020830184614229565b9392505050565b7f4e487b7100000000000000000000000000000000000000000000000000000000600052602260045260246000fd5b6000600282049050600182168061534357607f821691505b602082108103615356576153556152fc565b5b50919050565b60008190508160005260206000209050919050565b60006020601f8301049050919050565b600082821b905092915050565b6000600883026153be7fffffffffffffffffffffffffffffffffffffffffffffffffffffffffffffffff82615381565b6153c88683615381565b95508019841693508086168417925050509392505050565b60006153fb6153f66153f184614128565b614dff565b614128565b9050919050565b6000819050919050565b615415836153e0565b61542961542182615402565b84845461538e565b825550505050565b600090565b61543e615431565b61544981848461540c565b505050565b5b8181101561546d57615462600082615436565b60018101905061544f565b5050565b601f8211156154b2576154838161535c565b61548c84615371565b8101602085101561549b578190505b6154af6154a785615371565b83018261544e565b50505b505050565b600082821c905092915050565b60006154d5600019846008026154b7565b1980831691505092915050565b60006154ee83836154c4565b9150826002028217905092915050565b61550782614502565b67ffffffffffffffff8111156155205761551f61426e565b5b61552a825461532b565b615535828285615471565b600060209050601f8311600181146155685760008415615556578287015190505b61556085826154e2565b8655506155c8565b601f1984166155768661535c565b60005b8281101561559e57848901518255600182019150602085019450602081019050615579565b868310156155bb57848901516155b7601f8916826154c4565b8355505b6001600288020188555050505b505050505050565b7f74686973206c616e64206973206e6f7420796f75727300000000000000000000600082015250565b6000615606601683614f9d565b9150615611826155d0565b602082019050919050565b60006020820190508181036000830152615635816155f9565b9050919050565b7f616c726561647920636f6c6c6563746564000000000000000000000000000000600082015250565b6000615672601183614f9d565b915061567d8261563c565b602082019050919050565b600060208201905081810360008301526156a181615665565b9050919050565b7f796f75722073616d757261692061726520746972656400000000000000000000600082015250565b60006156de601683614f9d565b91506156e9826156a8565b602082019050919050565b6000602082019050818103600083015261570d816156d1565b9050919050565b7f796f752063616e6e6f7420636f6c6c6563742074617865732068657265000000600082015250565b600061574a601d83614f9d565b915061575582615714565b602082019050919050565b600060208201905081810360008301526157798161573d565b9050919050565b600080fd5b60008151905061579481614132565b92915050565b6000815190506157a98161486a565b92915050565b6000608082840312156157c5576157c4615780565b5b6157cf60806142ce565b905060006157df84828501615785565b60008301525060206157f38482850161579a565b60208301525060406158078482850161579a565b604083015250606061581b8482850161579a565b60608301525092915050565b60006080828403121561583d5761583c61411e565b5b600061584b848285016157af565b91505092915050565b600081519050615863816141bd565b92915050565b60006020828403121561587f5761587e61411e565b5b600061588d84828501615854565b91505092915050565b7f796f7520617265206e6f7420746865206f776e65720000000000000000000000600082015250565b60006158cc601583614f9d565b91506158d782615896565b602082019050919050565b600060208201905081810360008301526158fb816158bf565b9050919050565b7f796f752061726520616c7265616479206465706c6f7965640000000000000000600082015250565b6000615938601883614f9d565b915061594382615902565b602082019050919050565b600060208201905081810360008301526159678161592b565b9050919050565b7f796f75722077617272696f727320617265207469726564000000000000000000600082015250565b60006159a4601783614f9d565b91506159af8261596e565b602082019050919050565b600060208201905081810360008301526159d381615997565b9050919050565b7f796f7520646f6e2774206861766520616e792074726f6f707320746f2064657060008201527f6c6f790000000000000000000000000000000000000000000000000000000000602082015250565b6000615a36602383614f9d565b9150615a41826159da565b604082019050919050565b60006020820190508181036000830152615a6581615a29565b9050919050565b7f63616e6e6f74206465706c6f7920686572650000000000000000000000000000600082015250565b6000615aa2601283614f9d565b9150615aad82615a6c565b602082019050919050565b60006020820190508181036000830152615ad181615a95565b9050919050565b7f796f752068617665206e6f7420676f742074686973206974656d000000000000600082015250565b6000615b0e601a83614f9d565b9150615b1982615ad8565b602082019050919050565b60006020820190508181036000830152615b3d81615b01565b9050919050565b600060208284031215615b5a57615b5961411e565b5b6000615b6884828501615785565b91505092915050565b6000602082019050615b8660008301846152c4565b92915050565b7f796f752061726520616c72656164792072656769737465726564000000000000600082015250565b6000615bc2601a83614f9d565b9150615bcd82615b8c565b602082019050919050565b60006020820190508181036000830152615bf181615bb5565b9050919050565b6000819050919050565b615c13615c0e82614128565b615bf8565b82525050565b60008160601b9050919050565b6000615c3182615c19565b9050919050565b6000615c4382615c26565b9050919050565b615c5b615c56826141ab565b615c38565b82525050565b6000615c6d8285615c02565b602082019150615c7d8284615c4a565b6014820191508190509392505050565b7f4e487b7100000000000000000000000000000000000000000000000000000000600052601260045260246000fd5b6000615cc78261485d565b9150615cd28361485d565b925082615ce257615ce1615c8d565b5b828206905092915050565b6000615cf88261485d565b9150615d038361485d565b9250828201905060ff811115615d1c57615d1b6150d0565b5b9291505056fea26469706673582212206374fff8376ae957bce53eb5618b50ff7dd9bdf3e7e2bec97b1eee58b4dab32764736f6c63430008110033",
  "linkReferences": {},
  "deployedLinkReferences": {}
}