{
  "_format": "hh-sol-artifact-1",
  "contractName": "Conquest",
  "sourceName": "contracts/Conquest.sol",
  "abi": [
    {
      "inputs": [
        {
          "internalType": "address",
          "name": "_samuraiAddress",
          "type": "address"
        }
      ],
      "stateMutability": "nonpayable",
      "type": "constructor"
    },
    {
      "inputs": [],
      "name": "Doom",
      "outputs": [],
      "stateMutability": "nonpayable",
      "type": "function"
    },
    {
      "inputs": [
        {
          "internalType": "uint256",
          "name": "_id",
          "type": "uint256"
        }
      ],
      "name": "buildBase",
      "outputs": [],
      "stateMutability": "nonpayable",
      "type": "function"
    },
    {
      "inputs": [
        {
          "internalType": "uint256",
          "name": "target",
          "type": "uint256"
        }
      ],
      "name": "changeLocation",
      "outputs": [],
      "stateMutability": "nonpayable",
      "type": "function"
    },
    {
      "inputs": [],
      "name": "deployInLand",
      "outputs": [],
      "stateMutability": "nonpayable",
      "type": "function"
    },
    {
      "inputs": [],
      "name": "healSamurai",
      "outputs": [],
      "stateMutability": "nonpayable",
      "type": "function"
    },
    {
      "inputs": [
        {
          "internalType": "uint256",
          "name": "",
          "type": "uint256"
        }
      ],
      "name": "lands",
      "outputs": [
        {
          "internalType": "uint256",
          "name": "ID",
          "type": "uint256"
        },
        {
          "internalType": "string",
          "name": "uri",
          "type": "string"
        },
        {
          "internalType": "uint256",
          "name": "owner",
          "type": "uint256"
        },
        {
          "internalType": "uint256",
          "name": "value",
          "type": "uint256"
        },
        {
          "internalType": "bool",
          "name": "isBase",
          "type": "bool"
        },
        {
          "internalType": "uint256",
          "name": "attackerClan",
          "type": "uint256"
        }
      ],
      "stateMutability": "view",
      "type": "function"
    },
    {
      "inputs": [
        {
          "internalType": "uint256",
          "name": "_id",
          "type": "uint256"
        }
      ],
      "name": "ownerOfLand",
      "outputs": [
        {
          "internalType": "uint256",
          "name": "",
          "type": "uint256"
        }
      ],
      "stateMutability": "view",
      "type": "function"
    },
    {
      "inputs": [
        {
          "internalType": "string",
          "name": "_uri",
          "type": "string"
        }
      ],
      "name": "register",
      "outputs": [],
      "stateMutability": "nonpayable",
      "type": "function"
    },
    {
      "inputs": [],
      "name": "samurai",
      "outputs": [
        {
          "internalType": "contract Samurai",
          "name": "",
          "type": "address"
        }
      ],
      "stateMutability": "view",
      "type": "function"
    },
    {
      "inputs": [
        {
          "internalType": "uint256[3]",
          "name": "_heroes",
          "type": "uint256[3]"
        }
      ],
      "name": "setDeck",
      "outputs": [],
      "stateMutability": "nonpayable",
      "type": "function"
    },
    {
      "inputs": [
        {
          "internalType": "uint256",
          "name": "_id",
          "type": "uint256"
        }
      ],
      "name": "startWar",
      "outputs": [],
      "stateMutability": "nonpayable",
      "type": "function"
    },
    {
      "inputs": [
        {
          "internalType": "uint256",
          "name": "_id",
          "type": "uint256"
        }
      ],
      "name": "viewAllAttackersPower",
      "outputs": [
        {
          "internalType": "uint256",
          "name": "",
          "type": "uint256"
        }
      ],
      "stateMutability": "view",
      "type": "function"
    },
    {
      "inputs": [
        {
          "internalType": "uint256",
          "name": "_id",
          "type": "uint256"
        }
      ],
      "name": "viewAllDefendersPower",
      "outputs": [
        {
          "internalType": "uint256",
          "name": "",
          "type": "uint256"
        }
      ],
      "stateMutability": "view",
      "type": "function"
    },
    {
      "inputs": [],
      "name": "viewAllLands",
      "outputs": [
        {
          "components": [
            {
              "internalType": "uint256",
              "name": "ID",
              "type": "uint256"
            },
            {
              "internalType": "string",
              "name": "uri",
              "type": "string"
            },
            {
              "internalType": "uint256",
              "name": "owner",
              "type": "uint256"
            },
            {
              "internalType": "uint256",
              "name": "value",
              "type": "uint256"
            },
            {
              "internalType": "uint8[]",
              "name": "roads",
              "type": "uint8[]"
            },
            {
              "internalType": "bool",
              "name": "isBase",
              "type": "bool"
            },
            {
              "internalType": "uint256",
              "name": "attackerClan",
              "type": "uint256"
            },
            {
              "internalType": "address[]",
              "name": "defenderWarriors",
              "type": "address[]"
            },
            {
              "internalType": "address[]",
              "name": "attackerWarriors",
              "type": "address[]"
            }
          ],
          "internalType": "struct Conquest.Land[]",
          "name": "",
          "type": "tuple[]"
        }
      ],
      "stateMutability": "view",
      "type": "function"
    },
    {
      "inputs": [
        {
          "internalType": "uint256",
          "name": "_id",
          "type": "uint256"
        }
      ],
      "name": "viewAttackers",
      "outputs": [
        {
          "internalType": "address[]",
          "name": "",
          "type": "address[]"
        }
      ],
      "stateMutability": "view",
      "type": "function"
    },
    {
      "inputs": [
        {
          "internalType": "address",
          "name": "_playerAddress",
          "type": "address"
        }
      ],
      "name": "viewCurrentDeck",
      "outputs": [
        {
          "internalType": "uint256[]",
          "name": "",
          "type": "uint256[]"
        }
      ],
      "stateMutability": "view",
      "type": "function"
    },
    {
      "inputs": [
        {
          "internalType": "uint256",
          "name": "_id",
          "type": "uint256"
        }
      ],
      "name": "viewDefenders",
      "outputs": [
        {
          "internalType": "address[]",
          "name": "",
          "type": "address[]"
        }
      ],
      "stateMutability": "view",
      "type": "function"
    },
    {
      "inputs": [
        {
          "internalType": "address",
          "name": "_owner",
          "type": "address"
        }
      ],
      "name": "viewHeroes",
      "outputs": [
        {
          "internalType": "uint256[]",
          "name": "",
          "type": "uint256[]"
        }
      ],
      "stateMutability": "view",
      "type": "function"
    },
    {
      "inputs": [
        {
          "internalType": "uint256",
          "name": "_id",
          "type": "uint256"
        }
      ],
      "name": "viewLand",
      "outputs": [
        {
          "components": [
            {
              "internalType": "uint256",
              "name": "ID",
              "type": "uint256"
            },
            {
              "internalType": "string",
              "name": "uri",
              "type": "string"
            },
            {
              "internalType": "uint256",
              "name": "owner",
              "type": "uint256"
            },
            {
              "internalType": "uint256",
              "name": "value",
              "type": "uint256"
            },
            {
              "internalType": "uint8[]",
              "name": "roads",
              "type": "uint8[]"
            },
            {
              "internalType": "bool",
              "name": "isBase",
              "type": "bool"
            },
            {
              "internalType": "uint256",
              "name": "attackerClan",
              "type": "uint256"
            },
            {
              "internalType": "address[]",
              "name": "defenderWarriors",
              "type": "address[]"
            },
            {
              "internalType": "address[]",
              "name": "attackerWarriors",
              "type": "address[]"
            }
          ],
          "internalType": "struct Conquest.Land",
          "name": "",
          "type": "tuple"
        }
      ],
      "stateMutability": "view",
      "type": "function"
    },
    {
      "inputs": [],
      "name": "viewLandOwners",
      "outputs": [
        {
          "internalType": "uint256[]",
          "name": "",
          "type": "uint256[]"
        }
      ],
      "stateMutability": "view",
      "type": "function"
    },
    {
      "inputs": [
        {
          "internalType": "address",
          "name": "_attackerAddress",
          "type": "address"
        }
      ],
      "name": "viewOneAttackersPower",
      "outputs": [
        {
          "internalType": "uint256",
          "name": "",
          "type": "uint256"
        }
      ],
      "stateMutability": "view",
      "type": "function"
    },
    {
      "inputs": [
        {
          "internalType": "address",
          "name": "_defenderAddress",
          "type": "address"
        }
      ],
      "name": "viewOneDefendersPower",
      "outputs": [
        {
          "internalType": "uint256",
          "name": "",
          "type": "uint256"
        }
      ],
      "stateMutability": "view",
      "type": "function"
    },
    {
      "inputs": [
        {
          "internalType": "address",
          "name": "_playerAddress",
          "type": "address"
        }
      ],
      "name": "viewPlayer",
      "outputs": [
        {
          "components": [
            {
              "internalType": "uint256",
              "name": "ID",
              "type": "uint256"
            },
            {
              "internalType": "string",
              "name": "uri",
              "type": "string"
            },
            {
              "internalType": "uint256",
              "name": "clan",
              "type": "uint256"
            },
            {
              "internalType": "uint256",
              "name": "seasonPoint",
              "type": "uint256"
            },
            {
              "internalType": "uint256[]",
              "name": "currentDeck",
              "type": "uint256[]"
            },
            {
              "internalType": "uint256",
              "name": "location",
              "type": "uint256"
            },
            {
              "internalType": "uint256",
              "name": "locationChangedTime",
              "type": "uint256"
            },
            {
              "internalType": "uint256",
              "name": "taxedGoods",
              "type": "uint256"
            },
            {
              "internalType": "uint256",
              "name": "deployedTime",
              "type": "uint256"
            },
            {
              "internalType": "bool",
              "name": "isInjured",
              "type": "bool"
            }
          ],
          "internalType": "struct Registration.Player",
          "name": "",
          "type": "tuple"
        }
      ],
      "stateMutability": "view",
      "type": "function"
    }
  ],
  "bytecode": "0x608060405260006002553480156200001657600080fd5b50604051620048793803806200487983398181016040528101906200003c9190620000f0565b8080600360006101000a81548173ffffffffffffffffffffffffffffffffffffffff021916908373ffffffffffffffffffffffffffffffffffffffff160217905550505062000122565b600080fd5b600073ffffffffffffffffffffffffffffffffffffffff82169050919050565b6000620000b8826200008b565b9050919050565b620000ca81620000ab565b8114620000d657600080fd5b50565b600081519050620000ea81620000bf565b92915050565b60006020828403121562000109576200010862000086565b5b60006200011984828501620000d9565b91505092915050565b61474780620001326000396000f3fe608060405234801561001057600080fd5b506004361061014c5760003560e01c8063a38b5d82116100c3578063e261f1e51161007c578063e261f1e5146103af578063e69d7750146103e4578063e734bccf146103ee578063ed256fc41461041e578063efbca3c11461044e578063f2c298be1461047e5761014c565b8063a38b5d82146102b5578063a6852787146102e5578063b198750e14610315578063b7f151f414610333578063d1fc7e7614610363578063db4f9ad91461037f5761014c565b80634decc7b1116101155780634decc7b1146102075780634f925e4f1461022357806360f116ab1461022d5780637980f84a146102375780637b3c2804146102555780639b859809146102855761014c565b8062a17e4f146101515780630a3b433f1461016d57806339b260ef1461019d5780633fccb1f7146101bb578063405e68c0146101eb575b600080fd5b61016b600480360381019061016691906130e0565b61049a565b005b610187600480360381019061018291906130e0565b61085e565b604051610194919061311c565b60405180910390f35b6101a5610913565b6040516101b291906131f5565b60405180910390f35b6101d560048036038101906101d09190613275565b6109b6565b6040516101e2919061349d565b60405180910390f35b610205600480360381019061020091906135f5565b610b5a565b005b610221600480360381019061021c91906130e0565b610ef1565b005b61022b611894565b005b610235611d67565b005b61023f611e38565b60405161024c9190613947565b60405180910390f35b61026f600480360381019061026a9190613275565b61216a565b60405161027c919061311c565b60405180910390f35b61029f600480360381019061029a91906130e0565b6122a3565b6040516102ac919061311c565b60405180910390f35b6102cf60048036038101906102ca91906130e0565b6122c3565b6040516102dc9190613a43565b60405180910390f35b6102ff60048036038101906102fa9190613275565b612560565b60405161030c919061311c565b60405180910390f35b61031d612699565b60405161032a9190613ac4565b60405180910390f35b61034d600480360381019061034891906130e0565b6126bf565b60405161035a9190613b4e565b60405180910390f35b61037d600480360381019061037891906130e0565b612763565b005b61039960048036038101906103949190613275565b6127f8565b6040516103a691906131f5565b60405180910390f35b6103c960048036038101906103c491906130e0565b612aa8565b6040516103db96959493929190613bc9565b60405180910390f35b6103ec612b79565b005b610408600480360381019061040391906130e0565b612bcb565b6040516104159190613b4e565b60405180910390f35b61043860048036038101906104339190613275565b612c6f565b60405161044591906131f5565b60405180910390f35b610468600480360381019061046391906130e0565b612d08565b604051610475919061311c565b60405180910390f35b61049860048036038101906104939190613ce6565b612dbd565b005b42600a6000803373ffffffffffffffffffffffffffffffffffffffff1673ffffffffffffffffffffffffffffffffffffffff168152602001908152602001600020600601546104e99190613d5e565b106104f357600080fd5b60008060003373ffffffffffffffffffffffffffffffffffffffff1673ffffffffffffffffffffffffffffffffffffffff1681526020019081526020016000206008015414610577576040517f08c379a000000000000000000000000000000000000000000000000000000000815260040161056e90613dde565b60405180910390fd5b6000600460008381526020019081526020016000206004018054806020026020016040519081016040528092919081815260200182805480156105ff57602002820191906000526020600020906000905b82829054906101000a900460ff1660ff16815260200190600101906020826000010492830192600103820291508084116105c85790505b5050505050905060005b815181101561081f576000803373ffffffffffffffffffffffffffffffffffffffff1673ffffffffffffffffffffffffffffffffffffffff1681526020019081526020016000206005015482828151811061066757610666613dfe565b5b602002602001015160ff160361080c576000803373ffffffffffffffffffffffffffffffffffffffff1673ffffffffffffffffffffffffffffffffffffffff16815260200190815260200160002060020154600460008060003373ffffffffffffffffffffffffffffffffffffffff1673ffffffffffffffffffffffffffffffffffffffff16815260200190815260200160002060050154815260200190815260200160002060020154148061077357506000803373ffffffffffffffffffffffffffffffffffffffff1673ffffffffffffffffffffffffffffffffffffffff168152602001908152602001600020600201546004600085815260200190815260200160002060020154145b1561080b57426000803373ffffffffffffffffffffffffffffffffffffffff1673ffffffffffffffffffffffffffffffffffffffff16815260200190815260200160002060060181905550826000803373ffffffffffffffffffffffffffffffffffffffff1673ffffffffffffffffffffffffffffffffffffffff16815260200190815260200160002060050181905550505061085b565b5b808061081790613e2d565b915050610609565b506040517f08c379a000000000000000000000000000000000000000000000000000000000815260040161085290613ec1565b60405180910390fd5b50565b60008060046000848152602001908152602001600020600701805490509050600080600090505b82811015610908576108e86004600087815260200190815260200160002060070182815481106108b8576108b7613dfe565b5b9060005260206000200160009054906101000a900473ffffffffffffffffffffffffffffffffffffffff16612560565b826108f39190613d5e565b9150808061090090613e2d565b915050610885565b508092505050919050565b60606000602867ffffffffffffffff811115610932576109316134c4565b5b6040519080825280602002602001820160405280156109605781602001602082028036833780820191505090505b5090506000600190505b60288110156109ae5761097c816122a3565b82828151811061098f5761098e613dfe565b5b60200260200101818152505080806109a690613e2d565b91505061096a565b508091505090565b6109be612f68565b6000808373ffffffffffffffffffffffffffffffffffffffff1673ffffffffffffffffffffffffffffffffffffffff1681526020019081526020016000206040518061014001604052908160008201548152602001600182018054610a2290613f10565b80601f0160208091040260200160405190810160405280929190818152602001828054610a4e90613f10565b8015610a9b5780601f10610a7057610100808354040283529160200191610a9b565b820191906000526020600020905b815481529060010190602001808311610a7e57829003601f168201915b50505050508152602001600282015481526020016003820154815260200160048201805480602002602001604051908101604052809291908181526020018280548015610b0757602002820191906000526020600020905b815481526020019060010190808311610af3575b50505050508152602001600582015481526020016006820154815260200160078201548152602001600882015481526020016009820160009054906101000a900460ff1615151515815250509050919050565b60008060003373ffffffffffffffffffffffffffffffffffffffff1673ffffffffffffffffffffffffffffffffffffffff1681526020019081526020016000206000015403610ba857600080fd5b3373ffffffffffffffffffffffffffffffffffffffff16600360009054906101000a900473ffffffffffffffffffffffffffffffffffffffff1673ffffffffffffffffffffffffffffffffffffffff16636352211e83600060038110610c1157610c10613dfe565b5b60200201516040518263ffffffff1660e01b8152600401610c32919061311c565b602060405180830381865afa158015610c4f573d6000803e3d6000fd5b505050506040513d601f19601f82011682018060405250810190610c739190613f56565b73ffffffffffffffffffffffffffffffffffffffff16148015610d7457503373ffffffffffffffffffffffffffffffffffffffff16600360009054906101000a900473ffffffffffffffffffffffffffffffffffffffff1673ffffffffffffffffffffffffffffffffffffffff16636352211e83600160038110610cfa57610cf9613dfe565b5b60200201516040518263ffffffff1660e01b8152600401610d1b919061311c565b602060405180830381865afa158015610d38573d6000803e3d6000fd5b505050506040513d601f19601f82011682018060405250810190610d5c9190613f56565b73ffffffffffffffffffffffffffffffffffffffff16145b8015610e5e57503373ffffffffffffffffffffffffffffffffffffffff16600360009054906101000a900473ffffffffffffffffffffffffffffffffffffffff1673ffffffffffffffffffffffffffffffffffffffff16636352211e83600260038110610de457610de3613dfe565b5b60200201516040518263ffffffff1660e01b8152600401610e05919061311c565b602060405180830381865afa158015610e22573d6000803e3d6000fd5b505050506040513d601f19601f82011682018060405250810190610e469190613f56565b73ffffffffffffffffffffffffffffffffffffffff16145b610e9d576040517f08c379a0000000000000000000000000000000000000000000000000000000008152600401610e9490613fcf565b60405180910390fd5b806000803373ffffffffffffffffffffffffffffffffffffffff1673ffffffffffffffffffffffffffffffffffffffff168152602001908152602001600020600401906003610eed929190612fbd565b5050565b600060046000838152602001908152602001600020600701805490509050600060046000848152602001908152602001600020600801805490509050600080600084036111925760008060046000888152602001908152602001600020600801600081548110610f6457610f63613dfe565b5b9060005260206000200160009054906101000a900473ffffffffffffffffffffffffffffffffffffffff1673ffffffffffffffffffffffffffffffffffffffff1673ffffffffffffffffffffffffffffffffffffffff16815260200190815260200160002060020154600460008781526020019081526020016000206002018190555060005b8381101561114a576001600080600460008a8152602001908152602001600020600801848154811061101f5761101e613dfe565b5b9060005260206000200160009054906101000a900473ffffffffffffffffffffffffffffffffffffffff1673ffffffffffffffffffffffffffffffffffffffff1673ffffffffffffffffffffffffffffffffffffffff16815260200190815260200160002060090160006101000a81548160ff0219169083151502179055506000806000600460008a815260200190815260200160002060080184815481106110cb576110ca613dfe565b5b9060005260206000200160009054906101000a900473ffffffffffffffffffffffffffffffffffffffff1673ffffffffffffffffffffffffffffffffffffffff1673ffffffffffffffffffffffffffffffffffffffff16815260200190815260200160002060080181905550808061114290613e2d565b915050610fea565b5060046000868152602001908152602001600020600801600061116d919061300a565b6000600460008781526020019081526020016000206006018190555050505050611891565b60005b848110156114745760005b600381101561131b57600360009054906101000a900473ffffffffffffffffffffffffffffffffffffffff1673ffffffffffffffffffffffffffffffffffffffff1663cf5f1626600080600460008c8152602001908152602001600020600701868154811061121257611211613dfe565b5b9060005260206000200160009054906101000a900473ffffffffffffffffffffffffffffffffffffffff1673ffffffffffffffffffffffffffffffffffffffff1673ffffffffffffffffffffffffffffffffffffffff168152602001908152602001600020600401838154811061128c5761128b613dfe565b5b90600052602060002001546040518263ffffffff1660e01b81526004016112b3919061311c565b608060405180830381865afa1580156112d0573d6000803e3d6000fd5b505050506040513d601f19601f820116820180604052508101906112f491906140ad565b6040015160ff16836113069190613d5e565b9250808061131390613e2d565b9150506111a0565b506001600080600460008a8152602001908152602001600020600701848154811061134957611348613dfe565b5b9060005260206000200160009054906101000a900473ffffffffffffffffffffffffffffffffffffffff1673ffffffffffffffffffffffffffffffffffffffff1673ffffffffffffffffffffffffffffffffffffffff16815260200190815260200160002060090160006101000a81548160ff0219169083151502179055506000806000600460008a815260200190815260200160002060070184815481106113f5576113f4613dfe565b5b9060005260206000200160009054906101000a900473ffffffffffffffffffffffffffffffffffffffff1673ffffffffffffffffffffffffffffffffffffffff1673ffffffffffffffffffffffffffffffffffffffff16815260200190815260200160002060080181905550808061146c90613e2d565b915050611195565b5060005b838110156117b75760005b60038110156115fe57600360009054906101000a900473ffffffffffffffffffffffffffffffffffffffff1673ffffffffffffffffffffffffffffffffffffffff1663cf5f1626600080600460008c815260200190815260200160002060080186815481106114f5576114f4613dfe565b5b9060005260206000200160009054906101000a900473ffffffffffffffffffffffffffffffffffffffff1673ffffffffffffffffffffffffffffffffffffffff1673ffffffffffffffffffffffffffffffffffffffff168152602001908152602001600020600401838154811061156f5761156e613dfe565b5b90600052602060002001546040518263ffffffff1660e01b8152600401611596919061311c565b608060405180830381865afa1580156115b3573d6000803e3d6000fd5b505050506040513d601f19601f820116820180604052508101906115d791906140ad565b6020015160ff16846115e99190613d5e565b935080806115f690613e2d565b915050611483565b506001600080600460008a8152602001908152602001600020600801848154811061162c5761162b613dfe565b5b9060005260206000200160009054906101000a900473ffffffffffffffffffffffffffffffffffffffff1673ffffffffffffffffffffffffffffffffffffffff1673ffffffffffffffffffffffffffffffffffffffff16815260200190815260200160002060090160006101000a81548160ff0219169083151502179055506000806000600460008a815260200190815260200160002060080184815481106116d8576116d7613dfe565b5b9060005260206000200160009054906101000a900473ffffffffffffffffffffffffffffffffffffffff1673ffffffffffffffffffffffffffffffffffffffff1673ffffffffffffffffffffffffffffffffffffffff16815260200190815260200160002060080181905550600460008781526020019081526020016000206008016000611766919061300a565b600460008781526020019081526020016000206007016000611788919061300a565b6000600460008881526020019081526020016000206006018190555080806117af90613e2d565b915050611478565b508082111561188c57600080600460008881526020019081526020016000206008016000815481106117ec576117eb613dfe565b5b9060005260206000200160009054906101000a900473ffffffffffffffffffffffffffffffffffffffff1673ffffffffffffffffffffffffffffffffffffffff1673ffffffffffffffffffffffffffffffffffffffff168152602001908152602001600020600201546004600087815260200190815260200160002060020181905550600060046000878152602001908152602001600020600601819055505b505050505b50565b60008060003373ffffffffffffffffffffffffffffffffffffffff1673ffffffffffffffffffffffffffffffffffffffff1681526020019081526020016000206008015414611918576040517f08c379a000000000000000000000000000000000000000000000000000000000815260040161190f90614126565b60405180910390fd5b600015156000803373ffffffffffffffffffffffffffffffffffffffff1673ffffffffffffffffffffffffffffffffffffffff16815260200190815260200160002060090160009054906101000a900460ff161515146119ad576040517f08c379a00000000000000000000000000000000000000000000000000000000081526004016119a490614192565b60405180910390fd5b60036000803373ffffffffffffffffffffffffffffffffffffffff1673ffffffffffffffffffffffffffffffffffffffff1681526020019081526020016000206004018054905014611a34576040517f08c379a0000000000000000000000000000000000000000000000000000000008152600401611a2b90614224565b60405180910390fd5b60008060003373ffffffffffffffffffffffffffffffffffffffff1673ffffffffffffffffffffffffffffffffffffffff1681526020019081526020016000206005015490506000600460008381526020019081526020016000206006015403611af5576000803373ffffffffffffffffffffffffffffffffffffffff1673ffffffffffffffffffffffffffffffffffffffff1681526020019081526020016000206002015460046000838152602001908152602001600020600601819055505b611afe816122a3565b6000803373ffffffffffffffffffffffffffffffffffffffff1673ffffffffffffffffffffffffffffffffffffffff1681526020019081526020016000206002015403611c085760046000828152602001908152602001600020600701339080600181540180825580915050600190039060005260206000200160009091909190916101000a81548173ffffffffffffffffffffffffffffffffffffffff021916908373ffffffffffffffffffffffffffffffffffffffff16021790555060008060003373ffffffffffffffffffffffffffffffffffffffff1673ffffffffffffffffffffffffffffffffffffffff16815260200190815260200160002060080181905550611d64565b6000803373ffffffffffffffffffffffffffffffffffffffff1673ffffffffffffffffffffffffffffffffffffffff16815260200190815260200160002060020154600460008381526020019081526020016000206006015403611d285760046000828152602001908152602001600020600801339080600181540180825580915050600190039060005260206000200160009091909190916101000a81548173ffffffffffffffffffffffffffffffffffffffff021916908373ffffffffffffffffffffffffffffffffffffffff160217905550426000803373ffffffffffffffffffffffffffffffffffffffff1673ffffffffffffffffffffffffffffffffffffffff16815260200190815260200160002060080181905550611d63565b6040517f08c379a0000000000000000000000000000000000000000000000000000000008152600401611d5a90614290565b60405180910390fd5b5b50565b60011515600460008060003373ffffffffffffffffffffffffffffffffffffffff1673ffffffffffffffffffffffffffffffffffffffff16815260200190815260200160002060050154815260200190815260200160002060050160009054906101000a900460ff16151514611ddc57600080fd5b60008060003373ffffffffffffffffffffffffffffffffffffffff1673ffffffffffffffffffffffffffffffffffffffff16815260200190815260200160002060090160006101000a81548160ff021916908315150217905550565b60606000602767ffffffffffffffff811115611e5757611e566134c4565b5b604051908082528060200260200182016040528015611e9057816020015b611e7d61302b565b815260200190600190039081611e755790505b5090506000600190505b602881101561216257600460008281526020019081526020016000206040518061012001604052908160008201548152602001600182018054611edc90613f10565b80601f0160208091040260200160405190810160405280929190818152602001828054611f0890613f10565b8015611f555780601f10611f2a57610100808354040283529160200191611f55565b820191906000526020600020905b815481529060010190602001808311611f3857829003601f168201915b50505050508152602001600282015481526020016003820154815260200160048201805480602002602001604051908101604052809291908181526020018280548015611fe757602002820191906000526020600020906000905b82829054906101000a900460ff1660ff1681526020019060010190602082600001049283019260010382029150808411611fb05790505b505050505081526020016005820160009054906101000a900460ff16151515158152602001600682015481526020016007820180548060200260200160405190810160405280929190818152602001828054801561209a57602002820191906000526020600020905b8160009054906101000a900473ffffffffffffffffffffffffffffffffffffffff1673ffffffffffffffffffffffffffffffffffffffff1681526020019060010190808311612050575b505050505081526020016008820180548060200260200160405190810160405280929190818152602001828054801561212857602002820191906000526020600020905b8160009054906101000a900473ffffffffffffffffffffffffffffffffffffffff1673ffffffffffffffffffffffffffffffffffffffff16815260200190600101908083116120de575b50505050508152505082828151811061214457612143613dfe565b5b6020026020010181905250808061215a90613e2d565b915050611e9a565b508091505090565b60008060005b600381101561229957600360009054906101000a900473ffffffffffffffffffffffffffffffffffffffff1673ffffffffffffffffffffffffffffffffffffffff1663cf5f16266000808773ffffffffffffffffffffffffffffffffffffffff1673ffffffffffffffffffffffffffffffffffffffff168152602001908152602001600020600401838154811061220a57612209613dfe565b5b90600052602060002001546040518263ffffffff1660e01b8152600401612231919061311c565b608060405180830381865afa15801561224e573d6000803e3d6000fd5b505050506040513d601f19601f8201168201806040525081019061227291906140ad565b6020015160ff16826122849190613d5e565b9150808061229190613e2d565b915050612170565b5080915050919050565b600060046000838152602001908152602001600020600201549050919050565b6122cb61302b565b60046000838152602001908152602001600020604051806101200160405290816000820154815260200160018201805461230490613f10565b80601f016020809104026020016040519081016040528092919081815260200182805461233090613f10565b801561237d5780601f106123525761010080835404028352916020019161237d565b820191906000526020600020905b81548152906001019060200180831161236057829003601f168201915b5050505050815260200160028201548152602001600382015481526020016004820180548060200260200160405190810160405280929190818152602001828054801561240f57602002820191906000526020600020906000905b82829054906101000a900460ff1660ff16815260200190600101906020826000010492830192600103820291508084116123d85790505b505050505081526020016005820160009054906101000a900460ff1615151515815260200160068201548152602001600782018054806020026020016040519081016040528092919081815260200182805480156124c257602002820191906000526020600020905b8160009054906101000a900473ffffffffffffffffffffffffffffffffffffffff1673ffffffffffffffffffffffffffffffffffffffff1681526020019060010190808311612478575b505050505081526020016008820180548060200260200160405190810160405280929190818152602001828054801561255057602002820191906000526020600020905b8160009054906101000a900473ffffffffffffffffffffffffffffffffffffffff1673ffffffffffffffffffffffffffffffffffffffff1681526020019060010190808311612506575b5050505050815250509050919050565b60008060005b600381101561268f57600360009054906101000a900473ffffffffffffffffffffffffffffffffffffffff1673ffffffffffffffffffffffffffffffffffffffff1663cf5f16266000808773ffffffffffffffffffffffffffffffffffffffff1673ffffffffffffffffffffffffffffffffffffffff1681526020019081526020016000206004018381548110612600576125ff613dfe565b5b90600052602060002001546040518263ffffffff1660e01b8152600401612627919061311c565b608060405180830381865afa158015612644573d6000803e3d6000fd5b505050506040513d601f19601f8201168201806040525081019061266891906140ad565b6040015160ff168261267a9190613d5e565b9150808061268790613e2d565b915050612566565b5080915050919050565b600360009054906101000a900473ffffffffffffffffffffffffffffffffffffffff1681565b60606004600083815260200190815260200160002060080180548060200260200160405190810160405280929190818152602001828054801561275757602002820191906000526020600020905b8160009054906101000a900473ffffffffffffffffffffffffffffffffffffffff1673ffffffffffffffffffffffffffffffffffffffff168152602001906001019080831161270d575b50505050509050919050565b6000803373ffffffffffffffffffffffffffffffffffffffff1673ffffffffffffffffffffffffffffffffffffffff168152602001908152602001600020600201546004600083815260200190815260200160002060020154146127c657600080fd5b60016004600083815260200190815260200160002060050160006101000a81548160ff02191690831515021790555050565b60606000600360009054906101000a900473ffffffffffffffffffffffffffffffffffffffff1673ffffffffffffffffffffffffffffffffffffffff166318160ddd6040518163ffffffff1660e01b8152600401602060405180830381865afa158015612869573d6000803e3d6000fd5b505050506040513d601f19601f8201168201806040525081019061288d91906142b0565b90506000600360009054906101000a900473ffffffffffffffffffffffffffffffffffffffff1673ffffffffffffffffffffffffffffffffffffffff166370a08231856040518263ffffffff1660e01b81526004016128ec91906142ec565b602060405180830381865afa158015612909573d6000803e3d6000fd5b505050506040513d601f19601f8201168201806040525081019061292d91906142b0565b905060008167ffffffffffffffff81111561294b5761294a6134c4565b5b6040519080825280602002602001820160405280156129795781602001602082028036833780820191505090505b509050600080600190505b848111612a9b578673ffffffffffffffffffffffffffffffffffffffff16600360009054906101000a900473ffffffffffffffffffffffffffffffffffffffff1673ffffffffffffffffffffffffffffffffffffffff16636352211e836040518263ffffffff1660e01b81526004016129fd919061311c565b602060405180830381865afa158015612a1a573d6000803e3d6000fd5b505050506040513d601f19601f82011682018060405250810190612a3e9190613f56565b73ffffffffffffffffffffffffffffffffffffffff1603612a885780838381518110612a6d57612a6c613dfe565b5b6020026020010181815250508180612a8490613e2d565b9250505b8080612a9390613e2d565b915050612984565b5081945050505050919050565b6004602052806000526040600020600091509050806000015490806001018054612ad190613f10565b80601f0160208091040260200160405190810160405280929190818152602001828054612afd90613f10565b8015612b4a5780601f10612b1f57610100808354040283529160200191612b4a565b820191906000526020600020905b815481529060010190602001808311612b2d57829003601f168201915b5050505050908060020154908060030154908060050160009054906101000a900460ff16908060060154905086565b6000600190505b6028811015612bc857600060046000838152602001908152602001600020600801805490501115612bb557612bb481610ef1565b5b8080612bc090613e2d565b915050612b80565b50565b606060046000838152602001908152602001600020600701805480602002602001604051908101604052809291908181526020018280548015612c6357602002820191906000526020600020905b8160009054906101000a900473ffffffffffffffffffffffffffffffffffffffff1673ffffffffffffffffffffffffffffffffffffffff1681526020019060010190808311612c19575b50505050509050919050565b60606000808373ffffffffffffffffffffffffffffffffffffffff1673ffffffffffffffffffffffffffffffffffffffff168152602001908152602001600020600401805480602002602001604051908101604052809291908181526020018280548015612cfc57602002820191906000526020600020905b815481526020019060010190808311612ce8575b50505050509050919050565b60008060046000848152602001908152602001600020600801805490509050600080600090505b82811015612db257612d92600460008781526020019081526020016000206008018281548110612d6257612d61613dfe565b5b9060005260206000200160009054906101000a900473ffffffffffffffffffffffffffffffffffffffff1661216a565b82612d9d9190613d5e565b91508080612daa90613e2d565b915050612d2f565b508092505050919050565b60008060003373ffffffffffffffffffffffffffffffffffffffff1673ffffffffffffffffffffffffffffffffffffffff1681526020019081526020016000206000015414612e41576040517f08c379a0000000000000000000000000000000000000000000000000000000008152600401612e3890614353565b60405180910390fd5b6000612e4f60016003612f1c565b60ff16905060008060003373ffffffffffffffffffffffffffffffffffffffff1673ffffffffffffffffffffffffffffffffffffffff168152602001908152602001600020905060026000815480929190612ea990613e2d565b9190505550600254816000018190555082816001019081612eca9190614515565b5081816002018190555060018203612eeb5760018160050181905550612f17565b60028203612f025760118160050181905550612f16565b60038203612f1557601781600501819055505b5b5b505050565b600082824233604051602001612f33929190614650565b6040516020818303038152906040528051906020012060001c612f5691906146ab565b612f6091906146dc565b905092915050565b6040518061014001604052806000815260200160608152602001600081526020016000815260200160608152602001600081526020016000815260200160008152602001600081526020016000151581525090565b828054828255906000526020600020908101928215612ff9579160200282015b82811115612ff8578251825591602001919060010190612fdd565b5b5090506130069190613079565b5090565b50805460008255906000526020600020908101906130289190613079565b50565b60405180610120016040528060008152602001606081526020016000815260200160008152602001606081526020016000151581526020016000815260200160608152602001606081525090565b5b8082111561309257600081600090555060010161307a565b5090565b6000604051905090565b600080fd5b600080fd5b6000819050919050565b6130bd816130aa565b81146130c857600080fd5b50565b6000813590506130da816130b4565b92915050565b6000602082840312156130f6576130f56130a0565b5b6000613104848285016130cb565b91505092915050565b613116816130aa565b82525050565b6000602082019050613131600083018461310d565b92915050565b600081519050919050565b600082825260208201905092915050565b6000819050602082019050919050565b61316c816130aa565b82525050565b600061317e8383613163565b60208301905092915050565b6000602082019050919050565b60006131a282613137565b6131ac8185613142565b93506131b783613153565b8060005b838110156131e85781516131cf8882613172565b97506131da8361318a565b9250506001810190506131bb565b5085935050505092915050565b6000602082019050818103600083015261320f8184613197565b905092915050565b600073ffffffffffffffffffffffffffffffffffffffff82169050919050565b600061324282613217565b9050919050565b61325281613237565b811461325d57600080fd5b50565b60008135905061326f81613249565b92915050565b60006020828403121561328b5761328a6130a0565b5b600061329984828501613260565b91505092915050565b600081519050919050565b600082825260208201905092915050565b60005b838110156132dc5780820151818401526020810190506132c1565b60008484015250505050565b6000601f19601f8301169050919050565b6000613304826132a2565b61330e81856132ad565b935061331e8185602086016132be565b613327816132e8565b840191505092915050565b600082825260208201905092915050565b600061334e82613137565b6133588185613332565b935061336383613153565b8060005b8381101561339457815161337b8882613172565b97506133868361318a565b925050600181019050613367565b5085935050505092915050565b60008115159050919050565b6133b6816133a1565b82525050565b6000610140830160008301516133d56000860182613163565b50602083015184820360208601526133ed82826132f9565b91505060408301516134026040860182613163565b5060608301516134156060860182613163565b506080830151848203608086015261342d8282613343565b91505060a083015161344260a0860182613163565b5060c083015161345560c0860182613163565b5060e083015161346860e0860182613163565b5061010083015161347d610100860182613163565b506101208301516134926101208601826133ad565b508091505092915050565b600060208201905081810360008301526134b781846133bc565b905092915050565b600080fd5b7f4e487b7100000000000000000000000000000000000000000000000000000000600052604160045260246000fd5b6134fc826132e8565b810181811067ffffffffffffffff8211171561351b5761351a6134c4565b5b80604052505050565b600061352e613096565b905061353a82826134f3565b919050565b600067ffffffffffffffff82111561355a576135596134c4565b5b602082029050919050565b600080fd5b600061357d6135788461353f565b613524565b9050806020840283018581111561359757613596613565565b5b835b818110156135c057806135ac88826130cb565b845260208401935050602081019050613599565b5050509392505050565b600082601f8301126135df576135de6134bf565b5b60036135ec84828561356a565b91505092915050565b60006060828403121561360b5761360a6130a0565b5b6000613619848285016135ca565b91505092915050565b600081519050919050565b600082825260208201905092915050565b6000819050602082019050919050565b600081519050919050565b600082825260208201905092915050565b6000819050602082019050919050565b600060ff82169050919050565b6136908161367a565b82525050565b60006136a28383613687565b60208301905092915050565b6000602082019050919050565b60006136c68261364e565b6136d08185613659565b93506136db8361366a565b8060005b8381101561370c5781516136f38882613696565b97506136fe836136ae565b9250506001810190506136df565b5085935050505092915050565b600081519050919050565b600082825260208201905092915050565b6000819050602082019050919050565b61374e81613237565b82525050565b60006137608383613745565b60208301905092915050565b6000602082019050919050565b600061378482613719565b61378e8185613724565b935061379983613735565b8060005b838110156137ca5781516137b18882613754565b97506137bc8361376c565b92505060018101905061379d565b5085935050505092915050565b6000610120830160008301516137f06000860182613163565b506020830151848203602086015261380882826132f9565b915050604083015161381d6040860182613163565b5060608301516138306060860182613163565b506080830151848203608086015261384882826136bb565b91505060a083015161385d60a08601826133ad565b5060c083015161387060c0860182613163565b5060e083015184820360e08601526138888282613779565b9150506101008301518482036101008601526138a48282613779565b9150508091505092915050565b60006138bd83836137d7565b905092915050565b6000602082019050919050565b60006138dd82613622565b6138e7818561362d565b9350836020820285016138f98561363e565b8060005b85811015613935578484038952815161391685826138b1565b9450613921836138c5565b925060208a019950506001810190506138fd565b50829750879550505050505092915050565b6000602082019050818103600083015261396181846138d2565b905092915050565b6000610120830160008301516139826000860182613163565b506020830151848203602086015261399a82826132f9565b91505060408301516139af6040860182613163565b5060608301516139c26060860182613163565b50608083015184820360808601526139da82826136bb565b91505060a08301516139ef60a08601826133ad565b5060c0830151613a0260c0860182613163565b5060e083015184820360e0860152613a1a8282613779565b915050610100830151848203610100860152613a368282613779565b9150508091505092915050565b60006020820190508181036000830152613a5d8184613969565b905092915050565b6000819050919050565b6000613a8a613a85613a8084613217565b613a65565b613217565b9050919050565b6000613a9c82613a6f565b9050919050565b6000613aae82613a91565b9050919050565b613abe81613aa3565b82525050565b6000602082019050613ad96000830184613ab5565b92915050565b600082825260208201905092915050565b6000613afb82613719565b613b058185613adf565b9350613b1083613735565b8060005b83811015613b41578151613b288882613754565b9750613b338361376c565b925050600181019050613b14565b5085935050505092915050565b60006020820190508181036000830152613b688184613af0565b905092915050565b600082825260208201905092915050565b6000613b8c826132a2565b613b968185613b70565b9350613ba68185602086016132be565b613baf816132e8565b840191505092915050565b613bc3816133a1565b82525050565b600060c082019050613bde600083018961310d565b8181036020830152613bf08188613b81565b9050613bff604083018761310d565b613c0c606083018661310d565b613c196080830185613bba565b613c2660a083018461310d565b979650505050505050565b600080fd5b600067ffffffffffffffff821115613c5157613c506134c4565b5b613c5a826132e8565b9050602081019050919050565b82818337600083830152505050565b6000613c89613c8484613c36565b613524565b905082815260208101848484011115613ca557613ca4613c31565b5b613cb0848285613c67565b509392505050565b600082601f830112613ccd57613ccc6134bf565b5b8135613cdd848260208601613c76565b91505092915050565b600060208284031215613cfc57613cfb6130a0565b5b600082013567ffffffffffffffff811115613d1a57613d196130a5565b5b613d2684828501613cb8565b91505092915050565b7f4e487b7100000000000000000000000000000000000000000000000000000000600052601160045260246000fd5b6000613d69826130aa565b9150613d74836130aa565b9250828201905080821115613d8c57613d8b613d2f565b5b92915050565b7f796f752068617665206265656e20696e2041747461636b000000000000000000600082015250565b6000613dc8601783613b70565b9150613dd382613d92565b602082019050919050565b60006020820190508181036000830152613df781613dbb565b9050919050565b7f4e487b7100000000000000000000000000000000000000000000000000000000600052603260045260246000fd5b6000613e38826130aa565b91507fffffffffffffffffffffffffffffffffffffffffffffffffffffffffffffffff8203613e6a57613e69613d2f565b5b600182019050919050565b7f696e76616c696420646972656374696f6e000000000000000000000000000000600082015250565b6000613eab601183613b70565b9150613eb682613e75565b602082019050919050565b60006020820190508181036000830152613eda81613e9e565b9050919050565b7f4e487b7100000000000000000000000000000000000000000000000000000000600052602260045260246000fd5b60006002820490506001821680613f2857607f821691505b602082108103613f3b57613f3a613ee1565b5b50919050565b600081519050613f5081613249565b92915050565b600060208284031215613f6c57613f6b6130a0565b5b6000613f7a84828501613f41565b91505092915050565b7f796f7520617265206e6f7420746865206f776e65720000000000000000000000600082015250565b6000613fb9601583613b70565b9150613fc482613f83565b602082019050919050565b60006020820190508181036000830152613fe881613fac565b9050919050565b600080fd5b600081519050614003816130b4565b92915050565b6140128161367a565b811461401d57600080fd5b50565b60008151905061402f81614009565b92915050565b60006080828403121561404b5761404a613fef565b5b6140556080613524565b9050600061406584828501613ff4565b600083015250602061407984828501614020565b602083015250604061408d84828501614020565b60408301525060606140a184828501614020565b60608301525092915050565b6000608082840312156140c3576140c26130a0565b5b60006140d184828501614035565b91505092915050565b7f796f752061726520616c7265616479206465706c6f7965640000000000000000600082015250565b6000614110601883613b70565b915061411b826140da565b602082019050919050565b6000602082019050818103600083015261413f81614103565b9050919050565b7f796f75722077617272696f727320617265207469726564000000000000000000600082015250565b600061417c601783613b70565b915061418782614146565b602082019050919050565b600060208201905081810360008301526141ab8161416f565b9050919050565b7f796f7520646f6e2774206861766520616e792074726f6f707320746f2064657060008201527f6c6f790000000000000000000000000000000000000000000000000000000000602082015250565b600061420e602383613b70565b9150614219826141b2565b604082019050919050565b6000602082019050818103600083015261423d81614201565b9050919050565b7f63616e6e6f74206465706c6f7920686572650000000000000000000000000000600082015250565b600061427a601283613b70565b915061428582614244565b602082019050919050565b600060208201905081810360008301526142a98161426d565b9050919050565b6000602082840312156142c6576142c56130a0565b5b60006142d484828501613ff4565b91505092915050565b6142e681613237565b82525050565b600060208201905061430160008301846142dd565b92915050565b7f796f752061726520616c72656164792072656769737465726564000000000000600082015250565b600061433d601a83613b70565b915061434882614307565b602082019050919050565b6000602082019050818103600083015261436c81614330565b9050919050565b60008190508160005260206000209050919050565b60006020601f8301049050919050565b600082821b905092915050565b6000600883026143d57fffffffffffffffffffffffffffffffffffffffffffffffffffffffffffffffff82614398565b6143df8683614398565b95508019841693508086168417925050509392505050565b600061441261440d614408846130aa565b613a65565b6130aa565b9050919050565b6000819050919050565b61442c836143f7565b61444061443882614419565b8484546143a5565b825550505050565b600090565b614455614448565b614460818484614423565b505050565b5b818110156144845761447960008261444d565b600181019050614466565b5050565b601f8211156144c95761449a81614373565b6144a384614388565b810160208510156144b2578190505b6144c66144be85614388565b830182614465565b50505b505050565b600082821c905092915050565b60006144ec600019846008026144ce565b1980831691505092915050565b600061450583836144db565b9150826002028217905092915050565b61451e826132a2565b67ffffffffffffffff811115614537576145366134c4565b5b6145418254613f10565b61454c828285614488565b600060209050601f83116001811461457f576000841561456d578287015190505b61457785826144f9565b8655506145df565b601f19841661458d86614373565b60005b828110156145b557848901518255600182019150602085019450602081019050614590565b868310156145d257848901516145ce601f8916826144db565b8355505b6001600288020188555050505b505050505050565b6000819050919050565b6146026145fd826130aa565b6145e7565b82525050565b60008160601b9050919050565b600061462082614608565b9050919050565b600061463282614615565b9050919050565b61464a61464582613237565b614627565b82525050565b600061465c82856145f1565b60208201915061466c8284614639565b6014820191508190509392505050565b7f4e487b7100000000000000000000000000000000000000000000000000000000600052601260045260246000fd5b60006146b68261367a565b91506146c18361367a565b9250826146d1576146d061467c565b5b828206905092915050565b60006146e78261367a565b91506146f28361367a565b9250828201905060ff81111561470b5761470a613d2f565b5b9291505056fea26469706673582212206b99af99a3875c0c0a6a897a300ff3f6608a1bc6e8bb759a6163d093237eb20064736f6c63430008110033",
  "linkReferences": {},
  "deployedLinkReferences": {}
}