{
  "_format": "hh-sol-artifact-1",
  "contractName": "Consumable",
  "sourceName": "contracts/Consumable.sol",
  "abi": [
    {
      "inputs": [
        {
          "internalType": "address",
          "name": "_samuraiAddress",
          "type": "address"
        }
      ],
      "stateMutability": "nonpayable",
      "type": "constructor"
    },
    {
      "inputs": [],
      "name": "Doom",
      "outputs": [],
      "stateMutability": "nonpayable",
      "type": "function"
    },
    {
      "inputs": [
        {
          "internalType": "address",
          "name": "_user",
          "type": "address"
        },
        {
          "internalType": "uint256",
          "name": "_id",
          "type": "uint256"
        }
      ],
      "name": "balanceOf",
      "outputs": [
        {
          "internalType": "uint256",
          "name": "",
          "type": "uint256"
        }
      ],
      "stateMutability": "view",
      "type": "function"
    },
    {
      "inputs": [
        {
          "internalType": "uint256",
          "name": "_id",
          "type": "uint256"
        }
      ],
      "name": "buildBase",
      "outputs": [],
      "stateMutability": "nonpayable",
      "type": "function"
    },
    {
      "inputs": [
        {
          "internalType": "uint256",
          "name": "_id",
          "type": "uint256"
        },
        {
          "internalType": "uint256",
          "name": "_amount",
          "type": "uint256"
        }
      ],
      "name": "buyItem",
      "outputs": [],
      "stateMutability": "nonpayable",
      "type": "function"
    },
    {
      "inputs": [
        {
          "internalType": "uint256",
          "name": "target",
          "type": "uint256"
        }
      ],
      "name": "changeLocation",
      "outputs": [],
      "stateMutability": "nonpayable",
      "type": "function"
    },
    {
      "inputs": [],
      "name": "deployInLand",
      "outputs": [],
      "stateMutability": "nonpayable",
      "type": "function"
    },
    {
      "inputs": [],
      "name": "healSamurai",
      "outputs": [],
      "stateMutability": "nonpayable",
      "type": "function"
    },
    {
      "inputs": [
        {
          "internalType": "uint256",
          "name": "",
          "type": "uint256"
        },
        {
          "internalType": "address",
          "name": "",
          "type": "address"
        }
      ],
      "name": "items",
      "outputs": [
        {
          "internalType": "uint256",
          "name": "",
          "type": "uint256"
        }
      ],
      "stateMutability": "view",
      "type": "function"
    },
    {
      "inputs": [
        {
          "internalType": "uint256",
          "name": "",
          "type": "uint256"
        }
      ],
      "name": "lands",
      "outputs": [
        {
          "internalType": "uint256",
          "name": "ID",
          "type": "uint256"
        },
        {
          "internalType": "string",
          "name": "uri",
          "type": "string"
        },
        {
          "internalType": "uint256",
          "name": "owner",
          "type": "uint256"
        },
        {
          "internalType": "uint256",
          "name": "value",
          "type": "uint256"
        },
        {
          "internalType": "bool",
          "name": "isBase",
          "type": "bool"
        },
        {
          "internalType": "uint256",
          "name": "attackerClan",
          "type": "uint256"
        }
      ],
      "stateMutability": "view",
      "type": "function"
    },
    {
      "inputs": [
        {
          "internalType": "uint256",
          "name": "_id",
          "type": "uint256"
        }
      ],
      "name": "ownerOfLand",
      "outputs": [
        {
          "internalType": "uint256",
          "name": "",
          "type": "uint256"
        }
      ],
      "stateMutability": "view",
      "type": "function"
    },
    {
      "inputs": [
        {
          "internalType": "string",
          "name": "_uri",
          "type": "string"
        }
      ],
      "name": "register",
      "outputs": [],
      "stateMutability": "nonpayable",
      "type": "function"
    },
    {
      "inputs": [],
      "name": "samurai",
      "outputs": [
        {
          "internalType": "contract Samurai",
          "name": "",
          "type": "address"
        }
      ],
      "stateMutability": "view",
      "type": "function"
    },
    {
      "inputs": [
        {
          "internalType": "uint256[3]",
          "name": "_heroes",
          "type": "uint256[3]"
        }
      ],
      "name": "setDeck",
      "outputs": [],
      "stateMutability": "nonpayable",
      "type": "function"
    },
    {
      "inputs": [
        {
          "internalType": "uint256",
          "name": "_id",
          "type": "uint256"
        }
      ],
      "name": "startWar",
      "outputs": [],
      "stateMutability": "nonpayable",
      "type": "function"
    },
    {
      "inputs": [
        {
          "internalType": "uint256",
          "name": "_newLocation",
          "type": "uint256"
        }
      ],
      "name": "teleport",
      "outputs": [],
      "stateMutability": "nonpayable",
      "type": "function"
    },
    {
      "inputs": [],
      "name": "useHealthPotion",
      "outputs": [],
      "stateMutability": "nonpayable",
      "type": "function"
    },
    {
      "inputs": [
        {
          "internalType": "uint256",
          "name": "_nftID",
          "type": "uint256"
        }
      ],
      "name": "useKinjutsu",
      "outputs": [],
      "stateMutability": "nonpayable",
      "type": "function"
    },
    {
      "inputs": [
        {
          "internalType": "uint256",
          "name": "_id",
          "type": "uint256"
        }
      ],
      "name": "viewAllAttackersPower",
      "outputs": [
        {
          "internalType": "uint256",
          "name": "",
          "type": "uint256"
        }
      ],
      "stateMutability": "view",
      "type": "function"
    },
    {
      "inputs": [
        {
          "internalType": "uint256",
          "name": "_id",
          "type": "uint256"
        }
      ],
      "name": "viewAllDefendersPower",
      "outputs": [
        {
          "internalType": "uint256",
          "name": "",
          "type": "uint256"
        }
      ],
      "stateMutability": "view",
      "type": "function"
    },
    {
      "inputs": [],
      "name": "viewAllLands",
      "outputs": [
        {
          "components": [
            {
              "internalType": "uint256",
              "name": "ID",
              "type": "uint256"
            },
            {
              "internalType": "string",
              "name": "uri",
              "type": "string"
            },
            {
              "internalType": "uint256",
              "name": "owner",
              "type": "uint256"
            },
            {
              "internalType": "uint256",
              "name": "value",
              "type": "uint256"
            },
            {
              "internalType": "uint8[]",
              "name": "roads",
              "type": "uint8[]"
            },
            {
              "internalType": "bool",
              "name": "isBase",
              "type": "bool"
            },
            {
              "internalType": "uint256",
              "name": "attackerClan",
              "type": "uint256"
            },
            {
              "internalType": "address[]",
              "name": "defenderWarriors",
              "type": "address[]"
            },
            {
              "internalType": "address[]",
              "name": "attackerWarriors",
              "type": "address[]"
            }
          ],
          "internalType": "struct Conquest.Land[]",
          "name": "",
          "type": "tuple[]"
        }
      ],
      "stateMutability": "view",
      "type": "function"
    },
    {
      "inputs": [
        {
          "internalType": "uint256",
          "name": "_id",
          "type": "uint256"
        }
      ],
      "name": "viewAttackers",
      "outputs": [
        {
          "internalType": "address[]",
          "name": "",
          "type": "address[]"
        }
      ],
      "stateMutability": "view",
      "type": "function"
    },
    {
      "inputs": [
        {
          "internalType": "address",
          "name": "_playerAddress",
          "type": "address"
        }
      ],
      "name": "viewCurrentDeck",
      "outputs": [
        {
          "internalType": "uint256[]",
          "name": "",
          "type": "uint256[]"
        }
      ],
      "stateMutability": "view",
      "type": "function"
    },
    {
      "inputs": [
        {
          "internalType": "uint256",
          "name": "_id",
          "type": "uint256"
        }
      ],
      "name": "viewDefenders",
      "outputs": [
        {
          "internalType": "address[]",
          "name": "",
          "type": "address[]"
        }
      ],
      "stateMutability": "view",
      "type": "function"
    },
    {
      "inputs": [
        {
          "internalType": "address",
          "name": "_owner",
          "type": "address"
        }
      ],
      "name": "viewHeroes",
      "outputs": [
        {
          "internalType": "uint256[]",
          "name": "",
          "type": "uint256[]"
        }
      ],
      "stateMutability": "view",
      "type": "function"
    },
    {
      "inputs": [
        {
          "internalType": "uint256",
          "name": "_id",
          "type": "uint256"
        }
      ],
      "name": "viewLand",
      "outputs": [
        {
          "components": [
            {
              "internalType": "uint256",
              "name": "ID",
              "type": "uint256"
            },
            {
              "internalType": "string",
              "name": "uri",
              "type": "string"
            },
            {
              "internalType": "uint256",
              "name": "owner",
              "type": "uint256"
            },
            {
              "internalType": "uint256",
              "name": "value",
              "type": "uint256"
            },
            {
              "internalType": "uint8[]",
              "name": "roads",
              "type": "uint8[]"
            },
            {
              "internalType": "bool",
              "name": "isBase",
              "type": "bool"
            },
            {
              "internalType": "uint256",
              "name": "attackerClan",
              "type": "uint256"
            },
            {
              "internalType": "address[]",
              "name": "defenderWarriors",
              "type": "address[]"
            },
            {
              "internalType": "address[]",
              "name": "attackerWarriors",
              "type": "address[]"
            }
          ],
          "internalType": "struct Conquest.Land",
          "name": "",
          "type": "tuple"
        }
      ],
      "stateMutability": "view",
      "type": "function"
    },
    {
      "inputs": [],
      "name": "viewLandOwners",
      "outputs": [
        {
          "internalType": "uint256[]",
          "name": "",
          "type": "uint256[]"
        }
      ],
      "stateMutability": "view",
      "type": "function"
    },
    {
      "inputs": [
        {
          "internalType": "address",
          "name": "_attackerAddress",
          "type": "address"
        }
      ],
      "name": "viewOneAttackersPower",
      "outputs": [
        {
          "internalType": "uint256",
          "name": "",
          "type": "uint256"
        }
      ],
      "stateMutability": "view",
      "type": "function"
    },
    {
      "inputs": [
        {
          "internalType": "address",
          "name": "_defenderAddress",
          "type": "address"
        }
      ],
      "name": "viewOneDefendersPower",
      "outputs": [
        {
          "internalType": "uint256",
          "name": "",
          "type": "uint256"
        }
      ],
      "stateMutability": "view",
      "type": "function"
    },
    {
      "inputs": [
        {
          "internalType": "address",
          "name": "_playerAddress",
          "type": "address"
        }
      ],
      "name": "viewPlayer",
      "outputs": [
        {
          "components": [
            {
              "internalType": "uint256",
              "name": "ID",
              "type": "uint256"
            },
            {
              "internalType": "string",
              "name": "uri",
              "type": "string"
            },
            {
              "internalType": "uint256",
              "name": "clan",
              "type": "uint256"
            },
            {
              "internalType": "uint256",
              "name": "seasonPoint",
              "type": "uint256"
            },
            {
              "internalType": "uint256[]",
              "name": "currentDeck",
              "type": "uint256[]"
            },
            {
              "internalType": "uint256",
              "name": "location",
              "type": "uint256"
            },
            {
              "internalType": "uint256",
              "name": "locationChangedTime",
              "type": "uint256"
            },
            {
              "internalType": "uint256",
              "name": "taxedGoods",
              "type": "uint256"
            },
            {
              "internalType": "uint256",
              "name": "deployedTime",
              "type": "uint256"
            },
            {
              "internalType": "bool",
              "name": "isInjured",
              "type": "bool"
            }
          ],
          "internalType": "struct Registration.Player",
          "name": "",
          "type": "tuple"
        }
      ],
      "stateMutability": "view",
      "type": "function"
    },
    {
      "inputs": [
        {
          "internalType": "address",
          "name": "_userAddress",
          "type": "address"
        }
      ],
      "name": "viewUserInventory",
      "outputs": [
        {
          "internalType": "uint256[]",
          "name": "",
          "type": "uint256[]"
        }
      ],
      "stateMutability": "view",
      "type": "function"
    }
  ],
  "bytecode": "0x608060405260006002553480156200001657600080fd5b5060405162004f1938038062004f1983398181016040528101906200003c9190620000f2565b808080600360006101000a81548173ffffffffffffffffffffffffffffffffffffffff021916908373ffffffffffffffffffffffffffffffffffffffff16021790555050505062000124565b600080fd5b600073ffffffffffffffffffffffffffffffffffffffff82169050919050565b6000620000ba826200008d565b9050919050565b620000cc81620000ad565b8114620000d857600080fd5b50565b600081519050620000ec81620000c1565b92915050565b6000602082840312156200010b576200010a62000088565b5b60006200011b84828501620000db565b91505092915050565b614de580620001346000396000f3fe608060405234801561001057600080fd5b50600436106101d85760003560e01c80639979c00911610104578063d1fc7e76116100a2578063e734bccf11610071578063e734bccf14610568578063ed256fc414610598578063efbca3c1146105c8578063f2c298be146105f8576101d8565b8063d1fc7e76146104dd578063db4f9ad9146104f9578063e261f1e514610529578063e69d77501461055e576101d8565b8063a6852787116100de578063a685278714610455578063b198750e14610485578063b7f151f4146104a3578063c06da294146104d3576101d8565b80639979c009146103d95780639b859809146103f5578063a38b5d8214610425576101d8565b80634f925e4f1161017c5780637b3c28041161014b5780637b3c28041461034157806384b912ff1461037157806389832beb1461038d578063909a60b8146103a9576101d8565b80634f925e4f146102df57806354ffe77e146102e957806360f116ab146103195780637980f84a14610323576101d8565b806339b260ef116101b857806339b260ef146102595780633fccb1f714610277578063405e68c0146102a75780634decc7b1146102c3576101d8565b8062a17e4f146101dd578062fdd58e146101f95780630a3b433f14610229575b600080fd5b6101f760048036038101906101f29190613652565b610614565b005b610213600480360381019061020e91906136dd565b6109d8565b604051610220919061372c565b60405180910390f35b610243600480360381019061023e9190613652565b610a33565b604051610250919061372c565b60405180910390f35b610261610ae8565b60405161026e9190613805565b60405180910390f35b610291600480360381019061028c9190613827565b610b8b565b60405161029e9190613a4f565b60405180910390f35b6102c160048036038101906102bc9190613ba7565b610d2f565b005b6102dd60048036038101906102d89190613652565b6110c6565b005b6102e7611a69565b005b61030360048036038101906102fe9190613bd4565b611f3c565b604051610310919061372c565b60405180910390f35b610321611f61565b005b61032b612032565b6040516103389190613f39565b60405180910390f35b61035b60048036038101906103569190613827565b612364565b604051610368919061372c565b60405180910390f35b61038b60048036038101906103869190613652565b61249d565b005b6103a760048036038101906103a29190613652565b61257a565b005b6103c360048036038101906103be9190613827565b6126c2565b6040516103d09190613805565b60405180910390f35b6103f360048036038101906103ee9190613f5b565b612768565b005b61040f600480360381019061040a9190613652565b61276c565b60405161041c919061372c565b60405180910390f35b61043f600480360381019061043a9190613652565b61278c565b60405161044c9190614075565b60405180910390f35b61046f600480360381019061046a9190613827565b612a29565b60405161047c919061372c565b60405180910390f35b61048d612b62565b60405161049a91906140f6565b60405180910390f35b6104bd60048036038101906104b89190613652565b612b88565b6040516104ca9190614180565b60405180910390f35b6104db612c2c565b005b6104f760048036038101906104f29190613652565b612cd5565b005b610513600480360381019061050e9190613827565b612d6a565b6040516105209190613805565b60405180910390f35b610543600480360381019061053e9190613652565b61301a565b604051610555969594939291906141fb565b60405180910390f35b6105666130eb565b005b610582600480360381019061057d9190613652565b61313d565b60405161058f9190614180565b60405180910390f35b6105b260048036038101906105ad9190613827565b6131e1565b6040516105bf9190613805565b60405180910390f35b6105e260048036038101906105dd9190613652565b61327a565b6040516105ef919061372c565b60405180910390f35b610612600480360381019061060d9190614318565b61332f565b005b42600a6000803373ffffffffffffffffffffffffffffffffffffffff1673ffffffffffffffffffffffffffffffffffffffff168152602001908152602001600020600601546106639190614390565b1061066d57600080fd5b60008060003373ffffffffffffffffffffffffffffffffffffffff1673ffffffffffffffffffffffffffffffffffffffff16815260200190815260200160002060080154146106f1576040517f08c379a00000000000000000000000000000000000000000000000000000000081526004016106e890614410565b60405180910390fd5b60006004600083815260200190815260200160002060040180548060200260200160405190810160405280929190818152602001828054801561077957602002820191906000526020600020906000905b82829054906101000a900460ff1660ff16815260200190600101906020826000010492830192600103820291508084116107425790505b5050505050905060005b8151811015610999576000803373ffffffffffffffffffffffffffffffffffffffff1673ffffffffffffffffffffffffffffffffffffffff168152602001908152602001600020600501548282815181106107e1576107e0614430565b5b602002602001015160ff1603610986576000803373ffffffffffffffffffffffffffffffffffffffff1673ffffffffffffffffffffffffffffffffffffffff16815260200190815260200160002060020154600460008060003373ffffffffffffffffffffffffffffffffffffffff1673ffffffffffffffffffffffffffffffffffffffff1681526020019081526020016000206005015481526020019081526020016000206002015414806108ed57506000803373ffffffffffffffffffffffffffffffffffffffff1673ffffffffffffffffffffffffffffffffffffffff168152602001908152602001600020600201546004600085815260200190815260200160002060020154145b1561098557426000803373ffffffffffffffffffffffffffffffffffffffff1673ffffffffffffffffffffffffffffffffffffffff16815260200190815260200160002060060181905550826000803373ffffffffffffffffffffffffffffffffffffffff1673ffffffffffffffffffffffffffffffffffffffff1681526020019081526020016000206005018190555050506109d5565b5b80806109919061445f565b915050610783565b506040517f08c379a00000000000000000000000000000000000000000000000000000000081526004016109cc906144f3565b60405180910390fd5b50565b60006005600083815260200190815260200160002060008473ffffffffffffffffffffffffffffffffffffffff1673ffffffffffffffffffffffffffffffffffffffff16815260200190815260200160002054905092915050565b60008060046000848152602001908152602001600020600701805490509050600080600090505b82811015610add57610abd600460008781526020019081526020016000206007018281548110610a8d57610a8c614430565b5b9060005260206000200160009054906101000a900473ffffffffffffffffffffffffffffffffffffffff16612a29565b82610ac89190614390565b91508080610ad59061445f565b915050610a5a565b508092505050919050565b60606000602867ffffffffffffffff811115610b0757610b06613a76565b5b604051908082528060200260200182016040528015610b355781602001602082028036833780820191505090505b5090506000600190505b6028811015610b8357610b518161276c565b828281518110610b6457610b63614430565b5b6020026020010181815250508080610b7b9061445f565b915050610b3f565b508091505090565b610b936134da565b6000808373ffffffffffffffffffffffffffffffffffffffff1673ffffffffffffffffffffffffffffffffffffffff1681526020019081526020016000206040518061014001604052908160008201548152602001600182018054610bf790614542565b80601f0160208091040260200160405190810160405280929190818152602001828054610c2390614542565b8015610c705780601f10610c4557610100808354040283529160200191610c70565b820191906000526020600020905b815481529060010190602001808311610c5357829003601f168201915b50505050508152602001600282015481526020016003820154815260200160048201805480602002602001604051908101604052809291908181526020018280548015610cdc57602002820191906000526020600020905b815481526020019060010190808311610cc8575b50505050508152602001600582015481526020016006820154815260200160078201548152602001600882015481526020016009820160009054906101000a900460ff1615151515815250509050919050565b60008060003373ffffffffffffffffffffffffffffffffffffffff1673ffffffffffffffffffffffffffffffffffffffff1681526020019081526020016000206000015403610d7d57600080fd5b3373ffffffffffffffffffffffffffffffffffffffff16600360009054906101000a900473ffffffffffffffffffffffffffffffffffffffff1673ffffffffffffffffffffffffffffffffffffffff16636352211e83600060038110610de657610de5614430565b5b60200201516040518263ffffffff1660e01b8152600401610e07919061372c565b602060405180830381865afa158015610e24573d6000803e3d6000fd5b505050506040513d601f19601f82011682018060405250810190610e489190614588565b73ffffffffffffffffffffffffffffffffffffffff16148015610f4957503373ffffffffffffffffffffffffffffffffffffffff16600360009054906101000a900473ffffffffffffffffffffffffffffffffffffffff1673ffffffffffffffffffffffffffffffffffffffff16636352211e83600160038110610ecf57610ece614430565b5b60200201516040518263ffffffff1660e01b8152600401610ef0919061372c565b602060405180830381865afa158015610f0d573d6000803e3d6000fd5b505050506040513d601f19601f82011682018060405250810190610f319190614588565b73ffffffffffffffffffffffffffffffffffffffff16145b801561103357503373ffffffffffffffffffffffffffffffffffffffff16600360009054906101000a900473ffffffffffffffffffffffffffffffffffffffff1673ffffffffffffffffffffffffffffffffffffffff16636352211e83600260038110610fb957610fb8614430565b5b60200201516040518263ffffffff1660e01b8152600401610fda919061372c565b602060405180830381865afa158015610ff7573d6000803e3d6000fd5b505050506040513d601f19601f8201168201806040525081019061101b9190614588565b73ffffffffffffffffffffffffffffffffffffffff16145b611072576040517f08c379a000000000000000000000000000000000000000000000000000000000815260040161106990614601565b60405180910390fd5b806000803373ffffffffffffffffffffffffffffffffffffffff1673ffffffffffffffffffffffffffffffffffffffff1681526020019081526020016000206004019060036110c292919061352f565b5050565b60006004600083815260200190815260200160002060070180549050905060006004600084815260200190815260200160002060080180549050905060008060008403611367576000806004600088815260200190815260200160002060080160008154811061113957611138614430565b5b9060005260206000200160009054906101000a900473ffffffffffffffffffffffffffffffffffffffff1673ffffffffffffffffffffffffffffffffffffffff1673ffffffffffffffffffffffffffffffffffffffff16815260200190815260200160002060020154600460008781526020019081526020016000206002018190555060005b8381101561131f576001600080600460008a815260200190815260200160002060080184815481106111f4576111f3614430565b5b9060005260206000200160009054906101000a900473ffffffffffffffffffffffffffffffffffffffff1673ffffffffffffffffffffffffffffffffffffffff1673ffffffffffffffffffffffffffffffffffffffff16815260200190815260200160002060090160006101000a81548160ff0219169083151502179055506000806000600460008a815260200190815260200160002060080184815481106112a05761129f614430565b5b9060005260206000200160009054906101000a900473ffffffffffffffffffffffffffffffffffffffff1673ffffffffffffffffffffffffffffffffffffffff1673ffffffffffffffffffffffffffffffffffffffff1681526020019081526020016000206008018190555080806113179061445f565b9150506111bf565b50600460008681526020019081526020016000206008016000611342919061357c565b6000600460008781526020019081526020016000206006018190555050505050611a66565b60005b848110156116495760005b60038110156114f057600360009054906101000a900473ffffffffffffffffffffffffffffffffffffffff1673ffffffffffffffffffffffffffffffffffffffff1663cf5f1626600080600460008c815260200190815260200160002060070186815481106113e7576113e6614430565b5b9060005260206000200160009054906101000a900473ffffffffffffffffffffffffffffffffffffffff1673ffffffffffffffffffffffffffffffffffffffff1673ffffffffffffffffffffffffffffffffffffffff168152602001908152602001600020600401838154811061146157611460614430565b5b90600052602060002001546040518263ffffffff1660e01b8152600401611488919061372c565b608060405180830381865afa1580156114a5573d6000803e3d6000fd5b505050506040513d601f19601f820116820180604052508101906114c991906146df565b6040015160ff16836114db9190614390565b925080806114e89061445f565b915050611375565b506001600080600460008a8152602001908152602001600020600701848154811061151e5761151d614430565b5b9060005260206000200160009054906101000a900473ffffffffffffffffffffffffffffffffffffffff1673ffffffffffffffffffffffffffffffffffffffff1673ffffffffffffffffffffffffffffffffffffffff16815260200190815260200160002060090160006101000a81548160ff0219169083151502179055506000806000600460008a815260200190815260200160002060070184815481106115ca576115c9614430565b5b9060005260206000200160009054906101000a900473ffffffffffffffffffffffffffffffffffffffff1673ffffffffffffffffffffffffffffffffffffffff1673ffffffffffffffffffffffffffffffffffffffff1681526020019081526020016000206008018190555080806116419061445f565b91505061136a565b5060005b8381101561198c5760005b60038110156117d357600360009054906101000a900473ffffffffffffffffffffffffffffffffffffffff1673ffffffffffffffffffffffffffffffffffffffff1663cf5f1626600080600460008c815260200190815260200160002060080186815481106116ca576116c9614430565b5b9060005260206000200160009054906101000a900473ffffffffffffffffffffffffffffffffffffffff1673ffffffffffffffffffffffffffffffffffffffff1673ffffffffffffffffffffffffffffffffffffffff168152602001908152602001600020600401838154811061174457611743614430565b5b90600052602060002001546040518263ffffffff1660e01b815260040161176b919061372c565b608060405180830381865afa158015611788573d6000803e3d6000fd5b505050506040513d601f19601f820116820180604052508101906117ac91906146df565b6020015160ff16846117be9190614390565b935080806117cb9061445f565b915050611658565b506001600080600460008a8152602001908152602001600020600801848154811061180157611800614430565b5b9060005260206000200160009054906101000a900473ffffffffffffffffffffffffffffffffffffffff1673ffffffffffffffffffffffffffffffffffffffff1673ffffffffffffffffffffffffffffffffffffffff16815260200190815260200160002060090160006101000a81548160ff0219169083151502179055506000806000600460008a815260200190815260200160002060080184815481106118ad576118ac614430565b5b9060005260206000200160009054906101000a900473ffffffffffffffffffffffffffffffffffffffff1673ffffffffffffffffffffffffffffffffffffffff1673ffffffffffffffffffffffffffffffffffffffff1681526020019081526020016000206008018190555060046000878152602001908152602001600020600801600061193b919061357c565b60046000878152602001908152602001600020600701600061195d919061357c565b6000600460008881526020019081526020016000206006018190555080806119849061445f565b91505061164d565b5080821115611a6157600080600460008881526020019081526020016000206008016000815481106119c1576119c0614430565b5b9060005260206000200160009054906101000a900473ffffffffffffffffffffffffffffffffffffffff1673ffffffffffffffffffffffffffffffffffffffff1673ffffffffffffffffffffffffffffffffffffffff168152602001908152602001600020600201546004600087815260200190815260200160002060020181905550600060046000878152602001908152602001600020600601819055505b505050505b50565b60008060003373ffffffffffffffffffffffffffffffffffffffff1673ffffffffffffffffffffffffffffffffffffffff1681526020019081526020016000206008015414611aed576040517f08c379a0000000000000000000000000000000000000000000000000000000008152600401611ae490614758565b60405180910390fd5b600015156000803373ffffffffffffffffffffffffffffffffffffffff1673ffffffffffffffffffffffffffffffffffffffff16815260200190815260200160002060090160009054906101000a900460ff16151514611b82576040517f08c379a0000000000000000000000000000000000000000000000000000000008152600401611b79906147c4565b60405180910390fd5b60036000803373ffffffffffffffffffffffffffffffffffffffff1673ffffffffffffffffffffffffffffffffffffffff1681526020019081526020016000206004018054905014611c09576040517f08c379a0000000000000000000000000000000000000000000000000000000008152600401611c0090614856565b60405180910390fd5b60008060003373ffffffffffffffffffffffffffffffffffffffff1673ffffffffffffffffffffffffffffffffffffffff1681526020019081526020016000206005015490506000600460008381526020019081526020016000206006015403611cca576000803373ffffffffffffffffffffffffffffffffffffffff1673ffffffffffffffffffffffffffffffffffffffff1681526020019081526020016000206002015460046000838152602001908152602001600020600601819055505b611cd38161276c565b6000803373ffffffffffffffffffffffffffffffffffffffff1673ffffffffffffffffffffffffffffffffffffffff1681526020019081526020016000206002015403611ddd5760046000828152602001908152602001600020600701339080600181540180825580915050600190039060005260206000200160009091909190916101000a81548173ffffffffffffffffffffffffffffffffffffffff021916908373ffffffffffffffffffffffffffffffffffffffff16021790555060008060003373ffffffffffffffffffffffffffffffffffffffff1673ffffffffffffffffffffffffffffffffffffffff16815260200190815260200160002060080181905550611f39565b6000803373ffffffffffffffffffffffffffffffffffffffff1673ffffffffffffffffffffffffffffffffffffffff16815260200190815260200160002060020154600460008381526020019081526020016000206006015403611efd5760046000828152602001908152602001600020600801339080600181540180825580915050600190039060005260206000200160009091909190916101000a81548173ffffffffffffffffffffffffffffffffffffffff021916908373ffffffffffffffffffffffffffffffffffffffff160217905550426000803373ffffffffffffffffffffffffffffffffffffffff1673ffffffffffffffffffffffffffffffffffffffff16815260200190815260200160002060080181905550611f38565b6040517f08c379a0000000000000000000000000000000000000000000000000000000008152600401611f2f906148c2565b60405180910390fd5b5b50565b6005602052816000526040600020602052806000526040600020600091509150505481565b60011515600460008060003373ffffffffffffffffffffffffffffffffffffffff1673ffffffffffffffffffffffffffffffffffffffff16815260200190815260200160002060050154815260200190815260200160002060050160009054906101000a900460ff16151514611fd657600080fd5b60008060003373ffffffffffffffffffffffffffffffffffffffff1673ffffffffffffffffffffffffffffffffffffffff16815260200190815260200160002060090160006101000a81548160ff021916908315150217905550565b60606000602767ffffffffffffffff81111561205157612050613a76565b5b60405190808252806020026020018201604052801561208a57816020015b61207761359d565b81526020019060019003908161206f5790505b5090506000600190505b602881101561235c576004600082815260200190815260200160002060405180610120016040529081600082015481526020016001820180546120d690614542565b80601f016020809104026020016040519081016040528092919081815260200182805461210290614542565b801561214f5780601f106121245761010080835404028352916020019161214f565b820191906000526020600020905b81548152906001019060200180831161213257829003601f168201915b505050505081526020016002820154815260200160038201548152602001600482018054806020026020016040519081016040528092919081815260200182805480156121e157602002820191906000526020600020906000905b82829054906101000a900460ff1660ff16815260200190600101906020826000010492830192600103820291508084116121aa5790505b505050505081526020016005820160009054906101000a900460ff16151515158152602001600682015481526020016007820180548060200260200160405190810160405280929190818152602001828054801561229457602002820191906000526020600020905b8160009054906101000a900473ffffffffffffffffffffffffffffffffffffffff1673ffffffffffffffffffffffffffffffffffffffff168152602001906001019080831161224a575b505050505081526020016008820180548060200260200160405190810160405280929190818152602001828054801561232257602002820191906000526020600020905b8160009054906101000a900473ffffffffffffffffffffffffffffffffffffffff1673ffffffffffffffffffffffffffffffffffffffff16815260200190600101908083116122d8575b50505050508152505082828151811061233e5761233d614430565b5b602002602001018190525080806123549061445f565b915050612094565b508091505090565b60008060005b600381101561249357600360009054906101000a900473ffffffffffffffffffffffffffffffffffffffff1673ffffffffffffffffffffffffffffffffffffffff1663cf5f16266000808773ffffffffffffffffffffffffffffffffffffffff1673ffffffffffffffffffffffffffffffffffffffff168152602001908152602001600020600401838154811061240457612403614430565b5b90600052602060002001546040518263ffffffff1660e01b815260040161242b919061372c565b608060405180830381865afa158015612448573d6000803e3d6000fd5b505050506040513d601f19601f8201168201806040525081019061246c91906146df565b6020015160ff168261247e9190614390565b9150808061248b9061445f565b91505061236a565b5080915050919050565b60016124aa3360036109d8565b116124ea576040517f08c379a00000000000000000000000000000000000000000000000000000000081526004016124e19061492e565b60405180910390fd5b600360009054906101000a900473ffffffffffffffffffffffffffffffffffffffff1673ffffffffffffffffffffffffffffffffffffffff1663d8ad35c3826040518263ffffffff1660e01b8152600401612545919061372c565b600060405180830381600087803b15801561255f57600080fd5b505af1158015612573573d6000803e3d6000fd5b5050505050565b60008060003373ffffffffffffffffffffffffffffffffffffffff1673ffffffffffffffffffffffffffffffffffffffff16815260200190815260200160002060070154146125c857600080fd5b60008060003373ffffffffffffffffffffffffffffffffffffffff1673ffffffffffffffffffffffffffffffffffffffff168152602001908152602001600020600801541461261657600080fd5b6000803373ffffffffffffffffffffffffffffffffffffffff1673ffffffffffffffffffffffffffffffffffffffff1681526020019081526020016000206002015460046000838152602001908152602001600020600201541461267957600080fd5b806000803373ffffffffffffffffffffffffffffffffffffffff1673ffffffffffffffffffffffffffffffffffffffff1681526020019081526020016000206005018190555050565b60606000600467ffffffffffffffff8111156126e1576126e0613a76565b5b60405190808252806020026020018201604052801561270f5781602001602082028036833780820191505090505b5090506000600190505b600481101561275e5761272c84826109d8565b82828151811061273f5761273e614430565b5b60200260200101818152505080806127569061445f565b915050612719565b5080915050919050565b5050565b600060046000838152602001908152602001600020600201549050919050565b61279461359d565b6004600083815260200190815260200160002060405180610120016040529081600082015481526020016001820180546127cd90614542565b80601f01602080910402602001604051908101604052809291908181526020018280546127f990614542565b80156128465780601f1061281b57610100808354040283529160200191612846565b820191906000526020600020905b81548152906001019060200180831161282957829003601f168201915b505050505081526020016002820154815260200160038201548152602001600482018054806020026020016040519081016040528092919081815260200182805480156128d857602002820191906000526020600020906000905b82829054906101000a900460ff1660ff16815260200190600101906020826000010492830192600103820291508084116128a15790505b505050505081526020016005820160009054906101000a900460ff16151515158152602001600682015481526020016007820180548060200260200160405190810160405280929190818152602001828054801561298b57602002820191906000526020600020905b8160009054906101000a900473ffffffffffffffffffffffffffffffffffffffff1673ffffffffffffffffffffffffffffffffffffffff1681526020019060010190808311612941575b5050505050815260200160088201805480602002602001604051908101604052809291908181526020018280548015612a1957602002820191906000526020600020905b8160009054906101000a900473ffffffffffffffffffffffffffffffffffffffff1673ffffffffffffffffffffffffffffffffffffffff16815260200190600101908083116129cf575b5050505050815250509050919050565b60008060005b6003811015612b5857600360009054906101000a900473ffffffffffffffffffffffffffffffffffffffff1673ffffffffffffffffffffffffffffffffffffffff1663cf5f16266000808773ffffffffffffffffffffffffffffffffffffffff1673ffffffffffffffffffffffffffffffffffffffff1681526020019081526020016000206004018381548110612ac957612ac8614430565b5b90600052602060002001546040518263ffffffff1660e01b8152600401612af0919061372c565b608060405180830381865afa158015612b0d573d6000803e3d6000fd5b505050506040513d601f19601f82011682018060405250810190612b3191906146df565b6040015160ff1682612b439190614390565b91508080612b509061445f565b915050612a2f565b5080915050919050565b600360009054906101000a900473ffffffffffffffffffffffffffffffffffffffff1681565b606060046000838152602001908152602001600020600801805480602002602001604051908101604052809291908181526020018280548015612c2057602002820191906000526020600020905b8160009054906101000a900473ffffffffffffffffffffffffffffffffffffffff1673ffffffffffffffffffffffffffffffffffffffff1681526020019060010190808311612bd6575b50505050509050919050565b6001612c393360016109d8565b11612c79576040517f08c379a0000000000000000000000000000000000000000000000000000000008152600401612c709061492e565b60405180910390fd5b60008060003373ffffffffffffffffffffffffffffffffffffffff1673ffffffffffffffffffffffffffffffffffffffff16815260200190815260200160002060090160006101000a81548160ff021916908315150217905550565b6000803373ffffffffffffffffffffffffffffffffffffffff1673ffffffffffffffffffffffffffffffffffffffff16815260200190815260200160002060020154600460008381526020019081526020016000206002015414612d3857600080fd5b60016004600083815260200190815260200160002060050160006101000a81548160ff02191690831515021790555050565b60606000600360009054906101000a900473ffffffffffffffffffffffffffffffffffffffff1673ffffffffffffffffffffffffffffffffffffffff166318160ddd6040518163ffffffff1660e01b8152600401602060405180830381865afa158015612ddb573d6000803e3d6000fd5b505050506040513d601f19601f82011682018060405250810190612dff919061494e565b90506000600360009054906101000a900473ffffffffffffffffffffffffffffffffffffffff1673ffffffffffffffffffffffffffffffffffffffff166370a08231856040518263ffffffff1660e01b8152600401612e5e919061498a565b602060405180830381865afa158015612e7b573d6000803e3d6000fd5b505050506040513d601f19601f82011682018060405250810190612e9f919061494e565b905060008167ffffffffffffffff811115612ebd57612ebc613a76565b5b604051908082528060200260200182016040528015612eeb5781602001602082028036833780820191505090505b509050600080600190505b84811161300d578673ffffffffffffffffffffffffffffffffffffffff16600360009054906101000a900473ffffffffffffffffffffffffffffffffffffffff1673ffffffffffffffffffffffffffffffffffffffff16636352211e836040518263ffffffff1660e01b8152600401612f6f919061372c565b602060405180830381865afa158015612f8c573d6000803e3d6000fd5b505050506040513d601f19601f82011682018060405250810190612fb09190614588565b73ffffffffffffffffffffffffffffffffffffffff1603612ffa5780838381518110612fdf57612fde614430565b5b6020026020010181815250508180612ff69061445f565b9250505b80806130059061445f565b915050612ef6565b5081945050505050919050565b600460205280600052604060002060009150905080600001549080600101805461304390614542565b80601f016020809104026020016040519081016040528092919081815260200182805461306f90614542565b80156130bc5780601f10613091576101008083540402835291602001916130bc565b820191906000526020600020905b81548152906001019060200180831161309f57829003601f168201915b5050505050908060020154908060030154908060050160009054906101000a900460ff16908060060154905086565b6000600190505b602881101561313a5760006004600083815260200190815260200160002060080180549050111561312757613126816110c6565b5b80806131329061445f565b9150506130f2565b50565b6060600460008381526020019081526020016000206007018054806020026020016040519081016040528092919081815260200182805480156131d557602002820191906000526020600020905b8160009054906101000a900473ffffffffffffffffffffffffffffffffffffffff1673ffffffffffffffffffffffffffffffffffffffff168152602001906001019080831161318b575b50505050509050919050565b60606000808373ffffffffffffffffffffffffffffffffffffffff1673ffffffffffffffffffffffffffffffffffffffff16815260200190815260200160002060040180548060200260200160405190810160405280929190818152602001828054801561326e57602002820191906000526020600020905b81548152602001906001019080831161325a575b50505050509050919050565b60008060046000848152602001908152602001600020600801805490509050600080600090505b82811015613324576133046004600087815260200190815260200160002060080182815481106132d4576132d3614430565b5b9060005260206000200160009054906101000a900473ffffffffffffffffffffffffffffffffffffffff16612364565b8261330f9190614390565b9150808061331c9061445f565b9150506132a1565b508092505050919050565b60008060003373ffffffffffffffffffffffffffffffffffffffff1673ffffffffffffffffffffffffffffffffffffffff16815260200190815260200160002060000154146133b3576040517f08c379a00000000000000000000000000000000000000000000000000000000081526004016133aa906149f1565b60405180910390fd5b60006133c16001600361348e565b60ff16905060008060003373ffffffffffffffffffffffffffffffffffffffff1673ffffffffffffffffffffffffffffffffffffffff16815260200190815260200160002090506002600081548092919061341b9061445f565b919050555060025481600001819055508281600101908161343c9190614bb3565b508181600201819055506001820361345d5760018160050181905550613489565b600282036134745760118160050181905550613488565b6003820361348757601781600501819055505b5b5b505050565b6000828242336040516020016134a5929190614cee565b6040516020818303038152906040528051906020012060001c6134c89190614d49565b6134d29190614d7a565b905092915050565b6040518061014001604052806000815260200160608152602001600081526020016000815260200160608152602001600081526020016000815260200160008152602001600081526020016000151581525090565b82805482825590600052602060002090810192821561356b579160200282015b8281111561356a57825182559160200191906001019061354f565b5b50905061357891906135eb565b5090565b508054600082559060005260206000209081019061359a91906135eb565b50565b60405180610120016040528060008152602001606081526020016000815260200160008152602001606081526020016000151581526020016000815260200160608152602001606081525090565b5b808211156136045760008160009055506001016135ec565b5090565b6000604051905090565b600080fd5b600080fd5b6000819050919050565b61362f8161361c565b811461363a57600080fd5b50565b60008135905061364c81613626565b92915050565b60006020828403121561366857613667613612565b5b60006136768482850161363d565b91505092915050565b600073ffffffffffffffffffffffffffffffffffffffff82169050919050565b60006136aa8261367f565b9050919050565b6136ba8161369f565b81146136c557600080fd5b50565b6000813590506136d7816136b1565b92915050565b600080604083850312156136f4576136f3613612565b5b6000613702858286016136c8565b92505060206137138582860161363d565b9150509250929050565b6137268161361c565b82525050565b6000602082019050613741600083018461371d565b92915050565b600081519050919050565b600082825260208201905092915050565b6000819050602082019050919050565b61377c8161361c565b82525050565b600061378e8383613773565b60208301905092915050565b6000602082019050919050565b60006137b282613747565b6137bc8185613752565b93506137c783613763565b8060005b838110156137f85781516137df8882613782565b97506137ea8361379a565b9250506001810190506137cb565b5085935050505092915050565b6000602082019050818103600083015261381f81846137a7565b905092915050565b60006020828403121561383d5761383c613612565b5b600061384b848285016136c8565b91505092915050565b600081519050919050565b600082825260208201905092915050565b60005b8381101561388e578082015181840152602081019050613873565b60008484015250505050565b6000601f19601f8301169050919050565b60006138b682613854565b6138c0818561385f565b93506138d0818560208601613870565b6138d98161389a565b840191505092915050565b600082825260208201905092915050565b600061390082613747565b61390a81856138e4565b935061391583613763565b8060005b8381101561394657815161392d8882613782565b97506139388361379a565b925050600181019050613919565b5085935050505092915050565b60008115159050919050565b61396881613953565b82525050565b6000610140830160008301516139876000860182613773565b506020830151848203602086015261399f82826138ab565b91505060408301516139b46040860182613773565b5060608301516139c76060860182613773565b50608083015184820360808601526139df82826138f5565b91505060a08301516139f460a0860182613773565b5060c0830151613a0760c0860182613773565b5060e0830151613a1a60e0860182613773565b50610100830151613a2f610100860182613773565b50610120830151613a4461012086018261395f565b508091505092915050565b60006020820190508181036000830152613a69818461396e565b905092915050565b600080fd5b7f4e487b7100000000000000000000000000000000000000000000000000000000600052604160045260246000fd5b613aae8261389a565b810181811067ffffffffffffffff82111715613acd57613acc613a76565b5b80604052505050565b6000613ae0613608565b9050613aec8282613aa5565b919050565b600067ffffffffffffffff821115613b0c57613b0b613a76565b5b602082029050919050565b600080fd5b6000613b2f613b2a84613af1565b613ad6565b90508060208402830185811115613b4957613b48613b17565b5b835b81811015613b725780613b5e888261363d565b845260208401935050602081019050613b4b565b5050509392505050565b600082601f830112613b9157613b90613a71565b5b6003613b9e848285613b1c565b91505092915050565b600060608284031215613bbd57613bbc613612565b5b6000613bcb84828501613b7c565b91505092915050565b60008060408385031215613beb57613bea613612565b5b6000613bf98582860161363d565b9250506020613c0a858286016136c8565b9150509250929050565b600081519050919050565b600082825260208201905092915050565b6000819050602082019050919050565b600081519050919050565b600082825260208201905092915050565b6000819050602082019050919050565b600060ff82169050919050565b613c8281613c6c565b82525050565b6000613c948383613c79565b60208301905092915050565b6000602082019050919050565b6000613cb882613c40565b613cc28185613c4b565b9350613ccd83613c5c565b8060005b83811015613cfe578151613ce58882613c88565b9750613cf083613ca0565b925050600181019050613cd1565b5085935050505092915050565b600081519050919050565b600082825260208201905092915050565b6000819050602082019050919050565b613d408161369f565b82525050565b6000613d528383613d37565b60208301905092915050565b6000602082019050919050565b6000613d7682613d0b565b613d808185613d16565b9350613d8b83613d27565b8060005b83811015613dbc578151613da38882613d46565b9750613dae83613d5e565b925050600181019050613d8f565b5085935050505092915050565b600061012083016000830151613de26000860182613773565b5060208301518482036020860152613dfa82826138ab565b9150506040830151613e0f6040860182613773565b506060830151613e226060860182613773565b5060808301518482036080860152613e3a8282613cad565b91505060a0830151613e4f60a086018261395f565b5060c0830151613e6260c0860182613773565b5060e083015184820360e0860152613e7a8282613d6b565b915050610100830151848203610100860152613e968282613d6b565b9150508091505092915050565b6000613eaf8383613dc9565b905092915050565b6000602082019050919050565b6000613ecf82613c14565b613ed98185613c1f565b935083602082028501613eeb85613c30565b8060005b85811015613f275784840389528151613f088582613ea3565b9450613f1383613eb7565b925060208a01995050600181019050613eef565b50829750879550505050505092915050565b60006020820190508181036000830152613f538184613ec4565b905092915050565b60008060408385031215613f7257613f71613612565b5b6000613f808582860161363d565b9250506020613f918582860161363d565b9150509250929050565b600061012083016000830151613fb46000860182613773565b5060208301518482036020860152613fcc82826138ab565b9150506040830151613fe16040860182613773565b506060830151613ff46060860182613773565b506080830151848203608086015261400c8282613cad565b91505060a083015161402160a086018261395f565b5060c083015161403460c0860182613773565b5060e083015184820360e086015261404c8282613d6b565b9150506101008301518482036101008601526140688282613d6b565b9150508091505092915050565b6000602082019050818103600083015261408f8184613f9b565b905092915050565b6000819050919050565b60006140bc6140b76140b28461367f565b614097565b61367f565b9050919050565b60006140ce826140a1565b9050919050565b60006140e0826140c3565b9050919050565b6140f0816140d5565b82525050565b600060208201905061410b60008301846140e7565b92915050565b600082825260208201905092915050565b600061412d82613d0b565b6141378185614111565b935061414283613d27565b8060005b8381101561417357815161415a8882613d46565b975061416583613d5e565b925050600181019050614146565b5085935050505092915050565b6000602082019050818103600083015261419a8184614122565b905092915050565b600082825260208201905092915050565b60006141be82613854565b6141c881856141a2565b93506141d8818560208601613870565b6141e18161389a565b840191505092915050565b6141f581613953565b82525050565b600060c082019050614210600083018961371d565b818103602083015261422281886141b3565b9050614231604083018761371d565b61423e606083018661371d565b61424b60808301856141ec565b61425860a083018461371d565b979650505050505050565b600080fd5b600067ffffffffffffffff82111561428357614282613a76565b5b61428c8261389a565b9050602081019050919050565b82818337600083830152505050565b60006142bb6142b684614268565b613ad6565b9050828152602081018484840111156142d7576142d6614263565b5b6142e2848285614299565b509392505050565b600082601f8301126142ff576142fe613a71565b5b813561430f8482602086016142a8565b91505092915050565b60006020828403121561432e5761432d613612565b5b600082013567ffffffffffffffff81111561434c5761434b613617565b5b614358848285016142ea565b91505092915050565b7f4e487b7100000000000000000000000000000000000000000000000000000000600052601160045260246000fd5b600061439b8261361c565b91506143a68361361c565b92508282019050808211156143be576143bd614361565b5b92915050565b7f796f752068617665206265656e20696e2041747461636b000000000000000000600082015250565b60006143fa6017836141a2565b9150614405826143c4565b602082019050919050565b60006020820190508181036000830152614429816143ed565b9050919050565b7f4e487b7100000000000000000000000000000000000000000000000000000000600052603260045260246000fd5b600061446a8261361c565b91507fffffffffffffffffffffffffffffffffffffffffffffffffffffffffffffffff820361449c5761449b614361565b5b600182019050919050565b7f696e76616c696420646972656374696f6e000000000000000000000000000000600082015250565b60006144dd6011836141a2565b91506144e8826144a7565b602082019050919050565b6000602082019050818103600083015261450c816144d0565b9050919050565b7f4e487b7100000000000000000000000000000000000000000000000000000000600052602260045260246000fd5b6000600282049050600182168061455a57607f821691505b60208210810361456d5761456c614513565b5b50919050565b600081519050614582816136b1565b92915050565b60006020828403121561459e5761459d613612565b5b60006145ac84828501614573565b91505092915050565b7f796f7520617265206e6f7420746865206f776e65720000000000000000000000600082015250565b60006145eb6015836141a2565b91506145f6826145b5565b602082019050919050565b6000602082019050818103600083015261461a816145de565b9050919050565b600080fd5b60008151905061463581613626565b92915050565b61464481613c6c565b811461464f57600080fd5b50565b6000815190506146618161463b565b92915050565b60006080828403121561467d5761467c614621565b5b6146876080613ad6565b9050600061469784828501614626565b60008301525060206146ab84828501614652565b60208301525060406146bf84828501614652565b60408301525060606146d384828501614652565b60608301525092915050565b6000608082840312156146f5576146f4613612565b5b600061470384828501614667565b91505092915050565b7f796f752061726520616c7265616479206465706c6f7965640000000000000000600082015250565b60006147426018836141a2565b915061474d8261470c565b602082019050919050565b6000602082019050818103600083015261477181614735565b9050919050565b7f796f75722077617272696f727320617265207469726564000000000000000000600082015250565b60006147ae6017836141a2565b91506147b982614778565b602082019050919050565b600060208201905081810360008301526147dd816147a1565b9050919050565b7f796f7520646f6e2774206861766520616e792074726f6f707320746f2064657060008201527f6c6f790000000000000000000000000000000000000000000000000000000000602082015250565b60006148406023836141a2565b915061484b826147e4565b604082019050919050565b6000602082019050818103600083015261486f81614833565b9050919050565b7f63616e6e6f74206465706c6f7920686572650000000000000000000000000000600082015250565b60006148ac6012836141a2565b91506148b782614876565b602082019050919050565b600060208201905081810360008301526148db8161489f565b9050919050565b7f796f752068617665206e6f7420676f742074686973206974656d000000000000600082015250565b6000614918601a836141a2565b9150614923826148e2565b602082019050919050565b600060208201905081810360008301526149478161490b565b9050919050565b60006020828403121561496457614963613612565b5b600061497284828501614626565b91505092915050565b6149848161369f565b82525050565b600060208201905061499f600083018461497b565b92915050565b7f796f752061726520616c72656164792072656769737465726564000000000000600082015250565b60006149db601a836141a2565b91506149e6826149a5565b602082019050919050565b60006020820190508181036000830152614a0a816149ce565b9050919050565b60008190508160005260206000209050919050565b60006020601f8301049050919050565b600082821b905092915050565b600060088302614a737fffffffffffffffffffffffffffffffffffffffffffffffffffffffffffffffff82614a36565b614a7d8683614a36565b95508019841693508086168417925050509392505050565b6000614ab0614aab614aa68461361c565b614097565b61361c565b9050919050565b6000819050919050565b614aca83614a95565b614ade614ad682614ab7565b848454614a43565b825550505050565b600090565b614af3614ae6565b614afe818484614ac1565b505050565b5b81811015614b2257614b17600082614aeb565b600181019050614b04565b5050565b601f821115614b6757614b3881614a11565b614b4184614a26565b81016020851015614b50578190505b614b64614b5c85614a26565b830182614b03565b50505b505050565b600082821c905092915050565b6000614b8a60001984600802614b6c565b1980831691505092915050565b6000614ba38383614b79565b9150826002028217905092915050565b614bbc82613854565b67ffffffffffffffff811115614bd557614bd4613a76565b5b614bdf8254614542565b614bea828285614b26565b600060209050601f831160018114614c1d5760008415614c0b578287015190505b614c158582614b97565b865550614c7d565b601f198416614c2b86614a11565b60005b82811015614c5357848901518255600182019150602085019450602081019050614c2e565b86831015614c705784890151614c6c601f891682614b79565b8355505b6001600288020188555050505b505050505050565b6000819050919050565b614ca0614c9b8261361c565b614c85565b82525050565b60008160601b9050919050565b6000614cbe82614ca6565b9050919050565b6000614cd082614cb3565b9050919050565b614ce8614ce38261369f565b614cc5565b82525050565b6000614cfa8285614c8f565b602082019150614d0a8284614cd7565b6014820191508190509392505050565b7f4e487b7100000000000000000000000000000000000000000000000000000000600052601260045260246000fd5b6000614d5482613c6c565b9150614d5f83613c6c565b925082614d6f57614d6e614d1a565b5b828206905092915050565b6000614d8582613c6c565b9150614d9083613c6c565b9250828201905060ff811115614da957614da8614361565b5b9291505056fea2646970667358221220f458b80d184f0a058e4e35c62095dec38e60ca7b7a673c2f32a8859b2e9150d564736f6c63430008110033",
  "linkReferences": {},
  "deployedLinkReferences": {}
}