{
  "_format": "hh-sol-artifact-1",
  "contractName": "Samurai",
  "sourceName": "contracts/Samurai.sol",
  "abi": [
    {
      "inputs": [],
      "stateMutability": "nonpayable",
      "type": "constructor"
    },
    {
      "anonymous": false,
      "inputs": [
        {
          "indexed": true,
          "internalType": "address",
          "name": "owner",
          "type": "address"
        },
        {
          "indexed": true,
          "internalType": "address",
          "name": "approved",
          "type": "address"
        },
        {
          "indexed": true,
          "internalType": "uint256",
          "name": "tokenId",
          "type": "uint256"
        }
      ],
      "name": "Approval",
      "type": "event"
    },
    {
      "anonymous": false,
      "inputs": [
        {
          "indexed": true,
          "internalType": "address",
          "name": "owner",
          "type": "address"
        },
        {
          "indexed": true,
          "internalType": "address",
          "name": "operator",
          "type": "address"
        },
        {
          "indexed": false,
          "internalType": "bool",
          "name": "approved",
          "type": "bool"
        }
      ],
      "name": "ApprovalForAll",
      "type": "event"
    },
    {
      "anonymous": false,
      "inputs": [
        {
          "indexed": true,
          "internalType": "address",
          "name": "previousOwner",
          "type": "address"
        },
        {
          "indexed": true,
          "internalType": "address",
          "name": "newOwner",
          "type": "address"
        }
      ],
      "name": "OwnershipTransferred",
      "type": "event"
    },
    {
      "anonymous": false,
      "inputs": [
        {
          "indexed": true,
          "internalType": "address",
          "name": "from",
          "type": "address"
        },
        {
          "indexed": true,
          "internalType": "address",
          "name": "to",
          "type": "address"
        },
        {
          "indexed": true,
          "internalType": "uint256",
          "name": "tokenId",
          "type": "uint256"
        }
      ],
      "name": "Transfer",
      "type": "event"
    },
    {
      "inputs": [
        {
          "internalType": "address",
          "name": "to",
          "type": "address"
        },
        {
          "internalType": "uint256",
          "name": "tokenId",
          "type": "uint256"
        }
      ],
      "name": "approve",
      "outputs": [],
      "stateMutability": "nonpayable",
      "type": "function"
    },
    {
      "inputs": [
        {
          "internalType": "address",
          "name": "owner",
          "type": "address"
        }
      ],
      "name": "balanceOf",
      "outputs": [
        {
          "internalType": "uint256",
          "name": "",
          "type": "uint256"
        }
      ],
      "stateMutability": "view",
      "type": "function"
    },
    {
      "inputs": [
        {
          "internalType": "uint256",
          "name": "tokenId",
          "type": "uint256"
        }
      ],
      "name": "getApproved",
      "outputs": [
        {
          "internalType": "address",
          "name": "",
          "type": "address"
        }
      ],
      "stateMutability": "view",
      "type": "function"
    },
    {
      "inputs": [
        {
          "internalType": "uint256",
          "name": "",
          "type": "uint256"
        }
      ],
      "name": "idToSamurai",
      "outputs": [
        {
          "internalType": "uint256",
          "name": "ID",
          "type": "uint256"
        },
        {
          "internalType": "uint8",
          "name": "attack",
          "type": "uint8"
        },
        {
          "internalType": "uint8",
          "name": "defence",
          "type": "uint8"
        },
        {
          "internalType": "uint8",
          "name": "manaCost",
          "type": "uint8"
        }
      ],
      "stateMutability": "view",
      "type": "function"
    },
    {
      "inputs": [
        {
          "internalType": "address",
          "name": "owner",
          "type": "address"
        },
        {
          "internalType": "address",
          "name": "operator",
          "type": "address"
        }
      ],
      "name": "isApprovedForAll",
      "outputs": [
        {
          "internalType": "bool",
          "name": "",
          "type": "bool"
        }
      ],
      "stateMutability": "view",
      "type": "function"
    },
    {
      "inputs": [
        {
          "internalType": "uint256",
          "name": "_ID",
          "type": "uint256"
        }
      ],
      "name": "kinjutsu",
      "outputs": [],
      "stateMutability": "nonpayable",
      "type": "function"
    },
    {
      "inputs": [],
      "name": "name",
      "outputs": [
        {
          "internalType": "string",
          "name": "",
          "type": "string"
        }
      ],
      "stateMutability": "view",
      "type": "function"
    },
    {
      "inputs": [],
      "name": "owner",
      "outputs": [
        {
          "internalType": "address",
          "name": "",
          "type": "address"
        }
      ],
      "stateMutability": "view",
      "type": "function"
    },
    {
      "inputs": [
        {
          "internalType": "uint256",
          "name": "tokenId",
          "type": "uint256"
        }
      ],
      "name": "ownerOf",
      "outputs": [
        {
          "internalType": "address",
          "name": "",
          "type": "address"
        }
      ],
      "stateMutability": "view",
      "type": "function"
    },
    {
      "inputs": [],
      "name": "renounceOwnership",
      "outputs": [],
      "stateMutability": "nonpayable",
      "type": "function"
    },
    {
      "inputs": [
        {
          "internalType": "address",
          "name": "to",
          "type": "address"
        },
        {
          "internalType": "string",
          "name": "uri",
          "type": "string"
        }
      ],
      "name": "safeMint",
      "outputs": [],
      "stateMutability": "nonpayable",
      "type": "function"
    },
    {
      "inputs": [
        {
          "internalType": "address",
          "name": "from",
          "type": "address"
        },
        {
          "internalType": "address",
          "name": "to",
          "type": "address"
        },
        {
          "internalType": "uint256",
          "name": "tokenId",
          "type": "uint256"
        }
      ],
      "name": "safeTransferFrom",
      "outputs": [],
      "stateMutability": "nonpayable",
      "type": "function"
    },
    {
      "inputs": [
        {
          "internalType": "address",
          "name": "from",
          "type": "address"
        },
        {
          "internalType": "address",
          "name": "to",
          "type": "address"
        },
        {
          "internalType": "uint256",
          "name": "tokenId",
          "type": "uint256"
        },
        {
          "internalType": "bytes",
          "name": "data",
          "type": "bytes"
        }
      ],
      "name": "safeTransferFrom",
      "outputs": [],
      "stateMutability": "nonpayable",
      "type": "function"
    },
    {
      "inputs": [
        {
          "internalType": "address",
          "name": "operator",
          "type": "address"
        },
        {
          "internalType": "bool",
          "name": "approved",
          "type": "bool"
        }
      ],
      "name": "setApprovalForAll",
      "outputs": [],
      "stateMutability": "nonpayable",
      "type": "function"
    },
    {
      "inputs": [
        {
          "internalType": "bytes4",
          "name": "interfaceId",
          "type": "bytes4"
        }
      ],
      "name": "supportsInterface",
      "outputs": [
        {
          "internalType": "bool",
          "name": "",
          "type": "bool"
        }
      ],
      "stateMutability": "view",
      "type": "function"
    },
    {
      "inputs": [],
      "name": "symbol",
      "outputs": [
        {
          "internalType": "string",
          "name": "",
          "type": "string"
        }
      ],
      "stateMutability": "view",
      "type": "function"
    },
    {
      "inputs": [
        {
          "internalType": "uint256",
          "name": "index",
          "type": "uint256"
        }
      ],
      "name": "tokenByIndex",
      "outputs": [
        {
          "internalType": "uint256",
          "name": "",
          "type": "uint256"
        }
      ],
      "stateMutability": "view",
      "type": "function"
    },
    {
      "inputs": [
        {
          "internalType": "address",
          "name": "owner",
          "type": "address"
        },
        {
          "internalType": "uint256",
          "name": "index",
          "type": "uint256"
        }
      ],
      "name": "tokenOfOwnerByIndex",
      "outputs": [
        {
          "internalType": "uint256",
          "name": "",
          "type": "uint256"
        }
      ],
      "stateMutability": "view",
      "type": "function"
    },
    {
      "inputs": [
        {
          "internalType": "uint256",
          "name": "tokenId",
          "type": "uint256"
        }
      ],
      "name": "tokenURI",
      "outputs": [
        {
          "internalType": "string",
          "name": "",
          "type": "string"
        }
      ],
      "stateMutability": "view",
      "type": "function"
    },
    {
      "inputs": [],
      "name": "totalSupply",
      "outputs": [
        {
          "internalType": "uint256",
          "name": "",
          "type": "uint256"
        }
      ],
      "stateMutability": "view",
      "type": "function"
    },
    {
      "inputs": [
        {
          "internalType": "address",
          "name": "from",
          "type": "address"
        },
        {
          "internalType": "address",
          "name": "to",
          "type": "address"
        },
        {
          "internalType": "uint256",
          "name": "tokenId",
          "type": "uint256"
        }
      ],
      "name": "transferFrom",
      "outputs": [],
      "stateMutability": "nonpayable",
      "type": "function"
    },
    {
      "inputs": [
        {
          "internalType": "address",
          "name": "newOwner",
          "type": "address"
        }
      ],
      "name": "transferOwnership",
      "outputs": [],
      "stateMutability": "nonpayable",
      "type": "function"
    },
    {
      "inputs": [
        {
          "internalType": "uint256",
          "name": "_id",
          "type": "uint256"
        }
      ],
      "name": "viewHero",
      "outputs": [
        {
          "components": [
            {
              "internalType": "uint256",
              "name": "ID",
              "type": "uint256"
            },
            {
              "internalType": "uint8",
              "name": "attack",
              "type": "uint8"
            },
            {
              "internalType": "uint8",
              "name": "defence",
              "type": "uint8"
            },
            {
              "internalType": "uint8",
              "name": "manaCost",
              "type": "uint8"
            }
          ],
          "internalType": "struct Samurai.Hero",
          "name": "",
          "type": "tuple"
        }
      ],
      "stateMutability": "view",
      "type": "function"
    }
  ],
  "bytecode": "0x60806040523480156200001157600080fd5b506040518060400160405280600781526020017f53616d75726169000000000000000000000000000000000000000000000000008152506040518060400160405280600581526020017f534d52414900000000000000000000000000000000000000000000000000000081525081600090816200008f919062000412565b508060019081620000a1919062000412565b505050620000c4620000b8620000ca60201b60201c565b620000d260201b60201c565b620004f9565b600033905090565b6000600b60009054906101000a900473ffffffffffffffffffffffffffffffffffffffff16905081600b60006101000a81548173ffffffffffffffffffffffffffffffffffffffff021916908373ffffffffffffffffffffffffffffffffffffffff1602179055508173ffffffffffffffffffffffffffffffffffffffff168173ffffffffffffffffffffffffffffffffffffffff167f8be0079c531659141344cd1fd0a4f28419497f9722a3daafe3b4186f6b6457e060405160405180910390a35050565b600081519050919050565b7f4e487b7100000000000000000000000000000000000000000000000000000000600052604160045260246000fd5b7f4e487b7100000000000000000000000000000000000000000000000000000000600052602260045260246000fd5b600060028204905060018216806200021a57607f821691505b60208210810362000230576200022f620001d2565b5b50919050565b60008190508160005260206000209050919050565b60006020601f8301049050919050565b600082821b905092915050565b6000600883026200029a7fffffffffffffffffffffffffffffffffffffffffffffffffffffffffffffffff826200025b565b620002a686836200025b565b95508019841693508086168417925050509392505050565b6000819050919050565b6000819050919050565b6000620002f3620002ed620002e784620002be565b620002c8565b620002be565b9050919050565b6000819050919050565b6200030f83620002d2565b620003276200031e82620002fa565b84845462000268565b825550505050565b600090565b6200033e6200032f565b6200034b81848462000304565b505050565b5b8181101562000373576200036760008262000334565b60018101905062000351565b5050565b601f821115620003c2576200038c8162000236565b62000397846200024b565b81016020851015620003a7578190505b620003bf620003b6856200024b565b83018262000350565b50505b505050565b600082821c905092915050565b6000620003e760001984600802620003c7565b1980831691505092915050565b6000620004028383620003d4565b9150826002028217905092915050565b6200041d8262000198565b67ffffffffffffffff811115620004395762000438620001a3565b5b62000445825462000201565b6200045282828562000377565b600060209050601f8311600181146200048a576000841562000475578287015190505b620004818582620003f4565b865550620004f1565b601f1984166200049a8662000236565b60005b82811015620004c4578489015182556001820191506020850194506020810190506200049d565b86831015620004e45784890151620004e0601f891682620003d4565b8355505b6001600288020188555050505b505050505050565b61405980620005096000396000f3fe608060405234801561001057600080fd5b506004361061014d5760003560e01c806370a08231116100c3578063c87b56dd1161007c578063c87b56dd146103b3578063cf5f1626146103e3578063d204c45e14610413578063d8ad35c31461042f578063e985e9c51461044b578063f2fde38b1461047b5761014d565b806370a0823114610305578063715018a6146103355780638da5cb5b1461033f57806395d89b411461035d578063a22cb4651461037b578063b88d4fde146103975761014d565b806323b872dd1161011557806323b872dd1461020a57806326f11a36146102265780632f745c591461025957806342842e0e146102895780634f6ccce7146102a55780636352211e146102d55761014d565b806301ffc9a71461015257806306fdde0314610182578063081812fc146101a0578063095ea7b3146101d057806318160ddd146101ec575b600080fd5b61016c60048036038101906101679190612831565b610497565b6040516101799190612879565b60405180910390f35b61018a6104a9565b6040516101979190612924565b60405180910390f35b6101ba60048036038101906101b5919061297c565b61053b565b6040516101c791906129ea565b60405180910390f35b6101ea60048036038101906101e59190612a31565b610581565b005b6101f4610698565b6040516102019190612a80565b60405180910390f35b610224600480360381019061021f9190612a9b565b6106a5565b005b610240600480360381019061023b919061297c565b610705565b6040516102509493929190612b0a565b60405180910390f35b610273600480360381019061026e9190612a31565b61075c565b6040516102809190612a80565b60405180910390f35b6102a3600480360381019061029e9190612a9b565b610801565b005b6102bf60048036038101906102ba919061297c565b610821565b6040516102cc9190612a80565b60405180910390f35b6102ef60048036038101906102ea919061297c565b610892565b6040516102fc91906129ea565b60405180910390f35b61031f600480360381019061031a9190612b4f565b610918565b60405161032c9190612a80565b60405180910390f35b61033d6109cf565b005b6103476109e3565b60405161035491906129ea565b60405180910390f35b610365610a0d565b6040516103729190612924565b60405180910390f35b61039560048036038101906103909190612ba8565b610a9f565b005b6103b160048036038101906103ac9190612d1d565b610ab5565b005b6103cd60048036038101906103c8919061297c565b610b17565b6040516103da9190612924565b60405180910390f35b6103fd60048036038101906103f8919061297c565b610b29565b60405161040a9190612e13565b60405180910390f35b61042d60048036038101906104289190612ecf565b610bb7565b005b6104496004803603810190610444919061297c565b610cb3565b005b61046560048036038101906104609190612f2b565b610da2565b6040516104729190612879565b60405180910390f35b61049560048036038101906104909190612b4f565b610e36565b005b60006104a282610eb9565b9050919050565b6060600080546104b890612f9a565b80601f01602080910402602001604051908101604052809291908181526020018280546104e490612f9a565b80156105315780601f1061050657610100808354040283529160200191610531565b820191906000526020600020905b81548152906001019060200180831161051457829003601f168201915b5050505050905090565b600061054682610f33565b6004600083815260200190815260200160002060009054906101000a900473ffffffffffffffffffffffffffffffffffffffff169050919050565b600061058c82610892565b90508073ffffffffffffffffffffffffffffffffffffffff168373ffffffffffffffffffffffffffffffffffffffff16036105fc576040517f08c379a00000000000000000000000000000000000000000000000000000000081526004016105f39061303d565b60405180910390fd5b8073ffffffffffffffffffffffffffffffffffffffff1661061b610f7e565b73ffffffffffffffffffffffffffffffffffffffff16148061064a575061064981610644610f7e565b610da2565b5b610689576040517f08c379a0000000000000000000000000000000000000000000000000000000008152600401610680906130cf565b60405180910390fd5b6106938383610f86565b505050565b6000600880549050905090565b6106b66106b0610f7e565b8261103f565b6106f5576040517f08c379a00000000000000000000000000000000000000000000000000000000081526004016106ec90613161565b60405180910390fd5b6107008383836110d4565b505050565b600c6020528060005260406000206000915090508060000154908060010160009054906101000a900460ff16908060010160019054906101000a900460ff16908060010160029054906101000a900460ff16905084565b600061076783610918565b82106107a8576040517f08c379a000000000000000000000000000000000000000000000000000000000815260040161079f906131f3565b60405180910390fd5b600660008473ffffffffffffffffffffffffffffffffffffffff1673ffffffffffffffffffffffffffffffffffffffff168152602001908152602001600020600083815260200190815260200160002054905092915050565b61081c83838360405180602001604052806000815250610ab5565b505050565b600061082b610698565b821061086c576040517f08c379a000000000000000000000000000000000000000000000000000000000815260040161086390613285565b60405180910390fd5b600882815481106108805761087f6132a5565b5b90600052602060002001549050919050565b60008061089e836113cd565b9050600073ffffffffffffffffffffffffffffffffffffffff168173ffffffffffffffffffffffffffffffffffffffff160361090f576040517f08c379a000000000000000000000000000000000000000000000000000000000815260040161090690613320565b60405180910390fd5b80915050919050565b60008073ffffffffffffffffffffffffffffffffffffffff168273ffffffffffffffffffffffffffffffffffffffff1603610988576040517f08c379a000000000000000000000000000000000000000000000000000000000815260040161097f906133b2565b60405180910390fd5b600360008373ffffffffffffffffffffffffffffffffffffffff1673ffffffffffffffffffffffffffffffffffffffff168152602001908152602001600020549050919050565b6109d761140a565b6109e16000611488565b565b6000600b60009054906101000a900473ffffffffffffffffffffffffffffffffffffffff16905090565b606060018054610a1c90612f9a565b80601f0160208091040260200160405190810160405280929190818152602001828054610a4890612f9a565b8015610a955780601f10610a6a57610100808354040283529160200191610a95565b820191906000526020600020905b815481529060010190602001808311610a7857829003601f168201915b5050505050905090565b610ab1610aaa610f7e565b838361154e565b5050565b610ac6610ac0610f7e565b8361103f565b610b05576040517f08c379a0000000000000000000000000000000000000000000000000000000008152600401610afc90613161565b60405180910390fd5b610b11848484846116ba565b50505050565b6060610b2282611716565b9050919050565b610b31612794565b600c6000838152602001908152602001600020604051806080016040529081600082015481526020016001820160009054906101000a900460ff1660ff1660ff1681526020016001820160019054906101000a900460ff1660ff1660ff1681526020016001820160029054906101000a900460ff1660ff1660ff16815250509050919050565b610bbf61140a565b610bc9600d611828565b6000610bd5600d61183e565b90506000806000610be461184c565b92509250925060405180608001604052808581526020018460ff1681526020018360ff1681526020018260ff16815250600c60008681526020019081526020016000206000820151816000015560208201518160010160006101000a81548160ff021916908360ff16021790555060408201518160010160016101000a81548160ff021916908360ff16021790555060608201518160010160026101000a81548160ff021916908360ff160217905550905050610ca18685611918565b610cab8486611936565b505050505050565b610cbb61140a565b600c6000828152602001908152602001600020600101600081819054906101000a900460ff1680929190610cee90613401565b91906101000a81548160ff021916908360ff16021790555050600c6000828152602001908152602001600020600101600181819054906101000a900460ff1680929190610d3a90613401565b91906101000a81548160ff021916908360ff16021790555050600c6000828152602001908152602001600020600101600081819054906101000a900460ff1680929190610d8690613401565b91906101000a81548160ff021916908360ff1602179055505050565b6000600560008473ffffffffffffffffffffffffffffffffffffffff1673ffffffffffffffffffffffffffffffffffffffff16815260200190815260200160002060008373ffffffffffffffffffffffffffffffffffffffff1673ffffffffffffffffffffffffffffffffffffffff16815260200190815260200160002060009054906101000a900460ff16905092915050565b610e3e61140a565b600073ffffffffffffffffffffffffffffffffffffffff168173ffffffffffffffffffffffffffffffffffffffff1603610ead576040517f08c379a0000000000000000000000000000000000000000000000000000000008152600401610ea49061349c565b60405180910390fd5b610eb681611488565b50565b60007f780e9d63000000000000000000000000000000000000000000000000000000007bffffffffffffffffffffffffffffffffffffffffffffffffffffffff1916827bffffffffffffffffffffffffffffffffffffffffffffffffffffffff19161480610f2c5750610f2b826119a3565b5b9050919050565b610f3c81611a85565b610f7b576040517f08c379a0000000000000000000000000000000000000000000000000000000008152600401610f7290613320565b60405180910390fd5b50565b600033905090565b816004600083815260200190815260200160002060006101000a81548173ffffffffffffffffffffffffffffffffffffffff021916908373ffffffffffffffffffffffffffffffffffffffff160217905550808273ffffffffffffffffffffffffffffffffffffffff16610ff983610892565b73ffffffffffffffffffffffffffffffffffffffff167f8c5be1e5ebec7d5bd14f71427d1e84f3dd0314c0f7b2291e5b200ac8c7c3b92560405160405180910390a45050565b60008061104b83610892565b90508073ffffffffffffffffffffffffffffffffffffffff168473ffffffffffffffffffffffffffffffffffffffff16148061108d575061108c8185610da2565b5b806110cb57508373ffffffffffffffffffffffffffffffffffffffff166110b38461053b565b73ffffffffffffffffffffffffffffffffffffffff16145b91505092915050565b8273ffffffffffffffffffffffffffffffffffffffff166110f482610892565b73ffffffffffffffffffffffffffffffffffffffff161461114a576040517f08c379a00000000000000000000000000000000000000000000000000000000081526004016111419061352e565b60405180910390fd5b600073ffffffffffffffffffffffffffffffffffffffff168273ffffffffffffffffffffffffffffffffffffffff16036111b9576040517f08c379a00000000000000000000000000000000000000000000000000000000081526004016111b0906135c0565b60405180910390fd5b6111c68383836001611ac6565b8273ffffffffffffffffffffffffffffffffffffffff166111e682610892565b73ffffffffffffffffffffffffffffffffffffffff161461123c576040517f08c379a00000000000000000000000000000000000000000000000000000000081526004016112339061352e565b60405180910390fd5b6004600082815260200190815260200160002060006101000a81549073ffffffffffffffffffffffffffffffffffffffff02191690556001600360008573ffffffffffffffffffffffffffffffffffffffff1673ffffffffffffffffffffffffffffffffffffffff168152602001908152602001600020600082825403925050819055506001600360008473ffffffffffffffffffffffffffffffffffffffff1673ffffffffffffffffffffffffffffffffffffffff16815260200190815260200160002060008282540192505081905550816002600083815260200190815260200160002060006101000a81548173ffffffffffffffffffffffffffffffffffffffff021916908373ffffffffffffffffffffffffffffffffffffffff160217905550808273ffffffffffffffffffffffffffffffffffffffff168473ffffffffffffffffffffffffffffffffffffffff167fddf252ad1be2c89b69c2b068fc378daa952ba7f163c4a11628f55a4df523b3ef60405160405180910390a46113c88383836001611ad8565b505050565b60006002600083815260200190815260200160002060009054906101000a900473ffffffffffffffffffffffffffffffffffffffff169050919050565b611412610f7e565b73ffffffffffffffffffffffffffffffffffffffff166114306109e3565b73ffffffffffffffffffffffffffffffffffffffff1614611486576040517f08c379a000000000000000000000000000000000000000000000000000000000815260040161147d9061362c565b60405180910390fd5b565b6000600b60009054906101000a900473ffffffffffffffffffffffffffffffffffffffff16905081600b60006101000a81548173ffffffffffffffffffffffffffffffffffffffff021916908373ffffffffffffffffffffffffffffffffffffffff1602179055508173ffffffffffffffffffffffffffffffffffffffff168173ffffffffffffffffffffffffffffffffffffffff167f8be0079c531659141344cd1fd0a4f28419497f9722a3daafe3b4186f6b6457e060405160405180910390a35050565b8173ffffffffffffffffffffffffffffffffffffffff168373ffffffffffffffffffffffffffffffffffffffff16036115bc576040517f08c379a00000000000000000000000000000000000000000000000000000000081526004016115b390613698565b60405180910390fd5b80600560008573ffffffffffffffffffffffffffffffffffffffff1673ffffffffffffffffffffffffffffffffffffffff16815260200190815260200160002060008473ffffffffffffffffffffffffffffffffffffffff1673ffffffffffffffffffffffffffffffffffffffff16815260200190815260200160002060006101000a81548160ff0219169083151502179055508173ffffffffffffffffffffffffffffffffffffffff168373ffffffffffffffffffffffffffffffffffffffff167f17307eab39ab6107e8899845ad3d59bd9653f200f220920489ca2b5937696c31836040516116ad9190612879565b60405180910390a3505050565b6116c58484846110d4565b6116d184848484611ade565b611710576040517f08c379a00000000000000000000000000000000000000000000000000000000081526004016117079061372a565b60405180910390fd5b50505050565b606061172182610f33565b6000600a6000848152602001908152602001600020805461174190612f9a565b80601f016020809104026020016040519081016040528092919081815260200182805461176d90612f9a565b80156117ba5780601f1061178f576101008083540402835291602001916117ba565b820191906000526020600020905b81548152906001019060200180831161179d57829003601f168201915b5050505050905060006117cb611c65565b905060008151036117e0578192505050611823565b6000825111156118155780826040516020016117fd929190613786565b60405160208183030381529060405292505050611823565b61181e84611c7c565b925050505b919050565b6001816000016000828254019250508190555050565b600081600001549050919050565b60008060008061185c600d61183e565b9050600a3382446040516020016118759392919061385f565b6040516020818303038152906040528051906020012060001c61189891906138d6565b600a3383426040516020016118af93929190613953565b6040516020818303038152906040528051906020012060001c6118d291906138d6565b600a3384426040516020016118e9939291906139e7565b6040516020818303038152906040528051906020012060001c61190c91906138d6565b93509350935050909192565b611932828260405180602001604052806000815250611ce4565b5050565b61193f82611a85565b61197e576040517f08c379a000000000000000000000000000000000000000000000000000000000815260040161197590613aa1565b60405180910390fd5b80600a6000848152602001908152602001600020908161199e9190613c6d565b505050565b60007f80ac58cd000000000000000000000000000000000000000000000000000000007bffffffffffffffffffffffffffffffffffffffffffffffffffffffff1916827bffffffffffffffffffffffffffffffffffffffffffffffffffffffff19161480611a6e57507f5b5e139f000000000000000000000000000000000000000000000000000000007bffffffffffffffffffffffffffffffffffffffffffffffffffffffff1916827bffffffffffffffffffffffffffffffffffffffffffffffffffffffff1916145b80611a7e5750611a7d82611d3f565b5b9050919050565b60008073ffffffffffffffffffffffffffffffffffffffff16611aa7836113cd565b73ffffffffffffffffffffffffffffffffffffffff1614159050919050565b611ad284848484611da9565b50505050565b50505050565b6000611aff8473ffffffffffffffffffffffffffffffffffffffff16611f07565b15611c58578373ffffffffffffffffffffffffffffffffffffffff1663150b7a02611b28610f7e565b8786866040518563ffffffff1660e01b8152600401611b4a9493929190613d94565b6020604051808303816000875af1925050508015611b8657506040513d601f19601f82011682018060405250810190611b839190613df5565b60015b611c08573d8060008114611bb6576040519150601f19603f3d011682016040523d82523d6000602084013e611bbb565b606091505b506000815103611c00576040517f08c379a0000000000000000000000000000000000000000000000000000000008152600401611bf79061372a565b60405180910390fd5b805181602001fd5b63150b7a0260e01b7bffffffffffffffffffffffffffffffffffffffffffffffffffffffff1916817bffffffffffffffffffffffffffffffffffffffffffffffffffffffff191614915050611c5d565b600190505b949350505050565b606060405180602001604052806000815250905090565b6060611c8782610f33565b6000611c91611c65565b90506000815111611cb15760405180602001604052806000815250611cdc565b80611cbb84611f2a565b604051602001611ccc929190613786565b6040516020818303038152906040525b915050919050565b611cee8383611ff8565b611cfb6000848484611ade565b611d3a576040517f08c379a0000000000000000000000000000000000000000000000000000000008152600401611d319061372a565b60405180910390fd5b505050565b60007f01ffc9a7000000000000000000000000000000000000000000000000000000007bffffffffffffffffffffffffffffffffffffffffffffffffffffffff1916827bffffffffffffffffffffffffffffffffffffffffffffffffffffffff1916149050919050565b611db584848484612215565b6001811115611df9576040517f08c379a0000000000000000000000000000000000000000000000000000000008152600401611df090613e94565b60405180910390fd5b6000829050600073ffffffffffffffffffffffffffffffffffffffff168573ffffffffffffffffffffffffffffffffffffffff1603611e4057611e3b8161233b565b611e7f565b8373ffffffffffffffffffffffffffffffffffffffff168573ffffffffffffffffffffffffffffffffffffffff1614611e7e57611e7d8582612384565b5b5b600073ffffffffffffffffffffffffffffffffffffffff168473ffffffffffffffffffffffffffffffffffffffff1603611ec157611ebc816124f1565b611f00565b8473ffffffffffffffffffffffffffffffffffffffff168473ffffffffffffffffffffffffffffffffffffffff1614611eff57611efe84826125c2565b5b5b5050505050565b6000808273ffffffffffffffffffffffffffffffffffffffff163b119050919050565b606060006001611f3984612641565b01905060008167ffffffffffffffff811115611f5857611f57612bf2565b5b6040519080825280601f01601f191660200182016040528015611f8a5781602001600182028036833780820191505090505b509050600082602001820190505b600115611fed578080600190039150507f3031323334353637383961626364656600000000000000000000000000000000600a86061a8153600a8581611fe157611fe06138a7565b5b04945060008503611f98575b819350505050919050565b600073ffffffffffffffffffffffffffffffffffffffff168273ffffffffffffffffffffffffffffffffffffffff1603612067576040517f08c379a000000000000000000000000000000000000000000000000000000000815260040161205e90613f00565b60405180910390fd5b61207081611a85565b156120b0576040517f08c379a00000000000000000000000000000000000000000000000000000000081526004016120a790613f6c565b60405180910390fd5b6120be600083836001611ac6565b6120c781611a85565b15612107576040517f08c379a00000000000000000000000000000000000000000000000000000000081526004016120fe90613f6c565b60405180910390fd5b6001600360008473ffffffffffffffffffffffffffffffffffffffff1673ffffffffffffffffffffffffffffffffffffffff16815260200190815260200160002060008282540192505081905550816002600083815260200190815260200160002060006101000a81548173ffffffffffffffffffffffffffffffffffffffff021916908373ffffffffffffffffffffffffffffffffffffffff160217905550808273ffffffffffffffffffffffffffffffffffffffff16600073ffffffffffffffffffffffffffffffffffffffff167fddf252ad1be2c89b69c2b068fc378daa952ba7f163c4a11628f55a4df523b3ef60405160405180910390a4612211600083836001611ad8565b5050565b600181111561233557600073ffffffffffffffffffffffffffffffffffffffff168473ffffffffffffffffffffffffffffffffffffffff16146122a95780600360008673ffffffffffffffffffffffffffffffffffffffff1673ffffffffffffffffffffffffffffffffffffffff16815260200190815260200160002060008282546122a19190613f8c565b925050819055505b600073ffffffffffffffffffffffffffffffffffffffff168373ffffffffffffffffffffffffffffffffffffffff16146123345780600360008573ffffffffffffffffffffffffffffffffffffffff1673ffffffffffffffffffffffffffffffffffffffff168152602001908152602001600020600082825461232c9190613fc0565b925050819055505b5b50505050565b6008805490506009600083815260200190815260200160002081905550600881908060018154018082558091505060019003906000526020600020016000909190919091505550565b6000600161239184610918565b61239b9190613f8c565b9050600060076000848152602001908152602001600020549050818114612480576000600660008673ffffffffffffffffffffffffffffffffffffffff1673ffffffffffffffffffffffffffffffffffffffff168152602001908152602001600020600084815260200190815260200160002054905080600660008773ffffffffffffffffffffffffffffffffffffffff1673ffffffffffffffffffffffffffffffffffffffff168152602001908152602001600020600084815260200190815260200160002081905550816007600083815260200190815260200160002081905550505b6007600084815260200190815260200160002060009055600660008573ffffffffffffffffffffffffffffffffffffffff1673ffffffffffffffffffffffffffffffffffffffff16815260200190815260200160002060008381526020019081526020016000206000905550505050565b600060016008805490506125059190613f8c565b9050600060096000848152602001908152602001600020549050600060088381548110612535576125346132a5565b5b906000526020600020015490508060088381548110612557576125566132a5565b5b9060005260206000200181905550816009600083815260200190815260200160002081905550600960008581526020019081526020016000206000905560088054806125a6576125a5613ff4565b5b6001900381819060005260206000200160009055905550505050565b60006125cd83610918565b905081600660008573ffffffffffffffffffffffffffffffffffffffff1673ffffffffffffffffffffffffffffffffffffffff168152602001908152602001600020600083815260200190815260200160002081905550806007600084815260200190815260200160002081905550505050565b600080600090507a184f03e93ff9f4daa797ed6e38ed64bf6a1f010000000000000000831061269f577a184f03e93ff9f4daa797ed6e38ed64bf6a1f0100000000000000008381612695576126946138a7565b5b0492506040810190505b6d04ee2d6d415b85acef810000000083106126dc576d04ee2d6d415b85acef810000000083816126d2576126d16138a7565b5b0492506020810190505b662386f26fc10000831061270b57662386f26fc100008381612701576127006138a7565b5b0492506010810190505b6305f5e1008310612734576305f5e100838161272a576127296138a7565b5b0492506008810190505b612710831061275957612710838161274f5761274e6138a7565b5b0492506004810190505b6064831061277c5760648381612772576127716138a7565b5b0492506002810190505b600a831061278b576001810190505b80915050919050565b604051806080016040528060008152602001600060ff168152602001600060ff168152602001600060ff1681525090565b6000604051905090565b600080fd5b600080fd5b60007fffffffff0000000000000000000000000000000000000000000000000000000082169050919050565b61280e816127d9565b811461281957600080fd5b50565b60008135905061282b81612805565b92915050565b600060208284031215612847576128466127cf565b5b60006128558482850161281c565b91505092915050565b60008115159050919050565b6128738161285e565b82525050565b600060208201905061288e600083018461286a565b92915050565b600081519050919050565b600082825260208201905092915050565b60005b838110156128ce5780820151818401526020810190506128b3565b60008484015250505050565b6000601f19601f8301169050919050565b60006128f682612894565b612900818561289f565b93506129108185602086016128b0565b612919816128da565b840191505092915050565b6000602082019050818103600083015261293e81846128eb565b905092915050565b6000819050919050565b61295981612946565b811461296457600080fd5b50565b60008135905061297681612950565b92915050565b600060208284031215612992576129916127cf565b5b60006129a084828501612967565b91505092915050565b600073ffffffffffffffffffffffffffffffffffffffff82169050919050565b60006129d4826129a9565b9050919050565b6129e4816129c9565b82525050565b60006020820190506129ff60008301846129db565b92915050565b612a0e816129c9565b8114612a1957600080fd5b50565b600081359050612a2b81612a05565b92915050565b60008060408385031215612a4857612a476127cf565b5b6000612a5685828601612a1c565b9250506020612a6785828601612967565b9150509250929050565b612a7a81612946565b82525050565b6000602082019050612a956000830184612a71565b92915050565b600080600060608486031215612ab457612ab36127cf565b5b6000612ac286828701612a1c565b9350506020612ad386828701612a1c565b9250506040612ae486828701612967565b9150509250925092565b600060ff82169050919050565b612b0481612aee565b82525050565b6000608082019050612b1f6000830187612a71565b612b2c6020830186612afb565b612b396040830185612afb565b612b466060830184612afb565b95945050505050565b600060208284031215612b6557612b646127cf565b5b6000612b7384828501612a1c565b91505092915050565b612b858161285e565b8114612b9057600080fd5b50565b600081359050612ba281612b7c565b92915050565b60008060408385031215612bbf57612bbe6127cf565b5b6000612bcd85828601612a1c565b9250506020612bde85828601612b93565b9150509250929050565b600080fd5b600080fd5b7f4e487b7100000000000000000000000000000000000000000000000000000000600052604160045260246000fd5b612c2a826128da565b810181811067ffffffffffffffff82111715612c4957612c48612bf2565b5b80604052505050565b6000612c5c6127c5565b9050612c688282612c21565b919050565b600067ffffffffffffffff821115612c8857612c87612bf2565b5b612c91826128da565b9050602081019050919050565b82818337600083830152505050565b6000612cc0612cbb84612c6d565b612c52565b905082815260208101848484011115612cdc57612cdb612bed565b5b612ce7848285612c9e565b509392505050565b600082601f830112612d0457612d03612be8565b5b8135612d14848260208601612cad565b91505092915050565b60008060008060808587031215612d3757612d366127cf565b5b6000612d4587828801612a1c565b9450506020612d5687828801612a1c565b9350506040612d6787828801612967565b925050606085013567ffffffffffffffff811115612d8857612d876127d4565b5b612d9487828801612cef565b91505092959194509250565b612da981612946565b82525050565b612db881612aee565b82525050565b608082016000820151612dd46000850182612da0565b506020820151612de76020850182612daf565b506040820151612dfa6040850182612daf565b506060820151612e0d6060850182612daf565b50505050565b6000608082019050612e286000830184612dbe565b92915050565b600067ffffffffffffffff821115612e4957612e48612bf2565b5b612e52826128da565b9050602081019050919050565b6000612e72612e6d84612e2e565b612c52565b905082815260208101848484011115612e8e57612e8d612bed565b5b612e99848285612c9e565b509392505050565b600082601f830112612eb657612eb5612be8565b5b8135612ec6848260208601612e5f565b91505092915050565b60008060408385031215612ee657612ee56127cf565b5b6000612ef485828601612a1c565b925050602083013567ffffffffffffffff811115612f1557612f146127d4565b5b612f2185828601612ea1565b9150509250929050565b60008060408385031215612f4257612f416127cf565b5b6000612f5085828601612a1c565b9250506020612f6185828601612a1c565b9150509250929050565b7f4e487b7100000000000000000000000000000000000000000000000000000000600052602260045260246000fd5b60006002820490506001821680612fb257607f821691505b602082108103612fc557612fc4612f6b565b5b50919050565b7f4552433732313a20617070726f76616c20746f2063757272656e74206f776e6560008201527f7200000000000000000000000000000000000000000000000000000000000000602082015250565b600061302760218361289f565b915061303282612fcb565b604082019050919050565b600060208201905081810360008301526130568161301a565b9050919050565b7f4552433732313a20617070726f76652063616c6c6572206973206e6f7420746f60008201527f6b656e206f776e6572206f7220617070726f76656420666f7220616c6c000000602082015250565b60006130b9603d8361289f565b91506130c48261305d565b604082019050919050565b600060208201905081810360008301526130e8816130ac565b9050919050565b7f4552433732313a2063616c6c6572206973206e6f7420746f6b656e206f776e6560008201527f72206f7220617070726f76656400000000000000000000000000000000000000602082015250565b600061314b602d8361289f565b9150613156826130ef565b604082019050919050565b6000602082019050818103600083015261317a8161313e565b9050919050565b7f455243373231456e756d657261626c653a206f776e657220696e646578206f7560008201527f74206f6620626f756e6473000000000000000000000000000000000000000000602082015250565b60006131dd602b8361289f565b91506131e882613181565b604082019050919050565b6000602082019050818103600083015261320c816131d0565b9050919050565b7f455243373231456e756d657261626c653a20676c6f62616c20696e646578206f60008201527f7574206f6620626f756e64730000000000000000000000000000000000000000602082015250565b600061326f602c8361289f565b915061327a82613213565b604082019050919050565b6000602082019050818103600083015261329e81613262565b9050919050565b7f4e487b7100000000000000000000000000000000000000000000000000000000600052603260045260246000fd5b7f4552433732313a20696e76616c696420746f6b656e2049440000000000000000600082015250565b600061330a60188361289f565b9150613315826132d4565b602082019050919050565b60006020820190508181036000830152613339816132fd565b9050919050565b7f4552433732313a2061646472657373207a65726f206973206e6f74206120766160008201527f6c6964206f776e65720000000000000000000000000000000000000000000000602082015250565b600061339c60298361289f565b91506133a782613340565b604082019050919050565b600060208201905081810360008301526133cb8161338f565b9050919050565b7f4e487b7100000000000000000000000000000000000000000000000000000000600052601160045260246000fd5b600061340c82612aee565b91506000820361341f5761341e6133d2565b5b600182039050919050565b7f4f776e61626c653a206e6577206f776e657220697320746865207a65726f206160008201527f6464726573730000000000000000000000000000000000000000000000000000602082015250565b600061348660268361289f565b91506134918261342a565b604082019050919050565b600060208201905081810360008301526134b581613479565b9050919050565b7f4552433732313a207472616e736665722066726f6d20696e636f72726563742060008201527f6f776e6572000000000000000000000000000000000000000000000000000000602082015250565b600061351860258361289f565b9150613523826134bc565b604082019050919050565b600060208201905081810360008301526135478161350b565b9050919050565b7f4552433732313a207472616e7366657220746f20746865207a65726f2061646460008201527f7265737300000000000000000000000000000000000000000000000000000000602082015250565b60006135aa60248361289f565b91506135b58261354e565b604082019050919050565b600060208201905081810360008301526135d98161359d565b9050919050565b7f4f776e61626c653a2063616c6c6572206973206e6f7420746865206f776e6572600082015250565b600061361660208361289f565b9150613621826135e0565b602082019050919050565b6000602082019050818103600083015261364581613609565b9050919050565b7f4552433732313a20617070726f766520746f2063616c6c657200000000000000600082015250565b600061368260198361289f565b915061368d8261364c565b602082019050919050565b600060208201905081810360008301526136b181613675565b9050919050565b7f4552433732313a207472616e7366657220746f206e6f6e20455243373231526560008201527f63656976657220696d706c656d656e7465720000000000000000000000000000602082015250565b600061371460328361289f565b915061371f826136b8565b604082019050919050565b6000602082019050818103600083015261374381613707565b9050919050565b600081905092915050565b600061376082612894565b61376a818561374a565b935061377a8185602086016128b0565b80840191505092915050565b60006137928285613755565b915061379e8284613755565b91508190509392505050565b60008160601b9050919050565b60006137c2826137aa565b9050919050565b60006137d4826137b7565b9050919050565b6137ec6137e7826129c9565b6137c9565b82525050565b6000819050919050565b61380d61380882612946565b6137f2565b82525050565b7f61747461636b0000000000000000000000000000000000000000000000000000600082015250565b600061384960068361374a565b915061385482613813565b600682019050919050565b600061386b82866137db565b60148201915061387b82856137fc565b60208201915061388b82846137fc565b60208201915061389a8261383c565b9150819050949350505050565b7f4e487b7100000000000000000000000000000000000000000000000000000000600052601260045260246000fd5b60006138e182612aee565b91506138ec83612aee565b9250826138fc576138fb6138a7565b5b828206905092915050565b7f646566656e636500000000000000000000000000000000000000000000000000600082015250565b600061393d60078361374a565b915061394882613907565b600782019050919050565b600061395f82866137db565b60148201915061396f82856137fc565b60208201915061397f82846137fc565b60208201915061398e82613930565b9150819050949350505050565b7f6d616e6120636f73740000000000000000000000000000000000000000000000600082015250565b60006139d160098361374a565b91506139dc8261399b565b600982019050919050565b60006139f382866137db565b601482019150613a0382856137fc565b602082019150613a1382846137fc565b602082019150613a22826139c4565b9150819050949350505050565b7f45524337323155524953746f726167653a2055524920736574206f66206e6f6e60008201527f6578697374656e7420746f6b656e000000000000000000000000000000000000602082015250565b6000613a8b602e8361289f565b9150613a9682613a2f565b604082019050919050565b60006020820190508181036000830152613aba81613a7e565b9050919050565b60008190508160005260206000209050919050565b60006020601f8301049050919050565b600082821b905092915050565b600060088302613b237fffffffffffffffffffffffffffffffffffffffffffffffffffffffffffffffff82613ae6565b613b2d8683613ae6565b95508019841693508086168417925050509392505050565b6000819050919050565b6000613b6a613b65613b6084612946565b613b45565b612946565b9050919050565b6000819050919050565b613b8483613b4f565b613b98613b9082613b71565b848454613af3565b825550505050565b600090565b613bad613ba0565b613bb8818484613b7b565b505050565b5b81811015613bdc57613bd1600082613ba5565b600181019050613bbe565b5050565b601f821115613c2157613bf281613ac1565b613bfb84613ad6565b81016020851015613c0a578190505b613c1e613c1685613ad6565b830182613bbd565b50505b505050565b600082821c905092915050565b6000613c4460001984600802613c26565b1980831691505092915050565b6000613c5d8383613c33565b9150826002028217905092915050565b613c7682612894565b67ffffffffffffffff811115613c8f57613c8e612bf2565b5b613c998254612f9a565b613ca4828285613be0565b600060209050601f831160018114613cd75760008415613cc5578287015190505b613ccf8582613c51565b865550613d37565b601f198416613ce586613ac1565b60005b82811015613d0d57848901518255600182019150602085019450602081019050613ce8565b86831015613d2a5784890151613d26601f891682613c33565b8355505b6001600288020188555050505b505050505050565b600081519050919050565b600082825260208201905092915050565b6000613d6682613d3f565b613d708185613d4a565b9350613d808185602086016128b0565b613d89816128da565b840191505092915050565b6000608082019050613da960008301876129db565b613db660208301866129db565b613dc36040830185612a71565b8181036060830152613dd58184613d5b565b905095945050505050565b600081519050613def81612805565b92915050565b600060208284031215613e0b57613e0a6127cf565b5b6000613e1984828501613de0565b91505092915050565b7f455243373231456e756d657261626c653a20636f6e736563757469766520747260008201527f616e7366657273206e6f7420737570706f727465640000000000000000000000602082015250565b6000613e7e60358361289f565b9150613e8982613e22565b604082019050919050565b60006020820190508181036000830152613ead81613e71565b9050919050565b7f4552433732313a206d696e7420746f20746865207a65726f2061646472657373600082015250565b6000613eea60208361289f565b9150613ef582613eb4565b602082019050919050565b60006020820190508181036000830152613f1981613edd565b9050919050565b7f4552433732313a20746f6b656e20616c7265616479206d696e74656400000000600082015250565b6000613f56601c8361289f565b9150613f6182613f20565b602082019050919050565b60006020820190508181036000830152613f8581613f49565b9050919050565b6000613f9782612946565b9150613fa283612946565b9250828203905081811115613fba57613fb96133d2565b5b92915050565b6000613fcb82612946565b9150613fd683612946565b9250828201905080821115613fee57613fed6133d2565b5b92915050565b7f4e487b7100000000000000000000000000000000000000000000000000000000600052603160045260246000fdfea26469706673582212202ab9b99fc425317169a7e4718a3a2abf8ad41173ebf54b573ba0e54c7f1c81db64736f6c63430008110033",
  "linkReferences": {},
  "deployedLinkReferences": {}
}