{
  "_format": "hh-sol-artifact-1",
  "contractName": "DeckSystem",
  "sourceName": "contracts/DeckSystem.sol",
  "abi": [
    {
      "inputs": [
        {
          "internalType": "address",
          "name": "_samuraiAddress",
          "type": "address"
        }
      ],
      "stateMutability": "nonpayable",
      "type": "constructor"
    },
    {
      "inputs": [
        {
          "internalType": "string",
          "name": "_uri",
          "type": "string"
        }
      ],
      "name": "register",
      "outputs": [],
      "stateMutability": "nonpayable",
      "type": "function"
    },
    {
      "inputs": [],
      "name": "samurai",
      "outputs": [
        {
          "internalType": "contract Samurai",
          "name": "",
          "type": "address"
        }
      ],
      "stateMutability": "view",
      "type": "function"
    },
    {
      "inputs": [
        {
          "internalType": "uint256[3]",
          "name": "_heroes",
          "type": "uint256[3]"
        }
      ],
      "name": "setDeck",
      "outputs": [],
      "stateMutability": "nonpayable",
      "type": "function"
    },
    {
      "inputs": [
        {
          "internalType": "address",
          "name": "_playerAddress",
          "type": "address"
        }
      ],
      "name": "viewCurrentDeck",
      "outputs": [
        {
          "internalType": "uint256[]",
          "name": "",
          "type": "uint256[]"
        }
      ],
      "stateMutability": "view",
      "type": "function"
    },
    {
      "inputs": [
        {
          "internalType": "address",
          "name": "_owner",
          "type": "address"
        }
      ],
      "name": "viewHeroes",
      "outputs": [
        {
          "internalType": "uint256[]",
          "name": "",
          "type": "uint256[]"
        }
      ],
      "stateMutability": "view",
      "type": "function"
    },
    {
      "inputs": [
        {
          "internalType": "address",
          "name": "_playerAddress",
          "type": "address"
        }
      ],
      "name": "viewPlayer",
      "outputs": [
        {
          "components": [
            {
              "internalType": "uint256",
              "name": "ID",
              "type": "uint256"
            },
            {
              "internalType": "string",
              "name": "uri",
              "type": "string"
            },
            {
              "internalType": "uint256",
              "name": "clan",
              "type": "uint256"
            },
            {
              "internalType": "uint256",
              "name": "seasonPoint",
              "type": "uint256"
            },
            {
              "internalType": "uint256[]",
              "name": "currentDeck",
              "type": "uint256[]"
            },
            {
              "internalType": "uint256",
              "name": "location",
              "type": "uint256"
            },
            {
              "internalType": "uint256",
              "name": "locationChangedTime",
              "type": "uint256"
            },
            {
              "internalType": "uint256",
              "name": "taxedGoods",
              "type": "uint256"
            },
            {
              "internalType": "uint256",
              "name": "deployedTime",
              "type": "uint256"
            },
            {
              "internalType": "bool",
              "name": "isInjured",
              "type": "bool"
            }
          ],
          "internalType": "struct Registration.Player",
          "name": "",
          "type": "tuple"
        }
      ],
      "stateMutability": "view",
      "type": "function"
    }
  ],
  "bytecode": "0x608060405260006002553480156200001657600080fd5b5060405162001ae638038062001ae683398181016040528101906200003c9190620000ee565b80600360006101000a81548173ffffffffffffffffffffffffffffffffffffffff021916908373ffffffffffffffffffffffffffffffffffffffff1602179055505062000120565b600080fd5b600073ffffffffffffffffffffffffffffffffffffffff82169050919050565b6000620000b68262000089565b9050919050565b620000c881620000a9565b8114620000d457600080fd5b50565b600081519050620000e881620000bd565b92915050565b60006020828403121562000107576200010662000084565b5b60006200011784828501620000d7565b91505092915050565b6119b680620001306000396000f3fe608060405234801561001057600080fd5b50600436106100625760003560e01c80633fccb1f714610067578063405e68c014610097578063b198750e146100b3578063db4f9ad9146100d1578063ed256fc414610101578063f2c298be14610131575b600080fd5b610081600480360381019061007c9190610cd3565b61014d565b60405161008e9190610f54565b60405180910390f35b6100b160048036038101906100ac91906110d8565b6102f1565b005b6100bb610688565b6040516100c89190611164565b60405180910390f35b6100eb60048036038101906100e69190610cd3565b6106ae565b6040516100f891906111ee565b60405180910390f35b61011b60048036038101906101169190610cd3565b61095e565b60405161012891906111ee565b60405180910390f35b61014b600480360381019061014691906112c5565b6109f7565b005b610155610ba2565b6000808373ffffffffffffffffffffffffffffffffffffffff1673ffffffffffffffffffffffffffffffffffffffff16815260200190815260200160002060405180610140016040529081600082015481526020016001820180546101b99061133d565b80601f01602080910402602001604051908101604052809291908181526020018280546101e59061133d565b80156102325780601f1061020757610100808354040283529160200191610232565b820191906000526020600020905b81548152906001019060200180831161021557829003601f168201915b5050505050815260200160028201548152602001600382015481526020016004820180548060200260200160405190810160405280929190818152602001828054801561029e57602002820191906000526020600020905b81548152602001906001019080831161028a575b50505050508152602001600582015481526020016006820154815260200160078201548152602001600882015481526020016009820160009054906101000a900460ff1615151515815250509050919050565b60008060003373ffffffffffffffffffffffffffffffffffffffff1673ffffffffffffffffffffffffffffffffffffffff168152602001908152602001600020600001540361033f57600080fd5b3373ffffffffffffffffffffffffffffffffffffffff16600360009054906101000a900473ffffffffffffffffffffffffffffffffffffffff1673ffffffffffffffffffffffffffffffffffffffff16636352211e836000600381106103a8576103a761136e565b5b60200201516040518263ffffffff1660e01b81526004016103c991906113ac565b602060405180830381865afa1580156103e6573d6000803e3d6000fd5b505050506040513d601f19601f8201168201806040525081019061040a91906113dc565b73ffffffffffffffffffffffffffffffffffffffff1614801561050b57503373ffffffffffffffffffffffffffffffffffffffff16600360009054906101000a900473ffffffffffffffffffffffffffffffffffffffff1673ffffffffffffffffffffffffffffffffffffffff16636352211e836001600381106104915761049061136e565b5b60200201516040518263ffffffff1660e01b81526004016104b291906113ac565b602060405180830381865afa1580156104cf573d6000803e3d6000fd5b505050506040513d601f19601f820116820180604052508101906104f391906113dc565b73ffffffffffffffffffffffffffffffffffffffff16145b80156105f557503373ffffffffffffffffffffffffffffffffffffffff16600360009054906101000a900473ffffffffffffffffffffffffffffffffffffffff1673ffffffffffffffffffffffffffffffffffffffff16636352211e8360026003811061057b5761057a61136e565b5b60200201516040518263ffffffff1660e01b815260040161059c91906113ac565b602060405180830381865afa1580156105b9573d6000803e3d6000fd5b505050506040513d601f19601f820116820180604052508101906105dd91906113dc565b73ffffffffffffffffffffffffffffffffffffffff16145b610634576040517f08c379a000000000000000000000000000000000000000000000000000000000815260040161062b90611466565b60405180910390fd5b806000803373ffffffffffffffffffffffffffffffffffffffff1673ffffffffffffffffffffffffffffffffffffffff168152602001908152602001600020600401906003610684929190610bf7565b5050565b600360009054906101000a900473ffffffffffffffffffffffffffffffffffffffff1681565b60606000600360009054906101000a900473ffffffffffffffffffffffffffffffffffffffff1673ffffffffffffffffffffffffffffffffffffffff166318160ddd6040518163ffffffff1660e01b8152600401602060405180830381865afa15801561071f573d6000803e3d6000fd5b505050506040513d601f19601f82011682018060405250810190610743919061149b565b90506000600360009054906101000a900473ffffffffffffffffffffffffffffffffffffffff1673ffffffffffffffffffffffffffffffffffffffff166370a08231856040518263ffffffff1660e01b81526004016107a291906114d7565b602060405180830381865afa1580156107bf573d6000803e3d6000fd5b505050506040513d601f19601f820116820180604052508101906107e3919061149b565b905060008167ffffffffffffffff81111561080157610800610f7b565b5b60405190808252806020026020018201604052801561082f5781602001602082028036833780820191505090505b509050600080600190505b848111610951578673ffffffffffffffffffffffffffffffffffffffff16600360009054906101000a900473ffffffffffffffffffffffffffffffffffffffff1673ffffffffffffffffffffffffffffffffffffffff16636352211e836040518263ffffffff1660e01b81526004016108b391906113ac565b602060405180830381865afa1580156108d0573d6000803e3d6000fd5b505050506040513d601f19601f820116820180604052508101906108f491906113dc565b73ffffffffffffffffffffffffffffffffffffffff160361093e57808383815181106109235761092261136e565b5b602002602001018181525050818061093a90611521565b9250505b808061094990611521565b91505061083a565b5081945050505050919050565b60606000808373ffffffffffffffffffffffffffffffffffffffff1673ffffffffffffffffffffffffffffffffffffffff1681526020019081526020016000206004018054806020026020016040519081016040528092919081815260200182805480156109eb57602002820191906000526020600020905b8154815260200190600101908083116109d7575b50505050509050919050565b60008060003373ffffffffffffffffffffffffffffffffffffffff1673ffffffffffffffffffffffffffffffffffffffff1681526020019081526020016000206000015414610a7b576040517f08c379a0000000000000000000000000000000000000000000000000000000008152600401610a72906115b5565b60405180910390fd5b6000610a8960016003610b56565b60ff16905060008060003373ffffffffffffffffffffffffffffffffffffffff1673ffffffffffffffffffffffffffffffffffffffff168152602001908152602001600020905060026000815480929190610ae390611521565b9190505550600254816000018190555082816001019081610b049190611777565b5081816002018190555060018203610b255760018160050181905550610b51565b60028203610b3c5760118160050181905550610b50565b60038203610b4f57601781600501819055505b5b5b505050565b600082824233604051602001610b6d9291906118b2565b6040516020818303038152906040528051906020012060001c610b90919061191a565b610b9a919061194b565b905092915050565b6040518061014001604052806000815260200160608152602001600081526020016000815260200160608152602001600081526020016000815260200160008152602001600081526020016000151581525090565b828054828255906000526020600020908101928215610c33579160200282015b82811115610c32578251825591602001919060010190610c17565b5b509050610c409190610c44565b5090565b5b80821115610c5d576000816000905550600101610c45565b5090565b6000604051905090565b600080fd5b600080fd5b600073ffffffffffffffffffffffffffffffffffffffff82169050919050565b6000610ca082610c75565b9050919050565b610cb081610c95565b8114610cbb57600080fd5b50565b600081359050610ccd81610ca7565b92915050565b600060208284031215610ce957610ce8610c6b565b5b6000610cf784828501610cbe565b91505092915050565b6000819050919050565b610d1381610d00565b82525050565b600081519050919050565b600082825260208201905092915050565b60005b83811015610d53578082015181840152602081019050610d38565b60008484015250505050565b6000601f19601f8301169050919050565b6000610d7b82610d19565b610d858185610d24565b9350610d95818560208601610d35565b610d9e81610d5f565b840191505092915050565b600081519050919050565b600082825260208201905092915050565b6000819050602082019050919050565b6000610de18383610d0a565b60208301905092915050565b6000602082019050919050565b6000610e0582610da9565b610e0f8185610db4565b9350610e1a83610dc5565b8060005b83811015610e4b578151610e328882610dd5565b9750610e3d83610ded565b925050600181019050610e1e565b5085935050505092915050565b60008115159050919050565b610e6d81610e58565b82525050565b600061014083016000830151610e8c6000860182610d0a565b5060208301518482036020860152610ea48282610d70565b9150506040830151610eb96040860182610d0a565b506060830151610ecc6060860182610d0a565b5060808301518482036080860152610ee48282610dfa565b91505060a0830151610ef960a0860182610d0a565b5060c0830151610f0c60c0860182610d0a565b5060e0830151610f1f60e0860182610d0a565b50610100830151610f34610100860182610d0a565b50610120830151610f49610120860182610e64565b508091505092915050565b60006020820190508181036000830152610f6e8184610e73565b905092915050565b600080fd5b7f4e487b7100000000000000000000000000000000000000000000000000000000600052604160045260246000fd5b610fb382610d5f565b810181811067ffffffffffffffff82111715610fd257610fd1610f7b565b5b80604052505050565b6000610fe5610c61565b9050610ff18282610faa565b919050565b600067ffffffffffffffff82111561101157611010610f7b565b5b602082029050919050565b600080fd5b61102a81610d00565b811461103557600080fd5b50565b60008135905061104781611021565b92915050565b600061106061105b84610ff6565b610fdb565b9050806020840283018581111561107a5761107961101c565b5b835b818110156110a3578061108f8882611038565b84526020840193505060208101905061107c565b5050509392505050565b600082601f8301126110c2576110c1610f76565b5b60036110cf84828561104d565b91505092915050565b6000606082840312156110ee576110ed610c6b565b5b60006110fc848285016110ad565b91505092915050565b6000819050919050565b600061112a61112561112084610c75565b611105565b610c75565b9050919050565b600061113c8261110f565b9050919050565b600061114e82611131565b9050919050565b61115e81611143565b82525050565b60006020820190506111796000830184611155565b92915050565b600082825260208201905092915050565b600061119b82610da9565b6111a5818561117f565b93506111b083610dc5565b8060005b838110156111e15781516111c88882610dd5565b97506111d383610ded565b9250506001810190506111b4565b5085935050505092915050565b600060208201905081810360008301526112088184611190565b905092915050565b600080fd5b600067ffffffffffffffff8211156112305761122f610f7b565b5b61123982610d5f565b9050602081019050919050565b82818337600083830152505050565b600061126861126384611215565b610fdb565b90508281526020810184848401111561128457611283611210565b5b61128f848285611246565b509392505050565b600082601f8301126112ac576112ab610f76565b5b81356112bc848260208601611255565b91505092915050565b6000602082840312156112db576112da610c6b565b5b600082013567ffffffffffffffff8111156112f9576112f8610c70565b5b61130584828501611297565b91505092915050565b7f4e487b7100000000000000000000000000000000000000000000000000000000600052602260045260246000fd5b6000600282049050600182168061135557607f821691505b6020821081036113685761136761130e565b5b50919050565b7f4e487b7100000000000000000000000000000000000000000000000000000000600052603260045260246000fd5b6113a681610d00565b82525050565b60006020820190506113c1600083018461139d565b92915050565b6000815190506113d681610ca7565b92915050565b6000602082840312156113f2576113f1610c6b565b5b6000611400848285016113c7565b91505092915050565b600082825260208201905092915050565b7f796f7520617265206e6f7420746865206f776e65720000000000000000000000600082015250565b6000611450601583611409565b915061145b8261141a565b602082019050919050565b6000602082019050818103600083015261147f81611443565b9050919050565b60008151905061149581611021565b92915050565b6000602082840312156114b1576114b0610c6b565b5b60006114bf84828501611486565b91505092915050565b6114d181610c95565b82525050565b60006020820190506114ec60008301846114c8565b92915050565b7f4e487b7100000000000000000000000000000000000000000000000000000000600052601160045260246000fd5b600061152c82610d00565b91507fffffffffffffffffffffffffffffffffffffffffffffffffffffffffffffffff820361155e5761155d6114f2565b5b600182019050919050565b7f796f752061726520616c72656164792072656769737465726564000000000000600082015250565b600061159f601a83611409565b91506115aa82611569565b602082019050919050565b600060208201905081810360008301526115ce81611592565b9050919050565b60008190508160005260206000209050919050565b60006020601f8301049050919050565b600082821b905092915050565b6000600883026116377fffffffffffffffffffffffffffffffffffffffffffffffffffffffffffffffff826115fa565b61164186836115fa565b95508019841693508086168417925050509392505050565b600061167461166f61166a84610d00565b611105565b610d00565b9050919050565b6000819050919050565b61168e83611659565b6116a261169a8261167b565b848454611607565b825550505050565b600090565b6116b76116aa565b6116c2818484611685565b505050565b5b818110156116e6576116db6000826116af565b6001810190506116c8565b5050565b601f82111561172b576116fc816115d5565b611705846115ea565b81016020851015611714578190505b611728611720856115ea565b8301826116c7565b50505b505050565b600082821c905092915050565b600061174e60001984600802611730565b1980831691505092915050565b6000611767838361173d565b9150826002028217905092915050565b61178082610d19565b67ffffffffffffffff81111561179957611798610f7b565b5b6117a3825461133d565b6117ae8282856116ea565b600060209050601f8311600181146117e157600084156117cf578287015190505b6117d9858261175b565b865550611841565b601f1984166117ef866115d5565b60005b82811015611817578489015182556001820191506020850194506020810190506117f2565b868310156118345784890151611830601f89168261173d565b8355505b6001600288020188555050505b505050505050565b6000819050919050565b61186461185f82610d00565b611849565b82525050565b60008160601b9050919050565b60006118828261186a565b9050919050565b600061189482611877565b9050919050565b6118ac6118a782610c95565b611889565b82525050565b60006118be8285611853565b6020820191506118ce828461189b565b6014820191508190509392505050565b600060ff82169050919050565b7f4e487b7100000000000000000000000000000000000000000000000000000000600052601260045260246000fd5b6000611925826118de565b9150611930836118de565b9250826119405761193f6118eb565b5b828206905092915050565b6000611956826118de565b9150611961836118de565b9250828201905060ff81111561197a576119796114f2565b5b9291505056fea26469706673582212204c8515b85fed6d45713e9fc06a34c55b5e1b873e3f48f2b028bf518377d636d264736f6c63430008110033",
  "linkReferences": {},
  "deployedLinkReferences": {}
}